:020000040800F2
:10000000180B002049010008A53D000865360008CE
:1000100000000000000000000000000000000000E0
:10002000000000000000000000000000F95E000871
:100030000000000000000000A73D0008FB5E000873
:100040005B0100085B0100085B0100085B01000820
:100050005B010008C51300085B010008CF1300080E
:100060005B010008691300085B0100085B010008E0
:10007000391200085B0100085B0100087D5F000881
:100080005B0100088D5F0008A55F00085D5F000848
:100090006D5F00085B0100085B0100085B01000860
:1000A0005B0100085B0100085B0100085B010008C0
:1000B0005B0100085B0100085B0100085B010008B0
:1000C00000F002F800F030F80CA030C8083824180E
:1000D0002D18A246671EAB4654465D46AC4201D180
:1000E00000F022F87E460F3E0FCCB6460126334282
:1000F00000D0FB1AA246AB4633431847F468000011
:10010000146900000023002400250026103A01D3C2
:1001100078C1FBD8520700D330C100D50B607047BF
:100120001FB51FBD10B510BD00F0FAFF1146FFF757
:10013000F7FF06F0D9F901F012F803B4FFF7F2FF68
:1001400003BC01F047F80000074880470748004714
:10015000FEE7FEE7FEE7FEE7FEE7FEE704480549A7
:10016000054A064B70470000595F0008C1000008AF
:1001700018050020180B0020180700201807002081
:10018000FEB5054610460C46184373D0AE468C4665
:100190000020AD1A01469C4167D366460027012422
:1001A0003D46B61A9D4102D313463A462124654680
:1001B00076462F04360C3E432D0CB61A9D4104D3CF
:1001C000150C1B042B4312041034654676462F068B
:1001D000360A3E432D0AB61A9D4104D3150E1B0262
:1001E0002B4312020834654676462F0736093E43F4
:1001F0002D09B61A9D4104D3150F1B012B43120183
:10020000241D65467646AF07B6083E43AD08B61ACC
:100210009D4104D3950F9B002B439200A41C65467F
:100220007646EF0776083E436D08B61A9D411AD30D
:1002300092185B41641C16E00018764665464941F9
:10024000B71A9D410191009009D36046B11A9841B7
:100250008E468446009801990025401C6941DD07BF
:1002600052082A435B08641EE6D57246634603B013
:10027000F0BDFFE700200146C046C0462A4623469F
:10028000F5E701E004C0091F0429FBD28B0701D563
:100290000280801CC90700D00270704700290BD073
:1002A000C30702D00270401C491E022904D38307F1
:1002B00002D50280801C891EE3E70022EEE70022BF
:1002C000DFE7002203098B422CD3030A8B4211D3B0
:1002D00000239C464EE003460B433CD400224308D7
:1002E0008B4231D303098B421CD3030A8B4201D3C7
:1002F00094463FE0C3098B4201D3CB01C01A52415F
:1003000083098B4201D38B01C01A524143098B42AE
:1003100001D34B01C01A524103098B4201D30B0197
:10032000C01A5241C3088B4201D3CB00C01A5241BC
:1003300083088B4201D38B00C01A524143088B4281
:1003400001D34B00C01A5241411A00D2014652411A
:10035000104670475DE0CA0F00D04942031000D339
:100360004042534000229C4603098B422DD3030A8E
:100370008B4212D3FC22890112BA030A8B420CD39E
:10038000890192118B4208D3890192118B4204D3C7
:1003900089013AD0921100E08909C3098B4201D347
:1003A000CB01C01A524183098B4201D38B01C01A81
:1003B000524143098B4201D34B01C01A52410309F8
:1003C0008B4201D30B01C01A5241C3088B4201D3A7
:1003D000CB00C01A524183088B4201D38B00C01A54
:1003E0005241D9D243088B4201D34B00C01A52412B
:1003F000411A00D20146634652415B10104601D3B8
:100400004042002B00D54942704763465B1000D341
:10041000404201B50020C046C04602BD704770474B
:10042000704700000246C80FC00781434B0030B53B
:100430004B405B009B0D20D01923DB06C91801231C
:100440001B05994220DB0324A40704251346AB4077
:100450000BD3002B04D1EB0613409B00E34204D4E2
:1004600001246407002312195941FF231B059942F7
:100470000BD2C9000143500F09E0CB0204D5014360
:100480000803024305D0054830BDFF21C9050843D4
:1004900030BD084607210905884330BD0000C07FF4
:1004A000F0B50C46871A9C410D46861A9D4103D231
:1004B000C01BA141D21963410D0D1F0DC94EEC1B8C
:1004C000AE435CD07F057F0D0026002F51D02D0557
:1004D000AC46A943DD020123ED0A1B051D43202381
:1004E0001B1B24D41746E740381871412F46E740BC
:1004F000CC199D402818314661410C0D27D161442B
:100500009A4013D50023401C594152000ED1400897
:10051000400001224B005205D34207D3052040077B
:10052000C14201D5B04900E0B0493046F0BD6B0092
:10053000002A00D001229A181F23203C1B1B01D542
:10054000002302E0E540281871410C0DD7D00124AA
:1005500024050919C407CD0740084908E40F2843BA
:100560006144002CD5D00024401C61419A40D0D178
:10057000CDE76A05520DD9D1C90FC907D5E79C4D02
:100580004E00002801D0012400E0002434195F004F
:10059000002A01D0012600E00026BE19954FAC428A
:1005A0000CD8AE420AD8B44206D001256D05EC4203
:1005B000BCD010461946F0BD9942FCD00020394607
:1005C000F0BDF0B51FB40C460F46811A9F41254679
:1005D000861A9D4106D20125ED076F40401ABC41A5
:1005E00052187B41210D1E0D8D1BAC467D4D8D4358
:1005F0007ED075056D0D7CD00D05AE46AC431B035A
:100600001B0B794D52429D41202366469B1B14D300
:100610001746F740381800260090744160462F4670
:100620000741E41900989D402818664116D4714688
:1006300071189A4025D5012320E093182A466A4173
:100640005200002B00D0521C1E23203E9B1B002B6F
:1006500061DD3541EE1728186641E8D5001876416E
:100660005B1C9A4000D3401C4B05F3181524E34053
:1006700010D3002B52D071467118D30FC01802D37B
:10068000491C05B0F0BD0123DB079A42F9D14008AF
:100690004000F6E701225205B21801D1002853D0DC
:1006A0000123CC0ADB029943891E002A08D1020CDF
:1006B00003D0020C0004103902E002460020203969
:1006C0000023550B05D112020823550B01D152010D
:1006D0000D23550C01D112011B1DD50C01D1920027
:1006E0009B1C150D01D152005B1C2025EE1A01E068
:1006F0002CE022E00546F54015439840CA1AE10770
:1007000069181305C918002ABBDA03204007081826
:10071000C10FC9070FE071466118B2E7F107400841
:100720000843711071444A000CD001235B059A42C2
:10073000A7D2C90FC9070020A3E74905490D26D153
:10074000002001E00028F4D100219AE7284D66003E
:10075000002801D0012100E0002171185F00002A6B
:1007600001D0012600E00026BE19224FA94210D870
:10077000AE420ED8B14208D001256D05E94206D03F
:100780001946A802414010467BE79C4201D0214611
:1007900077E70020394674E710B50C465C4005D574
:1007A0000124E4076340FFF70CFF10BDFFF778FE5C
:1007B00010BD30B40C465C4004D50124E40763400E
:1007C00030BC6DE630BCFCE670B50124E407614046
:1007D0000D465D4002D4FFF763FE70BD6340FFF736
:1007E000F0FE70BDFF0700000000F0FF0000F07F8A
:1007F0000000E0FF0000F87FF0B5F94D0C091E097C
:100800002C402E402F468BB0A7437DD0B543FCD063
:10081000002E7AD0002CFCD00D465D40ED0F254314
:10082000AC1BFF25AD0464190894C502440DC90230
:100830002143500DDC0204430120C007014304435F
:10084000D2020191200C110C00958C460104234624
:100850008B430A9161460904E24D8A430991010ADA
:100860007D4449198039097805464D4301266D18A4
:10087000F605751B6943C90C640B891C4C4364184D
:10088000B5012C1B250C2E04B4434C434D43210CC5
:10089000691889090591009DE90701D00121C9075F
:1008A00004912C4601996708CD072F434C08059DFC
:1008B000E10B4D432D0C29466646754302950D46C6
:1008C00045432E46029D7D1BB44100950D465D4378
:1008D00001942C0C2F040D465543AE462D0C3D4380
:1008E000029503947546049C2D04641B049406D25F
:1008F000029C039D641C002675410395029401AC83
:1009000070CC009F7D1B01E03EE162E1B44109042F
:100910000095079101940599A4086143090C0C46C0
:100920004443650BE7040C4666467443A646640BD5
:100930003C43039502947446049DE4042C1B0494E8
:1009400006D2029C039D641C002675410395029407
:1009500001AC70CC009F7D1BB44101940C465C43FC
:100960000095650FE7000C465443A646640F3C43D0
:10097000039502947446049DE4002C1B049406D253
:10098000029C039D641C002675410395029401ACF2
:1009900070CC009F7D1BB441AE09AF06049DC90019
:1009A000AD092F43049DA406AD060495079D34436D
:1009B00069180791059DE10B4D432D0C29466646AC
:1009C000754302950D4645432E46029D7D1BB4415D
:1009D00000950D465D4301942C0C2F040D465543A4
:1009E000AE462D0C3D43029503947546049C2D04A0
:1009F000641B049406D2029C039D641C002675416E
:100A00000395029401AC70CC009F7D1BB44101940E
:100A10008C050694079C890A611800950791019C32
:100A20000599A4086143090C0D464543680BEF0482
:100A30000D46644665436C0B3C43049FED047D1BEF
:100A4000AC4602D20025641C6841009E019D371B04
:100A500085410846584301950C46460FC50054434E
:100A6000600F28436546E4002C1B02D20025401C81
:100A70006E41019D3F1AB5412846BD0980062843B5
:100A80008446A009BF064E020699A40676180743BD
:100A9000079D002068410A99079019430020099B8F
:100AA00000906046FF1913434041E20F64003A434F
:100AB000A4460446D71A8C41A04203D901200090D5
:100AC00020463A46C70F941840416246D20F22434F
:100AD000644664000494009CBE466400D71AA44691
:100AE000044602978C417746002F01D1A04204D9D9
:100AF0006046401C8446029A2046C40FA6469418BD
:100B00004041049A0546D20F224364466400D31A3A
:100B10008D417146002901D1A84202D928461A46C2
:100B2000641C10430122002800D0164361020020FB
:100B3000079B891904465C410223002C02DB4918FB
:100B400013466441089DCE0A2D145D194B056705B7
:100B5000E10A2C050D1908993E43C9076940002B8D
:100B600008D0934006D30022761C5141002B01D1BE
:100B7000760876001C4A002D43DB154241D0AA437B
:100B80003FD030460BB0F0BD06180D464D41174C16
:100B90007642AC411AD395181C465C41134A6D420B
:100BA000A24113D3012252054C00D4420AD15C0069
:100BB000D4420BD04B4002D592021143E2E74900E8
:100BC0004908DFE75940C90FC90718E00020084964
:100BD000D8E7054801420DD10342F7D0F2E7000003
:100BE0000000FF070A6100000000F07F0000E0FF46
:100BF0000000F87F114859400143C01241400020D5
:100C0000C0E70123089A9B069A4205DC032252079B
:100C10008918C90FC907B5E7052252078918074A7D
:100C20001143D2125140ADE770B515461C4602463D
:100C30000B4628462146FFF7DFFD70BDFFFFFF7F13
:100C400030B50346CA02400D1043164D164C0A1526
:100C500002D02043002A06DBAA1A002A12DDD04067
:100C6000FF2A0BDC30BD5205520D01D14000400877
:100C7000AA1A07D4D0404042FF2A01DD002030BD2F
:100C80000028FCDD4A00002B01D0012000E00020FC
:100C9000101801225205D042F0D8C817C043604056
:100CA00030BD00001E040000000000801F22030C65
:100CB00002D10F22000402D0030E03D004E0002072
:100CC000014670470002083A030F01D10001121FCC
:100CD000830F01D18000921E002801DB4000521ECC
:100CE000120551184205C012411810467047C10F35
:100CF000C90700D04042012292071143D6E70121E3
:100D00008907D3E7F0B58B4C0F09254689B0BD4361
:100D10007BD01D092646AE43FAD00E465E402740E2
:100D2000F60F3E43254071D024012142FBD0FF2421
:100D3000AD19A4042D1B039501252D05DB02DB0A4B
:100D4000C9022B43C90A29431E010901040F130FCD
:100D5000050121431701880B820391432D098C461D
:100D6000A90B1E438A039543B30B9A0396433F098D
:100D7000BA0B9403A74302962E467E430497B646C9
:100D80004E19D7190C460196544305977E43371BDD
:100D90007646BF1B3601B646BE0B36190096764620
:100DA000BC043719009C01D3641C00946400002F1C
:100DB00001D001263443029E049F754366467E435C
:100DC0000496760034196E0034190094029C019E3A
:100DD0001C196643751BAE46069465464519059C6D
:100DE00005956C43594375460891691A0191049E13
:100DF00001465143A41B0491611A009C0791E1062E
:100E000005D061090122114302E072E06EE0610940
:100E1000089D00272C0A2D066918049D7C412A0A8A
:100E20002D066918019D6241AC0DAD026D1854414B
:100E3000079A910D920255196141029A64465843EE
:100E40005443069B059A5A43121A131B9A0E9B0190
:100E50005B187A41010B0005C3185141220A200694
:100E600044195A419A4200D2491C01204002814251
:100E700003D315230226F64302E014230326F64388
:100E80002020C51AA9401746AF40DA400A43204641
:100E90000399D8400914731819055118039A384357
:100EA000D2075140AC4009D00122944006D3002221
:100EB000401C5141002C01D1400840001E4A934281
:100EC00012D3012203989206904207DB05204007C7
:100ED00009181A480143C012414004E003204007AA
:100EE0000818C10FC907002009B0F0BD0020F107A4
:100EF000FAE705180C464C4111486D42A04115D344
:100F000094181A465A410E48644290410ED301206B
:100F10004A004005824209D35A00824206D3594012
:100F2000C90F084AC90700201143DDE70020064920
:100F3000DAE700000000FF07FE070000FFFFFF7F69
:100F40000000E0FF0000F07F0000F87F0121C905EC
:100F50000123411842001B06D3185B0E0AD0C110B2
:100F60000722D206891840075242D14201D55200C9
:100F700089187047090208D50146002A03D0C10F1D
:100F8000C9070020704710467047420202D0002077
:100F900002497047072109050143F4E70000F87F83
:100FA00010B501469E240002CA15A307002A02D0EC
:100FB0001843002A04DBA21A002A0CDDD04010BD21
:100FC0001206120E01D140004008A21A03D4D040EC
:100FD00040420028F3DDFF2248001206904201D96A
:100FE000002010BDC817C043584010BD1F22030C7D
:100FF00002D10F2200041CD0030E01D10002083AD6
:10100000030F01D10001121F830F01D18000921E36
:10101000002801DB4000521ED2055118021251185F
:101020001922904004D3491C002801D149084900E5
:1010300008467047C10FC90700D0404201229207FD
:101040001143D3E701218907D0E70000F8B5224C0E
:101050004E00069DA6420AD8A64201D1002806D11C
:101060005E00A64203D8A6420AD1002A08D00D2469
:10107000240425422CD02946002000F02FF8F8BD8A
:101080000C461C430CD4994202D0EFF30080F8BD0B
:10109000904202D0EFF30080F8BDEFF30080F8BD7E
:1010A00009242407E5008B4206D0EFF30080A0431B
:1010B000591A06D2284304E0101A05D3EFF3008032
:1010C000A04380F30088F8BDEFF30080A043F1E770
:1010D000009500F01BF8F8BD0000E0FFC80212D533
:1010E0004803400F002804D0C803C04301218840B2
:1010F0007047EFF30080000100090321090708434E
:1011000080F30088704700207047000010B5002071
:101110000249029A00F02BF810BD00000000F87F91
:10112000754600F053F8AE46050069465346C008C0
:10113000C000854618B020B5FFF710F860BC002746
:101140004908B6460026C0C5C0C5C0C5C0C5C0C593
:10115000C0C5C0C5C0C5403D49008D46704710B5EB
:101160000446C046C0462046FEF7E7FF10BD10B556
:101170000C461107090F092904D00A290AD00829A9
:101180000CD104E011460820FFF7A8FF06E0510645
:1011900006D501E0510601D50120C007214610BD4A
:1011A000D10607D501010909CC084907000E000640
:1011B000044309E0410F20024907000A0143200EC1
:1011C00000061D22D14101430846E7E70048704769
:1011D000B804002001491820ABBEFEE7260002003B
:1011E000704770B58C180578401C6B075B0F01D1F8
:1011F0000378401C2A1106D10278401C03E00678CF
:10120000401C0E70491C5B1EF9D12B0705D400232E
:10121000521E0DD40B70491CFAE70378401CCB1A00
:10122000921C03E01D780D70491C5B1C521EF9D501
:10123000A142D8D3002070BD10B5024800F0AEFA2C
:1012400010BD00007801002010B50146406A826B95
:1012500050231A420AD1816B012252021143816349
:101260000168CA681205920F05D020E0006B026B7E
:101270000846904710BD827E002A18D10A681207DE
:1012800015D58A6853070122002B09DB4B680C2413
:10129000A3434B60816B130299431143816306E0C2
:1012A000816B202319438163C16B1143C16300F03B
:1012B000ADF910BD10B5406A816B402211438163C6
:1012C000C16B04221143C16300F067FA10BD10B571
:1012D000406A00F061FA10BDF8B5044600200090A5
:1012E000206881688907890F012905D10168C9072C
:1012F00031D1C16809042ED48168184A10261140E2
:10130000012500291AD181682943816015481449B3
:101310000068FEF7D6FF00E0401E00900028FBD1D9
:1013200000F050FF074611E000F04CFFC01B022800
:101330000CD920680068C043C00707D0A06B3043B9
:10134000A063E06B2843E0630120F8BD20680068DB
:10135000C043C007E8D10020F8BD0000170000809E
:1013600040420F006401002010B5024800F0ACFCC0
:1013700010BD00007404002010B504460068054943
:1013800040181421FEF79DFF800020640248E063AE
:1013900010BD0000F8FFFDBF0000024030B5056C35
:1013A0000124AC40C56B6C60046863604368102B1B
:1013B000036803D099600068C26030BD9A6000681D
:1013C000C16030BD10B5022000F00AFE10BD10B59E
:1013D000202000F005FE402000F002FE802000F0FA
:1013E000FFFDFF20013000F0FBFD0120400200F076
:1013F000F7FD0120800200F0F3FD0120C00200F0A3
:10140000EFFD0120000300F0EBFD0120400300F0A0
:10141000E7FD0120800300F0E3FD0120C00300F0A0
:10142000DFFD10BD72B6FEE7F8B50546044620356F
:10143000287D0026012808D00120287520688168B1
:101440008907890F012908D101E00220F8BD016850
:10145000C9073CD1C168090439D4A16BFF2201320C
:10146000914302221143A163C1688907890F00914A
:10147000C16889088900C1602068816892071143AA
:10148000816000F09FFE074612E000F09BFEC01B4B
:1014900002280DD920688068002809DAA06B022193
:1014A000884310210843A063002028750120F8BD5F
:1014B000206880680028E8DB2068C168009A114332
:1014C000C160A06B80088000401CA06304E0A06B9A
:1014D00020210843A0630126002028753046F8BD6E
:1014E000F8B50025044620340095227D012A3BD022
:1014F0000122227503689E68760776D43F4F4E68B6
:10150000BE4254D09E6A0F78BA4016439E620123B1
:10151000C26A1B079A421FD0012A1DD0022A1BD083
:10152000032A19D0042A17D0052A15D0062A13D069
:10153000072A11D002688B6856697607760FB34286
:101540000AD05369DB08DB005361006842690B7AFB
:101550005B075B0F1A4342610868102806D0112808
:1015600004D0122802D045E00220F8BD244A936836
:10157000102809D011280AD00120000603439360E7
:101580000868102806D035E00120C005F6E70120E4
:101590008005F3E71C481B490068FEF792FE0A210C
:1015A000484300E0401E00900028FBD122E0986AEA
:1015B0000E78B240904398620868102803D0112832
:1015C00001D0122816D10E498A68102807D0112898
:1015D00008D00120000682438A600BE005E001206C
:1015E000C005F8E701208005F5E7816B2022114353
:1015F00081630125002020752846F8BD01100000F8
:101600000027014040420F0064010020F8B548481F
:1016100001250168491C01600B2907D10560454877
:101620000168491C01603D2900D10560424C434ED0
:10163000A0881E21301AFEF74EFEFFF758FB404AE5
:10164000404BFFF7B6F8FEF7EDFE3F4908602088F3
:101650001E21301AFEF73FFEFFF749FB3B4A3C4B89
:10166000FFF7A7F8FEF7DEFE3A49086060881E2102
:10167000FEF727FEFFF7E6FC37490860E0883221D5
:10168000301AFEF728FE2938FFF7D4FC33490860EA
:101690002089FFF734FB324E324B3246FFF732FBE4
:1016A0000022314BFFF7A8F8FEF7BCFE2F49074692
:1016B00008606089FFF723FB32462A4BFFF722FBC5
:1016C0000022294BFFF798F8FEF7ACFE06462848A3
:1016D0000660A089FFF713FB264A274BFFF712FB92
:1016E0000022214BFFF788F80022244BFFF70AFB6A
:1016F000FEF798FE2249244A08602249234B002025
:101700008E4201DA9E4201DA157000E01070204A24
:101710008F4201DA9F4201DA157000E010701D4916
:101720000A78002A01D00870F8BD0D70F8BD0000DD
:10173000200000202400002068010020FF0F00008E
:101740000AD7A3703D0A51403400002014AE47E18F
:101750007A9446402C000020300000202800002011
:10176000CDCCCCCCCCCC164000FEAF403C00002011
:10177000380000206666666666660A40000014400F
:1017800040000020CDCC4C3E150000209A99994095
:1017900016000020170000207047704770B50446FF
:1017A00000680168490702D54168490705D4016806
:1017B000090730D5416809072DD5A16BC90604D4A6
:1017C000A16B012252021143A163C1680C250905D6
:1017D000890F00291AD1A17E002917D101680907B4
:1017E00014D581684A070121002A08DB4268AA4310
:1017F0004260A06B0A0290430843A06306E0A06B1E
:1018000020221043A063E06B0843E0632046FFF70B
:10181000FDFE206805602068016809060DD5406856
:1018200000060AD5A06B012109040843A0632046E5
:1018300000F0D8F821688020086020680168C90697
:1018400013D54168C90610D5A16A1025012902D017
:10185000C168C90707D0E16B02221143E16305604B
:101860002046FFF79AFF2068056070BDF8B5002696
:101870000446002805D0A06B25462035002802D05C
:1018800007E00120F8BD0020E0632875204600F045
:10189000ABF8A06B1022C006002870DB20688168BE
:1018A00049076CD4A16B1301994302231943A16327
:1018B00081688907890F012905D10168C9070FD1FE
:1018C000C16809040CD4C16818239943A36819435B
:1018D000C160206801696368890089081943016152
:1018E0002068C1683D4B1940C160207E617E800345
:1018F000C9030843A17E4B031843A36A012B02D0FE
:1019000001231B0300E000231843E3681843236905
:10191000022B09D0002318432B79E57E5B00184386
:101920000123012D02D00AE00423F4E7002927D087
:10193000A16B20252943A163E16B1943E163E169B0
:101940000D46FF3DC23D02D0256A29430843216868
:10195000CD680543CD600125E16A2D07A94213D06A
:10196000012911D002290FD003290DD004290BD051
:10197000052909D0062907D0072905D010E028E05D
:10198000012109040843DAE721684D69ED08ED00FB
:101990004D6121684D69A78D7F077F0F3D434D61E4
:1019A0002168C9680E4D2940814207D10020E063BB
:1019B000A06B80088000401CA06308E0A06B02219F
:1019C00088431043A063E06B1843E0630126304670
:1019D000F8BDA06B1043A063F8E700001902FEFFFA
:1019E000E7FF3F837047000070B586B005461421BD
:1019F0006846FEF764FC1F492868884238D11E49B2
:101A00008A69401502438A618A69024005924A69DF
:101A1000000202434A614969002601400591EF2016
:101A2000009003200190092069460296C00600F04C
:101A3000E3FA1248124C41C48020266060604000E6
:101A4000A0608000E0602020666120610C48083CB6
:101A500000F088F9002801D0FFF7E4FC2C63002295
:101A600011460C20656200F0F5FD0C2000F0E6FD4B
:101A700006B070BD00240140001002400800024082
:101A800074040020F7B5044600680025806840070C
:101A90003DD426462036307D01280AD001273775EF
:101AA000607E012807D02046FFF716FC050002D013
:101AB0002EE00220FEBDA06B16490840FF21013137
:101AC0000843A0630020E0633075216B12488862F0
:101AD000216B1248C862216B1148086321681C20E1
:101AE0000860206841681022114341602068C16885
:101AF0003943C1602168206B4031029B019A00F09C
:101B00005BF92068816804221143816000E00225AE
:101B10002846FEBDFEF1FFFF49120008CF12000863
:101B2000B51200087047000070B54379012B13D03F
:101B3000012545710223037106683468074B934001
:101B40009C430B6849680B43934023433360057102
:101B500000214171084670BD022070BDFE0F0000DB
:101B6000704770B50446006801680425890400299F
:101B700011DA416B89040ED52571216901221143C7
:101B800021615103416320680168120391430160A0
:101B90002046FFF7E5FF20680168890011D5416BF9
:101BA00089000ED525712169022211432161110797
:101BB000416320680168D206914301602046FFF727
:101BC000B1FF70BD70B5040004D020790025002855
:101BD00002D005E0012070BD6571204600F008F8D4
:101BE00002202071256101202071002070BD0000BD
:101BF00010B586B0044614216846FEF760FB144910
:101C00002068884221D11348C26941040A43C26155
:101C1000C2690A400592426909130A434261406958
:101C200008400590102000900320019000200290B1
:101C300009206946C00600F0DFF900221146112094
:101C400000F008FD112000F0F9FC06B010BD000006
:101C5000007400400010024018B504680094006849
:101C60008018002904D0143000900360002018BDB3
:101C70000830F9E770B54279012A12D00122427189
:101C8000022303710468266815468D402E432660A2
:101C90000029016807D00C68A402240F0F2C0BD078
:101CA0000DE0022070BD0B689B061B0F0F2B06D1A9
:101CB0004B6813434B6002E04C681C434C6002715C
:101CC00000214171084670BDF0B4C16B0D68016818
:101CD0000C680422066C1346B3402B420DD06307F8
:101CE0000BD50B689B0602D40B6893430B60016C09
:101CF0008A40C16B4A60C16A19E00227B7400246B8
:101D00002F4001232032002F15D0A70713D50C68D0
:101D1000A40604D40C680A25AC430C605370036C11
:101D200002219940C36B596000211170816A00291A
:101D300016D0F0BC08470827B7402F4210D0240720
:101D40000ED50C680E25AC430C60046C1946A140FE
:101D5000C46B61608363537000211170016BE6E70F
:101D6000F0BC704770B5040021D00221204620301D
:101D700005464170226811680E48A36801406068FA
:101D800026691843E3683343184363691843A3691A
:101D90001843E3691843084310602046FFF7ECFA44
:101DA0000021A163012068702970084670BD0120E0
:101DB00070BD00000FC0FFFFF8B504468C46203010
:101DC00001780025012909D00126067041780027F5
:101DD000012905D0077002252846F8BD0220F8BD6C
:101DE00002214170A7632068016849084900016029
:101DF00061462046FFF7D2FAE06A002820680168B1
:101E000002D00E22114306E00A221143016020682D
:101E10000168042291430160206801683143016038
:101E2000DAE70000F8B50446FF200130664F4101B3
:101E300086010501202C0CD0102C1DD0802C2ED01A
:101E400084423CD10146614800F0B0F900282ED010
:101E500052E02021384600F0A9F95D4D002806D057
:101E60002021384600F0A2F9012802D0A6E0052082
:101E700000E000202870A1E01021384600F096F91B
:101E8000002806D01021384600F090F9012802D031
:101E900094E0642000E03C2002F038FF8EE08021D6
:101EA0004A4800F083F9002872D1802019E0FF2011
:101EB000013002F0E7FC474802F088FE1CE0022CEB
:101EC00008D08C4218D10E46404800F06FF9002827
:101ED0000BD020E002213D4800F068F900286DD1C8
:101EE000022002F0CFFC3B4866E0304602F0CAFC1C
:101EF000384802F06BFE0EE0B4420CD13146334854
:101F000000F054F9002817D1304602F0BBFC3248EB
:101F100002F05CFE10E001267602B4420CD131469C
:101F20002A4800F043F9002822D1304602F0AAFCEA
:101F3000294802F04BFE1BE0402C0AD00126F60394
:101F4000B44215D13146214800F030F9002808D0BC
:101F50001FE04021384600F029F900282ED140200A
:101F600027E0304602F08EFC1B4802F02FFE10E006
:101F7000AC420ED109202946C00600F017F900280E
:101F80000BD1284602F07EFC134802F01FFE04E04D
:101F90000EE00125AD02AC4203D00125ED02AC42BA
:101FA0000CD109202946C00600F000F9002808D00D
:101FB00004E002F067FC084802F008FE07484461AC
:101FC000F8BD2846F5E70000000800480004004876
:101FD0000900002088130000C4090000000401402B
:101FE00010B504494A69024202D04861FFF71AFF5E
:101FF00010BD000000040140F8B5002303240125B2
:10200000BFE02E469E40B44632407CD00E79B607E3
:10201000B60F012E01D0022E17D186682746B6468C
:102020005E00B74000967646BE43B646CF68009E37
:10203000B74076463743876046686746BE430F79A8
:10204000FF06FF0F9F40374347600E79F643B60700
:102050000ED0C6682746B4465E00B646B740664610
:10206000BE43B4468F687646B74066463743C7607E
:102070000E79B607B60F022E14D1DE08B600361858
:102080000096366A5F07B446FE0E0F27B646B74085
:102090006646BE43B4460F697646B7406646374348
:1020A000009E376206682746B4465E00B646B740D3
:1020B0006646BE430F79B446BF07BF0F7646B740AA
:1020C0006646374307604E68B603B60F58D0304FA8
:1020D000BE692E43BE61BE699F08F607F60F2D4EFE
:1020E000BF00BE190096B6680F27B4469E07360F8C
:1020F000B646B7406646BE430927FF06B446B84217
:1021000002D1002715E03BE0234FB84201D101275F
:102110000FE0224FB84201D102270AE0204FB84217
:1021200001D1032705E01F4FB84201D1042700E089
:1021300005277646B74066463743009EB7601A4E7D
:1021400036684F689643FF0300D51643164F3E602E
:102150007E684F689643BF0300D51643124F7E60DA
:10216000BE684F689643FF0200D516430E4FBE600F
:10217000FE684F689643BF0200D516430A4AD660F0
:102180005B1C0A681646DE4000D03AE7F8BD000046
:102190000010024000000140000400480008004810
:1021A000000C00480010004800040140006908408D
:1021B00000D001207047002A01D081617047816200
:1021C00070470000014880687047000058010020F7
:1021D00070B5024640325378202B1CD11378012B66
:1021E00019D00123137024245470046825689D437A
:1021F0002560046825681E03B543256004682568CA
:102200000D4325600068016819430160202050706B
:102210000020107070BD022070BD70B502464032C3
:102220005378202B1BD11378012B18D00124147064
:102230002423537003681D68A5431D6005682B683F
:102240000F263602B343090219432960006801686A
:1022500021430160202050700020107070BD0220CA
:1022600070BD000070B5040006D025464035687882
:102270000026002802D005E0012070BD2E70204607
:1022800000F05AF924206870206801684908490064
:1022900001600F2160680906884321680861216890
:1022A0008A680120C00382438A60E1680129A1682D
:1022B00008D021229202114322689160E16802292C
:1022C00002D005E00143F7E701212268C90251600D
:1022D00021684A680F4B1A434A602168CA688243E2
:1022E000CA60616920690843A1690902084321683D
:1022F000C860216AE06908432168086020680168B5
:102300000122114301606664202068702663AE706C
:10231000002070BD00800002FFB505460446403530
:10232000687881B0202878D12878012875D00120DC
:102330002870FFF747FF0746012200901923D103B9
:10234000204601F0F9F900283CD1222068701020C5
:10235000A8700026666403986062049860856663CE
:10236000618D2F48FF2903D9FF22228500903BE091
:10237000618D218500903DE02046029901F0C8F969
:1023800016E001F001FA00281CD12068406A616A59
:102390000870606A401C6062208D401E81B22185F9
:1023A000608D401E6085608D002801D000290CD012
:1023B000608D0A9900283A462046E2D101F024FABD
:1023C00000281CD0012005B0F0BD0097002280211C
:1023D00020460A9B01F0B0F90028F3D1608DFF2858
:1023E00005D9FF222285009601231B06C4E7608DD4
:1023F00020850096208D0123C2B25B06BCE72168D0
:102400002020C86121684A68064B1A404A606870FB
:10241000AE702E700020D6E7FFE70220D3E7000061
:102420000024008000E800FEFFB505460446403564
:10243000687881B0202878D12878012875D00120CB
:102440002870FFF7BFFE0746012200901923D10331
:10245000204601F071F900283CD12120687010203D
:10246000A8700026666403986062049860856663BD
:10247000618D2F48FF2903D9FF22228500903BE080
:10248000618D218500903DE02046029901F040F9E0
:1024900016E001F0DFF900281CD1606A216800789D
:1024A0008862606A401C6062608D401E6085208D7D
:1024B000401E80B22085618D002901D000280CD0FB
:1024C000608D0A9900283A462046E2D101F09CF935
:1024D00000281CD0012005B0F0BD0097002280210B
:1024E00020460A9B01F028F90028F3D1608DFF28CF
:1024F00005D9FF222285009601231B06C4E7608DC3
:1025000020850096208D0123C2B25B06BCE72168BE
:102510002020C86121684A68064B1A404A606870EA
:10252000AE702E700020D6E7FFE70220D3E7000050
:102530000020008000E800FE10B586B0044614219B
:102540006846FDF7BCFE1349206888421FD1124C33
:1025500061690120800401436161616901400320D8
:10256000059180020090122001900020029003202B
:1025700003900120049069460848FFF73DFDE1699A
:10258000012080050143E161E1690140059106B048
:1025900010BD000000580040001002400004004838
:1025A00002488168027889188160704758010020CC
:1025B00010B506480168102211430160032000F0A5
:1025C00007F800F027F8002010BD000000200240AE
:1025D00070B504460D4D7D202978C000FDF771FED1
:1025E00001460B480068FDF76CFE00F0AFFC0028C8
:1025F00009D1042C07D200222146401E00F02AF8FF
:1026000000206C6070BD012070BD000058010020EA
:102610006401002008B508488169012211438161E5
:10262000816911400091C26901040A43C261C06915
:102630000840009008BD000000100240002805DBA3
:10264000C106C90E0120884001490860704700009A
:1026500000E100E010B503F05DFE10BDF8B50F46D7
:1026600006005FD03D4D2868C007C00FB84209D2B0
:10267000286840084000384328602868C007C00F19
:10268000B8424FD13068364C81070CD5400704D58D
:10269000606807210902084360606068F021884390
:1026A000B168084360603078C0072CD0706801289A
:1026B00010D0022811D0032812D0216889070029E0
:1026C00030DA61688908890001436160FFF77AFDAB
:1026D000009011E021688903F1E721688901EEE7A4
:1026E000616BC903EBE7FFF76DFD0099411A1D48C7
:1026F000814201D90320F8BD60680C21084071684F
:1027000089008842EFD12868C007C00FB8420BD9B2
:10271000286840084000384328602868C007C00F78
:10272000B84201D00120F8BD3078400706D5606876
:10273000072109028843F1680843606000F018F837
:102740006168094A0906090F515CC84007490860D9
:102750000320FFF73DFF0020F8BD000000200240ED
:1027600000100240881300005E6900086401002028
:1027700030B519A30FCB89B06C460FC41AA30FCB89
:102780000FC41D4A51680C200B4603401B48042B04
:1027900005D01B4D082B04D00C2B00D1284609B0C6
:1027A00030BD8B021B0F6C46E45CD26A04AB12078F
:1027B000120FC9039A5C890F022901D0032901D0A5
:1027C000002301E0002328460021FDF7D9FC214623
:1027D00003F07AFDE3E70000020304050607080999
:1027E0000A0B0C0D0E0F101001020304050607085A
:1027F000090A0B0C0D0E0F100010024000127A0097
:10280000006CDC02FEB5040070D02078F94EFA4D61
:10281000C00748D068680007800F01281FD068688B
:102820000007800F022804D16868C003800F0228C7
:1028300015D06168012919D001208004002901D038
:10284000052917D02968B143296029688143296087
:10285000606800281BD0FFF7B5FC074613E0286826
:10286000800320D560680028CED01CE02868304363
:102870002860EDE7296801432960F7E7FFF7A2FC2C
:10288000C01B642870D828688003F7D50BE0FFF7D9
:1028900099FC074604E0FFF795FCC01B6428F1D8BB
:1028A00028688003F7D4207880073FD56868000740
:1028B000800F14D068680007800F022804D1686870
:1028C000C003800F01280AD0E068002828681ED0C5
:1028D000012108432860FFF775FC07460CE02868D3
:1028E00080070CD5E068012800D108E080E1FFF7FF
:1028F00069FCC01B0228C5D828688007F7D528685E
:10290000F82188432169C900084328600EE0400887
:1029100040002860FFF756FC074604E0FFF752FC32
:10292000C01B0228AED828688007F7D4207800079B
:1029300023D5E0690028686A0FD001210843686246
:10294000FFF740FC074604E0FFF73CFCC01B0228F1
:1029500098D8686A8007F7D50FE0400840006862A1
:10296000FFF730FC074605E0C3E0FFF72BFCC01B78
:10297000022887D8686A8007F7D4207804274007A0
:10298000002861DA00200190E869C00008D4E969F4
:10299000B8060143E961E969014001200091019015
:1029A00096480168C90511D4016882151143016078
:1029B000FFF708FC009005E0FFF704FC0099401ABF
:1029C000642898D88D480068C005F5D5A06801280E
:1029D0000AD0002801D0052811D0286A40084000FC
:1029E0002862286AB84302E0286A01210843286265
:1029F000A068002812D0FFF7E5FB00900AE0286AE3
:102A000038432862F0E7FFF7DDFB0099411A7C4864
:102A100081426ED8286A8007F5D50DE0FFF7D2FB1A
:102A2000009006E0FFF7CEFB0099411A74488142FE
:102A30005FD8286A8007F5D40198002804D0E96996
:102A4000012000078143E9612078C00635D560691F
:102A500001280CD0401D686B24D038436863686B34
:102A6000400840006863FFF7ADFB074622E0686B53
:102A700038436863686B012108436863FFF7A2FB72
:102A8000074604E0FFF79EFBC01B022831D8686BA5
:102A90008007F7D5686BF8218843A169C90008430E
:102AA00068630AE0B8436863F4E7FFF78BFBC01B79
:102AB00002281ED8686B8007F7D42078800637D5A7
:102AC00068680007800F032814D068680007800F2B
:102AD000022804D16868C003800F03280AD0206A46
:102AE0000028686B16D030436863FFF76BFB06461F
:102AF0000CE062E0686BC0031AD5206A012877D128
:102B000016E0FFF75FFB801B022856D8686BC003F6
:102B1000F7D50DE0B0436863FFF754FB064604E0C9
:102B2000FFF750FB801B022847D8686BC003F7D41F
:102B3000606A002866D069680907890F022942D0B7
:102B4000012636060228286805D0B0432860FFF722
:102B500039FB044633E0B0432860FFF733FB0746F8
:102B600004E0FFF72FFBC01B022826D8286880014D
:102B7000F7D4E86A216B000900010843E862A16A02
:102B8000E06A084369687B22D20391430843686086
:102B9000286830432860FFF715FB044604E0FFF780
:102BA00011FB001B022808D828688001F7D529E00E
:102BB000FFF708FB001B022801D90320FEBD28688F
:102BC0008001F5D41EE00128F8D06868E96A032284
:102BD000D203A36A02409A420AD10907226B090F65
:102BE000914205D10F2189040840E16A884209D049
:102BF0000120FEBD000001000010024000700040F6
:102C0000881300000020F4E7F8B504000CD0606AD7
:102C1000002500280AD02561656126464036A56258
:102C2000707F002808D00BE00120F8BD6168C81F44
:102C3000FD38F2D0E561F0E73577204600F05CF82A
:102C400002227277206801684023994301600723BC
:102C5000E1681B02994201D9002001E00120000334
:102C60000F273F02B94202D0994200D0A562FF234C
:102C70006168053319402127A368BF023B4019430F
:102C800023691340227D1943D207D20F1143012338
:102C9000A2695B021A401143E26938231A401143CA
:102CA000226A80231A401143A26A9B011A401143F1
:102CB00022681160A1690422090C1140626A102384
:102CC0001A401143626B08231A4011430F23E26834
:102CD0001B021A40114301221203104001432068D5
:102CE00041602068C16952109143C161256601208D
:102CF00070770020F8BD000010B586B0044614219E
:102D00006846FDF7DCFA1149206888421BD110485B
:102D1000826981140A43826182690A40059242698C
:102D200089010A43426140690840059038200090BB
:102D30000220002101900320029104910390694632
:102D40000448FFF759F906B010BD000000300140FB
:102D50000010024000040048FFB5044683B0012083
:102D600001900020254640350090287F0C9F1E468C
:102D700001280FD001202877FFF724FA0290687FFE
:102D8000616801280DD0CA1FFD3A08D1A168002949
:102D900005D102E0022007B0F0BD042801D00220D6
:102DA000D1E00498002820D0059800281DD0002EDE
:102DB0001BD0687F042801D005206877002020669A
:102DC00005992164EE80AE800499A163E687A68709
:102DD000E064206507210120E268090200038A42BD
:102DE0002268536803D9834302E00120ABE0034328
:102DF000536020680268520603D4026840231A43D5
:102E00000260E0688842606844D9002801D0012E41
:102E100039D1A06B21680088C860A06B801CA063BA
:102E2000E08F401EE0872EE020688168890710D57A
:102E3000E18F00290DD0019901290AD1A16B0988E0
:102E4000C160A06B801CA063E08F401EE087002063
:102E5000019020688168C9070DD0E98800290AD04F
:102E6000C068216C0880206C801C2064E888401EAB
:102E7000E88001200190FFF7A5F90299401AB842B5
:102E800001D3781C5ED1E08F0028CDD1E8880028DE
:102E9000CAD146E0002801D0012E3CD1A06B2168A8
:102EA00000780873A06B401CA063E08F401EE08791
:102EB00031E020688168890710D5E18F00290DD0A5
:102EC000019901290AD1A16B09780173A06B401CFB
:102ED000A063E08F401EE087002001902068816899
:102EE000C9070DD0E98800290AD0007B216C087041
:102EF000206C401C2064E888401EE880012001907E
:102F0000FFF760F90299401AB84202D3781C02D048
:102F100018E0002F16D0E08F0028CAD1E8880028DA
:102F2000C7D139462046029A02F0F8FE002803D0A5
:102F3000012000902020206601206877002028775B
:102F4000009828E703200090F6E70000094910B533
:102F5000401E884201D9012010BD074C6061032149
:102F6000081F03F0D7F90020A0610720206100208E
:102F700010BD0000FFFFFF0000E000E07047704759
:102F8000F0B502462032137F012B21D001251577A1
:102F90000223537706687468B3687027BC430F68D0
:102FA0002743776000680B4CA04208D0AC07A042D2
:102FB00005D0094CA04202D0084CA04204D1802484
:102FC0004968A34319438160557700201077F0BD0D
:102FD0000220F0BD002C01400004004000400140F0
:102FE00070B5040005D025462035687F002802D042
:102FF00006E0012070BD00202877204600F014F87C
:1030000002206877211D206802F0D4FF012040349F
:10301000A071A877E87720706070A070E0702071D0
:1030200060716877002070BD08B5374A016837487D
:10303000914205D18269C1140A438261806919E015
:103040000122920791420DD1C16901221143C16150
:10305000C06910400022009011460F20FFF7FAFAD5
:103060000F201AE02A4A914207D1C26902210A437D
:10307000C261C0690840009008BD264A91420FD144
:10308000C26910210A43C261C06900220840009051
:1030900011461120FFF7DEFA1120FFF7CFFA08BD25
:1030A0001D4A91420DD1C26920210A43C261C06903
:1030B00000220840009011461220FFF7CBFA1220A0
:1030C000EBE7164A91420DD1C26989150A43C261E4
:1030D000C06900220840009011461320FFF7BAFA99
:1030E0001320DAE70E4A9142D9D1826901210904FD
:1030F0000A43826180690022084000901146142032
:10310000FFF7A8FA1420C8E7002C01400010024085
:103110000004004000100040001400400020004067
:1031200000400140014620314A7F012A01D00120A0
:10313000704702224A7700680B4A0121904208D06A
:103140008A07904205D0094A904202D0084A90422C
:1031500004D182685207520F062A02D002680A433D
:103160000260002070470000002C01400004004075
:1031700000400140014620314A7F012A01D0012050
:10318000704702224A770268D36801210B43D3605B
:1031900000680B4A904208D08A07904205D0094A3D
:1031A000904202D0084A904204D182685207520FDE
:1031B000062A02D002680A4302600020704700001D
:1031C000002C014000040040004001400168CA6832
:1031D00052085200CA6001680A6A084B1A4207D1B5
:1031E0000A6A9B101A4203D10A68520852000A6008
:1031F00001212030417700207047000011110000AC
:10320000F8B5054604462035287F0026012817D04A
:103210000120287702206877226890687727FF23AB
:10322000B8431B02984390600868502838D00EDCE1
:1032300020284FD006DC00284CD010281ED149E0B1
:103240000220F8BD302845D0402817D13AE0602848
:103250002ED0702819D001221203801A0FD090426C
:103260000CD1CB684A688968206802F0FAFE2068B1
:103270008168012292031143816000E00126012050
:103280006877002028773046F8BDCB684A6889689F
:10329000206802F0E6FE2168886838438860EEE71F
:1032A000CA684968206802F0EBFF5021206806E0F8
:1032B000CA684968206802F0F4FF6021206802F0C3
:1032C000DBFEDCE7CA684968206802F0D9FF4021CC
:1032D0002068F4E7226801461046F0E7704770B5B1
:1032E0000446006801690025C9438907002915DBE8
:1032F000C168C943890711D4E91E01610120207703
:10330000206880698007204602D0FFF7E7FF04E0CD
:1033100000F0BEF8204600F049F9257720680169E1
:10332000C943490717D4C168C943490713D40421C5
:10333000C943016102202077206880698005800FE1
:10334000204602D0FFF7CAFF04E000F0A1F82046B3
:1033500000F02CF9257720680169C943090716D4C4
:10336000C168C943090712D40821C9430161042077
:1033700020772068C0698007204602D0FFF7AEFFA3
:1033800004E000F085F8204600F010F92577206869
:103390000169C943C90617D4C168C943C90613D412
:1033A0001021C9430161082020772068C069800589
:1033B000800F204602D0FFF791FF04E000F068F88C
:1033C000204600F0F3F8257720680169C943C90752
:1033D00008D1C168C943C90704D1891E01612046CB
:1033E00000F03EF920680169C943090609D4C168A3
:1033F000C943090605D48021C94301612046FFF76E
:10340000BDFD20680169C943490609D4C168C943A3
:10341000490605D44021C9430161204600F021F945
:1034200020680169C943890609D4C168C94389066E
:1034300005D42021C94301612046FFF7A0FD70BDDE
:1034400010B586B0044614216846FCF738FF0D49D4
:103450002068884213D10C48426909130A4342612B
:10346000406908400221059001910120002100904F
:1034700002910391049069460448FEF7BDFD06B031
:1034800010BD00000004004000100240000400488D
:103490007047F8B5064604462036307F00270D46B3
:1034A00001280ED001203077002A0CD0042A1BD02E
:1034B000082A2FD00C2A3ED001270020307738462A
:1034C000F8BD0220F8BD206802F0DEFD20688169A9
:1034D0000822114381612068826904218A43826144
:1034E000206881692A6912E0206802F011FE2068D4
:1034F00082690121C9020A4382612068816901222F
:10350000920291438161206881692A691202114304
:103510008161D2E7206802F03BFE2068C169082281
:103520001143C1612068C26904218A43C2612068D5
:10353000C1692A6912E0206802F06CFE2068C16946
:103540000122D2021143C1612068C26901218902AE
:103550008A43C2612068C1692A6912021143C161AC
:10356000ABE770B5040005D025462035687F0028FC
:1035700002D006E0012070BD00202877204600F030
:1035800014F802206877211D206802F013FD012045
:103590004034A071A877E87720706070A070E07068
:1035A000207160716877002070BD7047704700001F
:1035B00030B504460223203000290AD004290DD05A
:1035C0002046403008290ED04278012A10D0012030
:1035D00030BD827F012AFAD183770AE0C27F012AB7
:1035E000F5D1C37705E00278012AF0D1037000E03D
:1035F00043700122206802F027FD144A2068144914
:10360000904207D0884205D0124B984202D0124B0C
:10361000984204D1436C0125ED032B434364206899
:103620000123904207D09A07904204D00B4A90425F
:1036300001D0884204D181684907490F062902D088
:10364000016819430160002030BD0000002C0140DA
:103650000040014000440140004801400004004097
:1036600070477047FEE701688A69D243920701D428
:1036700000228A6200688169C943C90703D0816951
:103680000122114381617047F7B5044600680F4677
:103690008169C943C90636D44168890104D44168A7
:1036A00001229203114341600026254640352068DF
:1036B0008069C043800612D5781CF8D0FEF782FDE1
:1036C0000299401AB84201D8002FF0D1616C202035
:1036D000014361646870AE702E700120FEBD2168E8
:1036E0001020C86120682027C7612046FFF7BBFF74
:1036F00020684168054A11404160606C042108431C
:1037000060646F70E7E70020FEBD000000E800FE87
:10371000F0B50668059C7568064F600D3843854313
:103720008805800D11040843184320430543756044
:10373000F0BD0000FF63FF03F8B51D4617460E46B7
:10374000044609E0681C07D0FEF73CFD0699401AC4
:10375000A8420BD8002D09D02068816930468843E3
:103760000FD00020B842EDD00020F8BD616C2020C1
:1037700001436164403460700020A070207001201B
:10378000F8BD0120EEE70000F7B50027202605462A
:103790000446403528E02046029A0199FFF774FF5D
:1037A000002801D00120FEBD20688069C04380064A
:1037B00011D420688169C943490702D4218D0029A9
:1037C00017D1C661206841680E4A114041606764A4
:1037D0006E70AF7013E0FEF7F5FC0299411A019884
:1037E000814208D8002806D020688069C04340077D
:1037F000D1D40020FEBD606C304360646E702F70C9
:10380000D0E7000000E800FE70B516460D460446FD
:103810000FE0324629462046FFF736FF002801D048
:10382000012070BDFEF7CEFC801BA84208D8002DF9
:1038300006D020688069C0438006EAD4002070BDAD
:10384000616C202001436164403460700020A070EE
:103850002070E5E770B516460D46044611E0324685
:1038600029462046FFF710FF002801D0012070BD37
:10387000681C06D0FEF7A6FC801BA84208D8002DC5
:1038800006D020688069C0438007E8D4002070BD5E
:10389000616C202001436164403460700020A0709E
:1038A0002070E3E73EB50024344800940194324987
:1038B000029401608460012505614905C46041608E
:1038C00004214161047644768576C4760902C46198
:1038D0000162014620310D718462FDF7C7FF0028A7
:1038E00001D072B6FEE70120000300940190072486
:1038F000694622480294FDF7F3FD002801D072B614
:10390000FEE769461D480095FDF7EAFD002801D055
:1039100072B6FEE70220009069461848FDF7E0FD08
:10392000002801D072B6FEE70320009069461348D4
:10393000FDF7D6FD002801D072B6FEE70520009005
:1039400069460E48FDF7CCFD002801D072B6FEE7AF
:103950000620009069460948FDF7C2FD002801D005
:1039600072B6FEE7694605480094FDF7B9FD0028E8
:1039700001D072B6FEE73EBD002401407801002070
:1039800008B508484169012211434161406910406E
:103990000022009011460920FEF75CFE0920FEF788
:1039A0004DFE08BD00100240F0B587B014216846F6
:1039B000FCF785FC51484269012189050A434261AF
:1039C00042690A400592426949110A4342614269CB
:1039D0000A400592426989000A43426142690A40ED
:1039E0000592426949100A43426142690A400592C0
:1039F000426989000A43426140690022084003216C
:103A0000059009023E48FEF7D6FB832109200022DB
:103A10000902C006FEF7CFFB002204213948FEF759
:103A2000CAFB002240213848FEF7C5FB10200024C5
:103A300000900194694602943148FEF7DDFA202097
:103A40000090312000040190694602942C48FEF752
:103A5000D3FA2E48212636040125009069460196A6
:103A600002952948FEF7C8FA40276946244800977E
:103A700001960295FEF7C0FA03200002009002941E
:103A80006946019503941E48FEF7B6FA83200002AA
:103A9000009009200294694601950394C006FEF740
:103AA000ABFA072080020090092069460196029532
:103AB000C006FEF7A1FA0420009002946946019521
:103AC00003941048FEF798FA029469460E4800974E
:103AD00001950394FEF790FA002211460520FEF7A7
:103AE000B9FD0520FEF7AAFD002211460720FEF7CA
:103AF000B1FD0720FEF7A2FD07B0F0BD00100240A7
:103B000000080048000C00480004004882E3000060
:103B100010B51348114901601249416000218160CC
:103B20000161416181610122C161C2600162FEF7F0
:103B300099FB002801D072B6FEE700210848FEF785
:103B400047FB002801D072B6FEE700210448FEF7CB
:103B500064FB002801D072B6FEE710BD005800409B
:103B6000CC010020280C200010B511480F4901603D
:103B7000FF21053141600021072212028160C260ED
:103B8000016101224261520282611022C2618022DF
:103B900041620262816207220163C2624163FFF7F0
:103BA00033F8002801D072B6FEE710BD00300140A6
:103BB0001802002010B586B0002400941748019424
:103BC0000294039404941449059401601449846098
:103BD000416004614461C9108461C160FFF700FA6B
:103BE000002801D072B6FEE701200003009069466C
:103BF0000A48FFF705FB002801D072B6FEE70494DF
:103C000004A906480594FFF7BBF9002801D072B655
:103C1000FEE706B010BD0000004001402C0400206B
:103C2000BF5D000010B586B00024009417480194D1
:103C30000294039404941449059401601449846027
:103C400041600461446163218461C160FFF7C8F988
:103C5000002801D072B6FEE70120000300906946FB
:103C60000A48FFF7CDFA002801D072B6FEE72020FF
:103C700004A911C105480839FFF782F9002801D0CD
:103C800072B6FEE706B010BD002C01407C02002099
:103C90005F09000010B586B0002400940121164889
:103CA00001940294039404948907059401601349D4
:103CB00084604160046112498461C160FFF790F93A
:103CC000002801D072B6FEE701200003009069468B
:103CD0000948FFF795FA002801D072B6FEE7049470
:103CE00004A905480594FFF74BF9002801D072B6E6
:103CF000FEE706B010BD0000C4020020BF5D00005A
:103D00003FD10C0010B58EB000240794089409949C
:103D10000A940B941C2168460C94FCF7D0FA2048B6
:103D20001E490160EF218460416004616321846168
:103D3000C160FFF755F9002801D072B6FEE70120F7
:103D40000003079007A91648FFF75AFA002801D088
:103D500072B6FEE71248FFF704FC002801D072B6E5
:103D6000FEE70B940BA90E480C94FFF709F9002805
:103D700001D072B6FEE76020009001940294082200
:103D8000694604940648FFF784FB002801D072B608
:103D9000FEE70348FFF754FB0EB010BD00040040DF
:103DA0000C030020FEE7704710B50648FDF73CFB0A
:103DB000072205490348FDF765FE0448FFF7B2F9FD
:103DC00010BD000078010020680100207C02002066
:103DD000FEB50646401A804C1427B51A012877DD37
:103DE0000E2E01DA002068E0202E70DC681D01DC58
:103DF0000A2062E02846FCF77AFF0022774B019107
:103E0000009002F0FFFB01D80B2056E0281DFBDDDF
:103E10000022734B0199009802F0F4FB01D80C20AA
:103E20004BE0E81CFBDD00226E4B0199009802F08C
:103E3000E9FB01D80D2040E0A81C01DC0E203CE08D
:103E40000022694B0199009802F0DCFBF6D9002DA5
:103E500001D50F2031E00022644B0199009802F057
:103E6000D1FBF6D9002D01DC102026E00022604BAA
:103E70000199009802F0C6FBF6D9012D01DC112052
:103E80001BE000225B4B0199009802F0BBFBF6D9C6
:103E9000022D01DC122010E00022574B01990098FE
:103EA00002F0B0FBF6D9032D06DD0022534B019939
:103EB000009802F0A7FB02D81320207008E0042D20
:103EC00005DD00224E4B0199009802F09BFB277004
:103ED000681C06DA0E2E01DA002045E0202E01DDF6
:103EE0002770FEBD681DF7DD2846FCF700FF06467B
:103EF00000223A4B009102F085FBEDD9281DEBDD45
:103F000030460022364B009902F07CFBE4D90320B6
:103F10000127C542E4DD30460022324B009902F011
:103F200071FBDDD902200746C542D9DD30460022AB
:103F30002D4B009902F066FBD2D90327002DCFD478
:103F400030460022294B009902F05CFBC8D90427B7
:103F5000002DC5DD30460022254B009902F052FBB2
:103F6000BED9012D02DC05202070FEBD30460022A6
:103F7000204B009902F046FB01D80620F4E7022D01
:103F800001DC0720F0E7304600221B4B009902F0CD
:103F900039FB01D80820E7E7032D01DC0920E3E71E
:103FA00030460022154B009902F02CFB01D80A2064
:103FB000DAE7042D01DC0B20D6E730460022104B57
:103FC000009902F01FFB01D80C20CDE7052D01DC84
:103FD0000D20C9E70E20C7E70C000020000012C02A
:103FE00000000CC0000004C00000F8BF0000E0BFEB
:103FF0000000E03F0000F83F0000044000000C40DB
:104000000000124010B5032001F01CFE0009092831
:1040100009D0032001F016FE0107090F902001438B
:10402000032001F03DFE10BDF8B54C497F24474AFE
:10403000E405474D474E484F0968030002F05CF91C
:10404000150C1A20252A2F34383E44494E53585D0A
:1040500062676C72787F11004148814202DAFFF793
:10406000D1FFF8BD3F4867E000F098F8F8BD00F0D8
:10407000A7F8F8BD3B488142F1DB9142F7DBF3E75B
:104080009142ECDBA142F2DBEEE7A142E7DDA9427F
:10409000EDDBE9E7A942E2DBB142E8DDE4E7B1426A
:1040A000DDDDB942E3DBDFE7B942D8DB2E484AE089
:1040B0002D488142D3DD012080073DE001208007AB
:1040C0008142CCDD294837E028488142C7DB2848B7
:1040D00032E027488142C2DB264834E0254881424D
:1040E000BDDD25482FE024488142B8DD234823E088
:1040F00022488142B3DD22481EE021488142AEDBE6
:10410000204819E01F488142A9DB1F481BE01E48D8
:104110008142A4DD1D4816E01C4881429FDD8120BC
:10412000C00509E08120C005814298DB18480AE0FB
:104130001748814293DD1748814298DB94E7154880
:1041400081428CDB1448814291DD8DE7CDCC4C3F20
:104150009A99993F3333B33FCDCCCC3F3800002000
:10416000CDCCCC3E9A99193F6666E63FCDCC0C404B
:104170009A99194066662640333333400000404028
:10418000CDCC4C409A9959406666664033337340B3
:1041900066668640CDCC8C403333934010B5032007
:1041A00001F050FD0009062809D0032001F04AFD66
:1041B0000107090F60200143032001F071FD10BDCC
:1041C00010B5032001F03EFD0109052906D00107C5
:1041D000090F50200143032001F062FD10BD0000D3
:1041E00010B509487D220168D20019390160914259
:1041F00002DB9200914200DD02600022036811465A
:104200000248FDF729FD10BD00000020B801002084
:1042100000B5030002F070F80906080A0C0E10122F
:1042200014161800002000BD012000BD022000BDB2
:10423000032000BD042000BD052000BD062000BDF8
:10424000072000BD082000BD0020C04300BD0000C5
:1042500010B516490300096802F04EF80906091363
:1042600016191B1E2023080000F03CF810BD104852
:1042700019E000F091F810BD8142FCDDFFF7B0FFBE
:1042800010BD0B48FA300EE0192080010BE0094800
:1042900009E00848FA3006E0074804E00648FA302A
:1042A00001E07D2040018142E6DAE2E700000020E3
:1042B0004C0400003A0700002E09000010B5002051
:1042C000064C014620600648FDF7D4FC002211464A
:1042D00003482368FDF7C0FC10BD0000000000206B
:1042E000B801002010B50B480168002901DD323902
:1042F00001600A4608498A4201DD016003E0002AA4
:1043000001DA0021F9E70022036811460348FDF7AE
:10431000A3FC10BD00000020B80B0000B801002075
:1043200000B50D4801210278130001F0E5FF0906F0
:104330001313080A0C0E1012140000210AE00221C7
:1043400008E0032106E0042104E0052102E0062143
:1043500000E00721017000BD0D00002000B50D48F0
:1043600008210278130001F0C7FF0906080A0C0EA5
:1043700010121313140000210AE0022108E00321A7
:1043800006E0042104E0052102E0062100E0072107
:10439000017000BD0D00002010B509487D220168A4
:1043A000D20014310160914202DB9200914200DDA3
:1043B00002600022036811460248FDF74DFC10BD63
:1043C00000000020B8010020F0B5974885B00568CE
:1043D00096480027006801909548012600680090E3
:1043E00094480068029094480078012827D19348A7
:1043F000934C854220DB2120400685421EDC284666
:10440000019902F003FA01467F20C005814200991C
:10441000284607DD02F0FAF901467F20C0058142F7
:104420000ADA0BE002F0F2F98121C905C84206D987
:104430007F21C905884201DA267000E02770814893
:104440000078012832D17D487F4C854225DB212030
:104450004006854201DD022027E02846019902F04E
:10446000D5F901467F20C0058142009928460BDD21
:1044700002F0CCF97549884216D27549884211D8A4
:1044800074498842E7DB0DE002F0C0F98121C905DB
:10449000C8420BD96E49884201D3277006E06E49A5
:1044A000884201DA267001E0032020700098FCF7B2
:1044B00077FD03900198FCF773FD04462846FCF74E
:1044C0006FFD2146039AFFF783FC644800780128BA
:1044D0007ED15A480024854203DB212040068542D4
:1044E00001DD08246AE02846019902F08FF90146AF
:1044F00001907F20C005814228DD594902988842F9
:1045000009DD2846009902F081F930E0FCF7EFFB65
:104510000022544B4BE05449884215DD0198FCF7CA
:104520003FFD002800DA404201280DDD0298FCF72B
:104530000DFD4E4A4E4BFCF7E5FB00224D4BFCF7C0
:1045400038F901F06DFF36E0012437E02846009984
:1045500002F05CF98121C9050246C8422ED9FF212B
:104560000198C90541183B48814206D81046FCF71E
:1045700017FD0028CADA4042C8E73F4901984018B1
:104580003E49884243D93E4B0198C01888423AD8E8
:104590001046FCF705FD002800DA4042FCF7A7FBB7
:1045A0000022384B03E0FCF7A2FB0022364BFCF75D
:1045B000F3F801F0D1FEFCF743FB044633480078E2
:1045C000FFF726FEA04201DDFFF7AAFE2F4800E01C
:1045D00017E00078FFF71CFEA04201DAFFF7BEFEED
:1045E00016482B4C85421DDB21204006854207DC06
:1045F0002846009902F00AF97F21C90588420DDD9D
:10460000277005B0F0BD234901988842D6D91046DD
:10461000FCF7C6FC0028C6DA4042C4E78121C90580
:10462000C842EED92670ECE71C00002034000020C0
:104630002C0000203000002010000020000060410D
:104640000A000020110000200B000020000090C094
:104650000000C0BF000020400000604012000020A9
:10466000000082420000E03F00000C429A999999B4
:104670009999C93F00001440FFFF5F3FFFFF7F0093
:10468000FFFFDF3E000004400000F83F0D00002067
:104690000E0000200000A0C108B55D4D5D4E5E4FCC
:1046A0005E4C207805282AD1002000F0E9FA00208D
:1046B000FFF7CEFD287800F09FFA00220421584829
:1046C000FDF779FDFF21092000220131C006FDF729
:1046D00072FD0121002249025248FDF76CFDFF21C5
:1046E000002201314F48FDF766FD0121092000221B
:1046F0004902C006FDF75FFD307801F005FA207829
:1047000000281FD1002204214548FDF754FDFF2158
:10471000092000220131C006FDF74DFD01210022D4
:1047200049024048FDF747FD00F076FD0020FFF705
:104730008FFD287800F060FA307801F0E5F93878DC
:10474000FFF772FC2078012815D13748006814283B
:1047500015D03549401C08603878FFF765FC28788B
:1047600000F04AFA307801F0CFF930480078FFF7CE
:104770006FFD01F059F92078032806D01BE0FFF700
:1047800023FE294800210160E6E727480068142835
:1047900037D02549401C08603878FFF745FC287859
:1047A00000F02AFA307801F0AFF920480078FFF7DE
:1047B0004FFD01F039F92078022800D070E73878F1
:1047C000FFF732FC287800F017FA307801F09CF9F6
:1047D00016480078FFF73CFD15480068FCF7E0FB41
:1047E000009014480068FCF7DBFB044612480068A0
:1047F000FCF7D6FB2146009AFFF7EAFA01F014F91C
:104800004EE7FFF7E1FD084800210160C4E7000022
:104810000A0000200B0000200C00002009000020EE
:10482000000C004800080048040000200D00002093
:104830002C000020340000201C00002010B5FFF7E1
:10484000B3FA00F07DFC01F057FAFFF737FD2021A5
:104850000548FDF7ABFC0549002801D0002000E029
:104860000520087010BD0000000800480900002065
:104870000249034B0A781A7008707047090000203B
:1048800008000020F8B5054601229203B6485111F0
:104890004B0000780026954206D1002802D0002067
:1048A000FFF7E6FFB14839E1B14A0124B14F8D422B
:1048B0000CD1B14903280C70B0490C70B0490C7090
:1048C000147042D80120FFF7D3FF3EE0AD49402DE0
:1048D00009780AD09D4238D11670AB4A030012788D
:1048E00001F00AFD041C212F2F559F4A08250300C3
:1048F00001F002FD0403080608130220107004E012
:104900000846CBE00220FFF7B3FF9F48A0490470A0
:104910009E483D70067004200870F8BD0846FFF7F9
:10492000A7FF99480BE09848012A04D0047003209F
:10493000FFF79EFF2BE00670F9E7067027E0047092
:1049400025E09148012AFAD1F7E70120C00385420A
:104950001DD18948067084480078030001F0CCFC22
:1049600004120712128404707EE006707CE087480F
:104970000178002904D006700320FFF779FF73E067
:104980000470F9E7814801780029EED1EBE70120B6
:104990000003854268D1794A734816700078032174
:1049A000030001F0A9FC04031B324BA578480378EF
:1049B000002B08D0012B08D0022B07D0032B07D0E7
:1049C000042B07D007E0047005E00221017002E02B
:1049D0000421FBE70670167064483CE06C480378DD
:1049E000002B08D0012B08D0022B07D0032B07D0B7
:1049F000042B07D007E0047005E00221017002E0FB
:104A00000421FBE70670167014E061480278002A62
:104A100008D0012A08D0022A07D0032A07D0042A86
:104A200007D007E0047005E00221017002E00421D4
:104A3000FBE706700320FFF71BFF59E0544802789C
:104A4000002A08D0012A08D0022A07D0032A07D05A
:104A5000042A07D04CE004704AE00221017047E0CC
:104A60000421FBE7067043E0022D0BD00120400338
:104A700085423DD13C480078030001F03DFC042212
:104A80002831314138480078030001F035FC040436
:104A90000A14140341E73B483C700078FFF7E8FE36
:104AA000F8BD3878082801D2401C38700320FFF781
:104AB000DFFE334832E038780828FAD2401C3870DC
:104AC000F7E730483C700078FFF7D2FE18E03878FE
:104AD000012801D9401E38700320FFF7C9FE04E009
:104AE0003878012801D9401E38702548067007E043
:104AF0003F210906274F802D1CD0E81FF9380FD021
:104B00000120C0028542CBD11748017822480329F1
:104B1000C6D80178002925D00129C1D10670F8BD79
:104B200011481E4A0078030001F0E6FB0403181840
:104B30001803F4E70C481A4A0078030001F0DCFB84
:104B4000040304040403EAE738689042E7DA01F05A
:104B5000BFFD01E001F05AFE3860F8BD38689042B0
:104B6000F8DCF8BD0470F8BD090000201800002032
:104B7000130000200D000020100000201100002074
:104B800012000020080000200E0000200A00002073
:104B90000B0000201C0000200F00002000005841E6
:104BA0000000024210B5432001F04CF8CF21014033
:104BB000432001F075F810BD10B5432001F042F814
:104BC00020210143432001F06BF810BD002100E0DB
:104BD000491C8142FCDB704710B5432001F032F8DC
:104BE0000107090F092906D001090901092001431C
:104BF000432001F055F810BD70B5FF240134084D75
:104C0000002809D0012806D100F00CF80122214625
:104C10002846FDF7D0FA70BDFFF7DEFF0022F6E769
:104C20000008004810B5432001F00CF80107090FF7
:104C3000062906D00109090106200143432001F09D
:104C40002FF810BD70B5FF2409250134ED060028AA
:104C50000CD0012809D1094800F0BCFDFFF7ACFFDA
:104C6000012221462846FDF7A6FA70BD034800F050
:104C70009BFDFFF797FF0022F3E70000E2680008C2
:104C80007CB50A25002812D001280FD1002410A0DD
:104C90000068019068460471022301AA7F210D4833
:104CA0000095FDF7C1FB641C082CF0DD7CBD0024E1
:104CB0002646684601960471022301AA7F21054811
:104CC0000095FDF7B1FB641C082CF2DD7CBD0000F3
:104CD00000FF0000CC01002010B50948094C007805
:104CE0000128094807D000F05FFD0022042120467A
:104CF000FDF761FA10BD00F06DFD0122F6E700003E
:104D000009000020000C0048DC680008014909681F
:104D1000C86370470C03002010B5030001F0ECFAE3
:104D200009062E6E9ACAFEFDFCFBFA00FC4800F054
:104D30003BFDFB48801C00F037FDF948001D00F0EA
:104D400033FDF748801D00F02FFDF548083000F0D6
:104D50002BFDF3480A3000F027FDF1480C3000F03D
:104D600023FDEF480E3000F01FFDED48103000F03D
:104D70001BFDEB48123000F017FD26E0E84800F07C
:104D800029FDE748801C00F025FDE548001D00F0E6
:104D90000BFDE348801D00F007FDE148083000F0FE
:104DA00003FDDF480A3000F0FFFCDD480C3000F066
:104DB000FBFCDB480E3000F0F7FCD948103000F067
:104DC000F3FCD748123000F005FDD548143000F050
:104DD000EBFCD348163000F0E7FCD148183000F067
:104DE000E3FCCF481A3000F0DFFCCD481C3000F067
:104DF000DBFCCB481E3000F0D7FC48E1C84800F08F
:104E0000E9FCC748801C00F0E5FCC548001D00F027
:104E1000E1FCC348801D00F0C7FCC148083000F029
:104E2000C3FCBF480A3000F0BFFCBD480C3000F0A6
:104E3000BBFCBB480E3000F0B7FCB948103000F0A6
:104E4000B3FCB748123000F0C5FCB548143000F090
:104E5000C1FCBEE7B24800F0BDFCB148801C00F0C8
:104E6000B9FCAF48001D00F0B5FCAD48801D00F056
:104E7000B1FCAB48083000F097FCA9480A3000F0BC
:104E800093FCA7480C3000F08FFCA5480E3000F0D2
:104E90008BFCA348103000F087FCA148123000F0D2
:104EA00099FC9F48143000F095FC9D48163000F0A6
:104EB00091FC92E79A4800F08DFC9948801C00F024
:104EC00089FC9748001D00F085FC9548801D00F086
:104ED00081FC9348083000F07DFC91480A3000F0D6
:104EE00063FC8F480C3000F05FFC8D480E3000F002
:104EF0005BFC8B48103000F057FC8948123000F002
:104F000069FC8748143000F065FC8548163000F0D5
:104F100061FC04E0BFE0BFE07AE03DE004E08048EF
:104F2000183000F057FC5CE77D4800F053FC7C48EB
:104F3000801C00F04FFC7A48001D00F04BFC7848C4
:104F4000801D00F047FC7648083000F043FC7448B0
:104F50000A3000F03FFC72480C3000F025FC70482D
:104F60000E3000F021FC6E48103000F01DFC6C4843
:104F7000123000F02FFC6A48143000F02BFC684817
:104F8000163000F027FC6648183000F023FC644817
:104F90001A3000F01FFC28E7614800F01BFC604855
:104FA000801C00F017FC5E48001D00F013FC5C48FC
:104FB000801D00F00FFC5A48083000F00BFC5848E8
:104FC0000A3000F007FC56480C3000F003FC54484F
:104FD0000E3000F0E9FB5248103000F0E5FB50487D
:104FE000123000F0F7FB4E48143000F0F3FB4C4851
:104FF000163000F0EFFB4A48183000F0EBFB484851
:105000001A3000F0E7FB46481C3000F0E3FBF0E606
:10501000434800F0DFFB4248801C00F0DBFB4048C7
:10502000001D00F0D7FB3E48801D00F0D3FB3C483C
:10503000083000F0CFFB3A480A3000F0CBFB38488C
:105040000C3000F0C7FB36480E3000F0C3FB34488C
:10505000103000F0A9FB3248123000F0BBFB3048A2
:10506000143000F0B7FB2E48163000F0B3FB2C488C
:10507000183000F0AFFB2A481A3000F0ABFB28488C
:105080001C3000F0A7FB26481E3000F0A3FB24488C
:10509000203000F089FB10BD214800F09BFB204828
:1050A000801C00F097FB1E48001D00F093FB1C487D
:1050B000801D00F08FFB1A48083000F08BFB184869
:1050C0000A3000F087FB16480C3000F083FB1448D0
:1050D0000E3000F07FFB1248103000F07BFB1048D0
:1050E000123000F077FB0E48143000F073FB0C48D0
:1050F000163000F06FFB0A48183000F06BFB0848D0
:105100001A3000F067FB06481C3000F063FB0448CF
:105110001E3000F05FFB0248203000F05BFB10BD4A
:10512000EC6800081CB5694608710A20009001234C
:1051300001AA7F210148FDF777F91CBDCC010020B1
:1051400010B58C20FFF7EEFF7020FFF7EBFFC020BB
:10515000FFF7E8FF0020FFF793FD08210748FEF75F
:1051600027FA10210648FDF721F80449012803D049
:1051700064200968C86310BD3C20FAE70C030020D6
:105180000008004810B5030001F0B6F80504101837
:10519000283427001F4800F01DFB1E48801C00F02B
:1051A00019FB1C48001D00F0FFFA12E0194800F03E
:1051B00011FB1848801C00F00DFB06E0154800F0BC
:1051C00009FB1448801C00F0EFFA1248001D00F0A3
:1051D00001FB1048801D00F0E7FA10BD0D4800F0FB
:1051E000F9FA0C48801C00F0DFFA0A48001D00F0B4
:1051F000F1FA0AE0074800F0EDFA0648801C00F0DA
:10520000D3FA0448001D00F0CFFA0248801D00F0D8
:10521000E1FA10BDE468000810B5654800F0C4FA72
:105220006348801C00F0C0FA6148801D00F0BCFAA1
:105230005F48103000F0B8FA5D48123000F0B4FA60
:105240005B48143000F0B0FA5948163000F0ACFA60
:105250005748183000F0A8FA55481A3000F0A4FA60
:1052600053481C3000F0A0FA51481E3000F09CFA60
:105270004F48203000F098FA4D48223000F094FA60
:105280004B48243000F090FA4948263000F08CFA60
:105290004748283000F088FA45482A3000F084FA60
:1052A00043482C3000F080FA41482E3000F07CFA60
:1052B0003F48303000F078FA3D48323000F074FA60
:1052C0003B48343000F070FA3948363000F06CFA60
:1052D0003748383000F068FA35483A3000F064FA60
:1052E00033483C3000F060FA31483E3000F05CFA60
:1052F0002F48403000F058FA2D48423000F054FA60
:105300002B48443000F050FA2948463000F04CFA5F
:105310002748483000F048FA25484A3000F044FA5F
:1053200023484C3000F040FA21484E3000F03CFA5F
:105330001F48503000F038FA1D48523000F034FA5F
:105340001B48543000F030FA1948563000F02CFA5F
:105350001748583000F028FA15485A3000F024FA5F
:1053600013485C3000F020FA11485E3000F01CFA5F
:1053700000F01EFB0F48007800F0F8F90E480078A6
:10538000012810D00A48083000F00EFA08480A3008
:1053900000F00AFA06480C3000F006FA04480E3015
:1053A00000F002FA10BD05480078FFF7EBFE10BDD3
:1053B000DC6800080F000020180000200B0000200F
:1053C00070B504464A4800F005FA4948801E00F0CE
:1053D00001FA0A212046FAF77EFF0646C800454C2E
:1053E000451A605D0128444858D000F0DDF92D19B8
:1053F00068780128414854D000F0D6F9A8780128EF
:105400003F4851D000F0D0F9E87801283D484ED00F
:1054100000F0CAF9287901283B484BD000F0C4F9C4
:1054200068790128394848D000F0BEF9A8790128E8
:10543000374845D000F0B8F930460A21FAF74BFF5B
:10544000C800451A605D012832483CD000F0ACF934
:105450002C1960780128304838D000F0A5F9A078E0
:1054600001282E4835D000F09FF9E07801282C481B
:1054700032D000F099F9207901282A482FD000F085
:1054800093F96079012828482CD000F08DF9A07993
:105490000128264829D000F087F970BD00F09AF95C
:1054A000A5E700F097F9A9E700F094F9ACE700F060
:1054B00091F9AFE700F08EF9B2E700F08BF9B5E7AC
:1054C00000F088F9B8E700F085F9C1E700F082F94B
:1054D000C5E700F07FF9C8E700F07CF9CBE700F002
:1054E00079F9CEE700F076F9D1E700F073F970BDF5
:1054F0003E69000810010020506900085269000848
:105500005469000856690008586900085A6900087B
:105510005C6900084269000844690008466900089F
:10552000486900084A6900084C6900084E6900088B
:10553000F8B50746764800F04DF97548801C00F034
:1055400049F90A213846FAF7C6FE0646C800714CEA
:10555000451A605D012870487ED000F025F92D19AC
:10556000687801286D4878D000F01EF9A8780128E5
:105570006B4873D000F018F9E878012869486ED0BC
:1055800000F012F928790128674869D000F00CF979
:1055900068790128654873D000F006F9A8790128D8
:1055A00063486ED000F000F930460A21FAF793FE06
:1055B000C800451A605D01285E487AD000F0F4F812
:1055C0002D19687801285C4878D000F0EDF8A878AB
:1055D00001285A4875D000F0E7F8E87801285848C3
:1055E00072D000F0E1F828790128564871D000F017
:1055F000DBF86879012854486ED000F0D5F8A87916
:10560000012852486BD000F0CFF864213846FAF7F1
:1056100062FE0A21FAF75FFEC800451A605D0128A4
:105620004B485FD000F0C0F82C1960780128494839
:105630005BD000F0B9F8A0780128474858D000F0B6
:10564000B3F8E0780128454855D000F0ADF820794E
:105650000128434852D004E014E016E018E01AE0B4
:105660001EE000F0A1F8607901283E4849D000F022
:105670009BF8A07901283C4846D000F095F8F8BD89
:1056800011E013E000F0A6F869E700F0A3F86DE779
:1056900000F0A0F870E700F09DF873E709E00DE076
:1056A00000F098F874E700F095F877E700F092F8CA
:1056B0007AE700F08FF883E703E005E000F08AF86E
:1056C00085E700F087F888E700F084F88BE700E0D2
:1056D00002E000F07FF88CE700F07CF88FE700F044
:1056E00079F892E700F076F89EE700F073F8A2E709
:1056F00000F070F8A5E700F06DF8A8E700F06AF890
:10570000B1E700F067F8B4E700F064F8B7E700002D
:105710000E690008100100202E6900083069000899
:1057200032690008346900083669000838690008E1
:105730003A69000820690008226900082469000805
:1057400026690008286900082A6900082C690008F1
:105750001269000814690008166900081869000831
:105760001A6900081C6900081E69000870B5012448
:1057700009256402ED0600280CD0012809D109484A
:1057800000F028F800F054FA012221462846FCF7E0
:1057900012FD70BD034800F007F800F03FFA002248
:1057A000F3E70000E06800087CB504784078C54362
:1057B000204600F025F8694628400C7148710A20FF
:1057C0000090022301AA7F210148FCF72DFE7CBD39
:1057D000CC0100207CB504784578204600F010F814
:1057E000694628430C7148710A200090022301AADF
:1057F0007F210248FCF718FE7CBD0000CC01002090
:105800003EB5694608710A24012301AA7F21074891
:105810000094FCF709FE012302AA7E2103480094AC
:10582000FCF77AFD6946087A3EBD0000CC010020F5
:1058300010B52E48FFF7B8FF2C48801CFFF7B4FFC7
:105840002A48001DFFF7B0FF2848801DFFF7C2FF60
:1058500026480830FFF7BEFF24480A30FFF7A4FFB0
:1058600022480C30FFF7B6FF20480E30FFF7B2FF9A
:105870001E481030FFF7AEFF1C481230FFF794FFB0
:105880001A481430FFF7A6FF18481630FFF7A2FF9A
:1058900016481830FFF788FF14481A30FFF784FFC6
:1058A00012481C30FFF780FF10481E30FFF77CFFC6
:1058B0000E482030FFF778FF0C482230FFF774FFC6
:1058C0000A482430FFF770FF08482630FFF76CFFC6
:1058D00006482830FFF768FF04482A30FFF764FFC6
:1058E00002482C30FFF760FF10BD00000E69000871
:1058F00010B52E48FFF758FF2C48801CFFF754FFC7
:105900002A48001DFFF750FF2848801DFFF74CFF75
:1059100026480830FFF748FF24480A30FFF75AFFAF
:1059200022480C30FFF756FF20480E30FFF752FF99
:105930001E481030FFF738FF1C481230FFF74AFFAF
:105940001A481430FFF746FF18481630FFF742FF99
:1059500016481830FFF73EFF14481A30FFF73AFF99
:1059600012481C30FFF736FF10481E30FFF71CFFAF
:105970000E482030FFF718FF0C482230FFF714FFC5
:105980000A482430FFF710FF08482630FFF70CFFC5
:1059900006482830FFF708FF04482A30FFF704FFC5
:1059A00002482C30FFF700FF10BD00000E69000810
:1059B00010B50C4801210068C905884207DBFBF7D8
:1059C000EFFAFFF7FDFC0848FFF7EEFE10BD0121DE
:1059D000C9074840FBF7E4FAFFF7F2FC0248FFF77B
:1059E000F9FE10BD340000204069000810B50B48D6
:1059F0000B490068884202DAFFF77AFF10BD2121C7
:105A00004906884202DDFFF713FF10BD054900F08B
:105A1000A5FEFBF7C5FAFFF78BFD10BD1C000020AB
:105A2000000060410000204170B51D480078FFF77C
:105A300009F91C480078FFF799FEFFF7D7FFFFF739
:105A4000B7FF19480078FFF767F9FFF745F91748DE
:105A5000012400786402164D02280CD01548007805
:105A6000FFF790FB1448FFF79FFE002221462846CF
:105A7000FCF7A1FB70BD1048801DFFF795FE0E4896
:105A80000830FFF791FE0C480A30FFF78DFE0A48F8
:105A90000C30FFF789FE0848FFF79CFE0122E5E77E
:105AA0000E0000200F0000200D0000200900002043
:105AB000000800480B000020DE68000810B5032035
:105AC00000F0C0F80007000F092817D00C48007834
:105AD000002813D1032000F0B5F8010909010920BD
