:020000040800F2
:10000000000B00204901000871370008313000085A
:1000100000000000000000000000000000000000E0
:100020000000000000000000000000007947000808
:100030000000000000000000733700087B47000844
:100040005B0100085B0100085B0100085B01000820
:100050005B0100081D0E00085B010008270E000868
:100060005B010008C10D00085B0100085B0100088E
:10007000910C00085B0100085B010008FD470008C7
:100080005B0100080D48000825480008DD4700080E
:10009000ED4700085B0100085B0100085B010008F8
:1000A0005B0100085B0100085B0100085B010008C0
:1000B0005B0100085B0100085B0100085B010008B0
:1000C00000F002F800F030F80CA030C8083824180E
:1000D0002D18A246671EAB4654465D46AC4201D180
:1000E00000F022F87E460F3E0FCCB6460126334282
:1000F00000D0FB1AA246AB46334318479C4D000084
:10010000BC4D00000023002400250026103A01D336
:1001100078C1FBD8520700D330C100D50B607047BF
:100120001FB51FBD10B510BD00F054FD1146FFF7FF
:10013000F7FF04F051FD00F06CFD03B4FFF7F2FF90
:1001400003BC00F073FD00000748804707480047E4
:10015000FEE7FEE7FEE7FEE7FEE7FEE704480549A7
:10016000054A064B70470000D9470008C100000847
:1001700000050020000B00200007002000070020E1
:10018000FEB5054610460C46184373D0AE468C4665
:100190000020AD1A01469C4167D366460027012422
:1001A0003D46B61A9D4102D313463A462124654680
:1001B00076462F04360C3E432D0CB61A9D4104D3CF
:1001C000150C1B042B4312041034654676462F068B
:1001D000360A3E432D0AB61A9D4104D3150E1B0262
:1001E0002B4312020834654676462F0736093E43F4
:1001F0002D09B61A9D4104D3150F1B012B43120183
:10020000241D65467646AF07B6083E43AD08B61ACC
:100210009D4104D3950F9B002B439200A41C65467F
:100220007646EF0776083E436D08B61A9D411AD30D
:1002300092185B41641C16E00018764665464941F9
:10024000B71A9D410191009009D36046B11A9841B7
:100250008E468446009801990025401C6941DD07BF
:1002600052082A435B08641EE6D57246634603B013
:10027000F0BDFFE700200146C046C0462A4623469F
:10028000F5E701E004C0091F0429FBD28B0701D563
:100290000280801CC90700D00270704700290BD073
:1002A000C30702D00270401C491E022904D38307F1
:1002B00002D50280801C891EE3E70022EEE70022BF
:1002C000DFE7002203098B422CD3030A8B4211D3B0
:1002D00000239C464EE003460B433CD400224308D7
:1002E0008B4231D303098B421CD3030A8B4201D3C7
:1002F00094463FE0C3098B4201D3CB01C01A52415F
:1003000083098B4201D38B01C01A524143098B42AE
:1003100001D34B01C01A524103098B4201D30B0197
:10032000C01A5241C3088B4201D3CB00C01A5241BC
:1003300083088B4201D38B00C01A524143088B4281
:1003400001D34B00C01A5241411A00D2014652411A
:10035000104670475DE0CA0F00D04942031000D339
:100360004042534000229C4603098B422DD3030A8E
:100370008B4212D3FC22890112BA030A8B420CD39E
:10038000890192118B4208D3890192118B4204D3C7
:1003900089013AD0921100E08909C3098B4201D347
:1003A000CB01C01A524183098B4201D38B01C01A81
:1003B000524143098B4201D34B01C01A52410309F8
:1003C0008B4201D30B01C01A5241C3088B4201D3A7
:1003D000CB00C01A524183088B4201D38B00C01A54
:1003E0005241D9D243088B4201D34B00C01A52412B
:1003F000411A00D20146634652415B10104601D3B8
:100400004042002B00D54942704763465B1000D341
:10041000404201B50020C046C04602BD704770474B
:10042000704700000246C80FC00781434B0030B53B
:100430004B405B009B0D20D01923DB06C91801231C
:100440001B05994220DB0324A40704251346AB4077
:100450000BD3002B04D1EB0613409B00E34204D4E2
:1004600001246407002312195941FF231B059942F7
:100470000BD2C9000143500F09E0CB0204D5014360
:100480000803024305D0054830BDFF21C9050843D4
:1004900030BD084607210905884330BD0000C07FF4
:1004A000F0B5F94D0C091E092C402E402F468BB09B
:1004B000A7437DD0B543FCD0002E7AD0002CFCD0D1
:1004C0000D465D40ED0F2543AC1BFF25AD046419BF
:1004D0000894C502440DC9022143500DDC020443B7
:1004E0000120C00701430443D2020191200C110CEA
:1004F00000958C46010423468B430A91614609040A
:10050000E24D8A430991010A7D44491980390978ED
:1005100005464D4301266D18F605751B6943C90C48
:10052000640B891C4C436418B5012C1B250C2E044C
:10053000B4434C434D43210C691889090591009D32
:10054000E90701D00121C90704912C4601996708E8
:10055000CD072F434C08059DE10B4D432D0C29463B
:100560006646754302950D4645432E46029D7D1B0A
:10057000B44100950D465D4301942C0C2F040D46AB
:100580005543AE462D0C3D43029503947546049C9D
:100590002D04641B049406D2029C039D641C002657
:1005A00075410395029401AC70CC009F7D1B01E066
:1005B0003EE162E1B4410904009507910194059977
:1005C000A4086143090C0C464443650BE7040C4640
:1005D00066467443A646640B3C43039502947446F6
:1005E000049DE4042C1B049406D2029C039D641C0D
:1005F000002675410395029401AC70CC009F7D1BD1
:10060000B44101940C465C430095650FE7000C462D
:100610005443A646640F3C43039502947446049DDC
:10062000E4002C1B049406D2029C039D641C00264B
:1006300075410395029401AC70CC009F7D1BB441C1
:10064000AE09AF06049DC900AD092F43049DA40661
:10065000AD060495079D344369180791059DE10B8C
:100660004D432D0C29466646754302950D4645437C
:100670002E46029D7D1BB44100950D465D430194BD
:100680002C0C2F040D465543AE462D0C3D430295D0
:1006900003947546049C2D04641B049406D2029CAA
:1006A000039D641C002675410395029401AC70CC37
:1006B000009F7D1BB44101948C050694079C890A18
:1006C000611800950791019C0599A4086143090CE4
:1006D0000D464543680BEF040D46644665436C0BBD
:1006E0003C43049FED047D1BAC4602D20025641CF4
:1006F0006841009E019D371B85410846584301957E
:100700000C46460FC5005443600F28436546E4007D
:100710002C1B02D20025401C6E41019D3F1AB541A1
:100720002846BD09800628438446A009BF064E021C
:100730000699A40676180743079D002068410A9988
:10074000079019430020099B00906046FF1913434E
:100750004041E20F64003A43A4460446D71A8C4154
:10076000A04203D90120009020463A46C70F9418B2
:1007700040416246D20F2243644664000494009CC8
:10078000BE466400D71AA446044602978C417746B9
:10079000002F01D1A04204D96046401C8446029A31
:1007A0002046C40FA64694184041049A0546D20F2D
:1007B000224364466400D31A8D417146002901D159
:1007C000A84202D928461A46641C10430122002878
:1007D00000D0164361020020079B891904465C4142
:1007E0000223002C02DB491813466441089DCE0AFF
:1007F0002D145D194B056705E10A2C050D190899A3
:100800003E43C9076940002B08D0934006D300221D
:10081000761C5141002B01D1760876001C4A002D30
:1008200043DB154241D0AA433FD030460BB0F0BD68
:1008300006180D464D41174C7642AC411AD3951817
:100840001C465C41134A6D42A24113D3012252055A
:100850004C00D4420AD15C00D4420BD04B4002D5AC
:1008600092021143E2E749004908DFE75940C90F06
:10087000C90718E000200849D8E7054801420DD112
:100880000342F7D0F2E700000000FF070A4900002A
:100890000000F07F0000E0FF0000F87F11485940A1
:1008A0000143C01241400020C0E70123089A9B0683
:1008B0009A4205DC032252078918C90FC907B5E718
:1008C000052252078918074A1143D2125140ADE759
:1008D00070B515461C4602460B4628462146FFF7D2
:1008E000DFFD70BDFFFFFF7F1F22030C02D10F222F
:1008F000000402D0030E03D004E00020014670473C
:100900000002083A030F01D10001121F830F01D129
:100910008000921E002801DB4000521E1205511873
:100920004205C012411810467047C10FC90700D0D8
:100930004042012292071143D6E701218907D3E7FC
:10094000F0B58B4C0F09254689B0BD437BD01D09FE
:100950002646AE43FAD00E465E402740F60F3E4391
:10096000254071D024012142FBD0FF24AD19A404FD
:100970002D1B039501252D05DB02DB0AC9022B4344
:10098000C90A29431E010901040F130F0501214360
:100990001701880B820391432D098C46A90B1E4336
:1009A0008A039543B30B9A0396433F09BA0B94030A
:1009B000A74302962E467E430497B6464E19D71992
:1009C0000C460196544305977E43371B7646BF1B62
:1009D0003601B646BE0B361900967646BC0437196A
:1009E000009C01D3641C00946400002F01D00126F8
:1009F0003443029E049F754366467E430496760008
:100A000034196E0034190094029C019E1C1966432F
:100A1000751BAE46069465464519059C05956C43C5
:100A2000594375460891691A0191049E0146514344
:100A3000A41B0491611A009C0791E10605D061098D
:100A40000122114302E072E06EE06109089D002777
:100A50002C0A2D066918049D7C412A0A2D06691866
:100A6000019D6241AC0DAD026D185441079A910D84
:100A7000920255196141029A644658435443069BB9
:100A8000059A5A43121A131B9A0E9B015B187A415E
:100A9000010B0005C3185141220A200644195A418E
:100AA0009A4200D2491C01204002814203D31523FF
:100AB0000226F64302E014230326F6432020C51A3B
:100AC000A9401746AF40DA400A4320460399D84070
:100AD0000914731819055118039A3843D207514065
:100AE000AC4009D00122944006D30022401C514161
:100AF000002C01D1400840001E4A934212D301222B
:100B000003989206904207DB0520400709181A480F
:100B10000143C012414004E0032040070818C10F00
:100B2000C907002009B0F0BD0020F107FAE7051859
:100B30000C464C4111486D42A04115D394181A46F9
:100B40005A410E48644290410ED301204A004005AC
:100B5000824209D35A00824206D35940C90F084A3B
:100B6000C90700201143DDE700200649DAE700004D
:100B70000000FF07FE070000FFFFFF7F0000E0FF0F
:100B80000000F07F0000F87F10B501469E240002AF
:100B9000CA15A307002A02D01843002A04DBA21AB0
:100BA000002A0CDDD04010BD1206120E01D140000B
:100BB0004008A21A03D4D04040420028F3DDFF22AF
:100BC00048001206904201D9002010BDC817C0434A
:100BD000584010BD754600F025F8AE460500694640
:100BE0005346C008C000854618B020B5FFF7B6FAD6
:100BF00060BC00274908B6460026C0C5C0C5C0C5B0
:100C0000C0C5C0C5C0C5C0C5C0C5403D49008D46B2
:100C1000704710B50446C046C0462046FFF78DFA1F
:100C200010BD0000004870479C04002001491820B6
:100C3000ABBEFEE726000200704770B58C18057841
:100C4000401C6B075B0F01D10378401C2A1106D1B1
:100C50000278401C03E00678401C0E70491C5B1EA5
:100C6000F9D12B0705D40023521E0DD40B70491C5B
:100C7000FAE70378401CCB1A921C03E01D780D7034
:100C8000491C5B1C521EF9D5A142D8D3002070BD6F
:100C900010B5024800F072FA10BD00005C0100209F
:100CA00010B50146406A826B50231A420AD1816B0B
:100CB00001225202114381630168CA681205920F32
:100CC00005D020E0006B026B0846904710BD827E85
:100CD000002A18D10A68120715D58A68530701221D
:100CE000002B09DB4B680C24A3434B60816B130280
:100CF00099431143816306E0816B2023194381638B
:100D0000C16B1143C16300F0ADF910BD10B5406A6D
:100D1000816B402211438163C16B04221143C16383
:100D200000F02BFA10BD10B5406A00F025FA10BD96
:100D3000F8B5044600200090206881688907890F73
:100D4000012905D10168C90731D1C16809042ED430
:100D50008168184A10261140012500291AD181689E
:100D600029438160154814490068FFF7AAFA00E09A
:100D7000401E00900028FBD100F00AFF074611E05A
:100D800000F006FFC01B02280CD920680068C04391
:100D9000C00707D0A06B3043A063E06B2843E0633B
:100DA0000120F8BD20680068C043C007E8D10020DA
:100DB000F8BD00001700008040420F0048010020ED
:100DC00010B5024800F070FC10BD0000580400206F
:100DD00010B504460068054940181421FFF771FA60
:100DE000800020640248E06310BD0000F8FFFDBFF2
:100DF0000000024030B5056C0124AC40C56B6C604E
:100E0000046863604368102B036803D0996000682E
:100E1000C26030BD9A600068C16030BD10B502206C
:100E200000F0C4FD10BD10B5202000F0BFFD402033
:100E300000F0BCFD802000F0B9FDFF20013000F083
:100E4000B5FD0120400200F0B1FD0120800200F05C
:100E5000ADFD0120C00200F0A9FD0120000300F05B
:100E6000A5FD0120400300F0A1FD0120800300F05A
:100E70009DFD0120C00300F099FD10BD72B6FEE794
:100E8000F8B5054604462035287D0026012808D0FF
:100E900001202875206881688907890F012908D1F8
:100EA00001E00220F8BD0168C9073CD1C16809040E
:100EB00039D4A16BFF220132914302221143A16375
:100EC000C1688907890F0091C16889088900C160DC
:100ED0002068816892071143816000F059FE07463F
:100EE00012E000F055FEC01B02280DD92068806872
:100EF000002809DAA06B0221884310210843A0636F
:100F0000002028750120F8BD206880680028E8DBF3
:100F10002068C168009A1143C160A06B80088000FE
:100F2000401CA06304E0A06B20210843A0630126BD
:100F3000002028753046F8BDF8B500250446203459
:100F40000095227D012A3BD00122227503689E680C
:100F5000760776D43F4F4E68BE4254D09E6A0F78D3
:100F6000BA4016439E620123C26A1B079A421FD0F1
:100F7000012A1DD0022A1BD0032A19D0042A17D017
:100F8000052A15D0062A13D0072A11D002688B68CB
:100F900056697607760FB3420AD05369DB08DB0047
:100FA0005361006842690B7A5B075B0F1A43426129
:100FB0000868102806D0112804D0122802D045E075
:100FC0000220F8BD244A9368102809D011280AD0BD
:100FD00001200006034393600868102806D035E01E
:100FE0000120C005F6E701208005F3E71C481B49F6
:100FF0000068FFF766F90A21484300E0401E0090B0
:101000000028FBD122E0986A0E78B24090439862A3
:101010000868102803D0112801D0122816D10E49D3
:101020008A68102807D0112808D0012000068243C2
:101030008A600BE005E00120C005F8E7012080058B
:10104000F5E7816B20221143816301250020207583
:101050002846F8BD011000000027014040420F0063
:1010600048010020F8B500220421314800F089FD34
:10107000304801240168491C01600B2907D1046034
:101080002D480168491C01603D2900D104602B4FA7
:101090003889FFF752FC2A4D2A4B2A46FFF750FCAD
:1010A0000022294BFFF7FCF9FFF7BCF92749064658
:1010B00008607889FFF741FC2A46224BFFF740FC85
:1010C0000022214BFFF7ECF9FFF7ACF90546204869
:1010D0000560B889FFF731FC1E4A1F4BFFF730FC53
:1010E0000022194BFFF7DCF900221C4BFFF728FC0C
:1010F000FFF798F91A491C4A08601A491B4B00204F
:101100008D4201DA9D4201DA147000E01070184A35
:101110008E4201DA9E4201DA147000E01070154927
:101120000A78002A01D00870F8BD0C70F8BD0000E4
:10113000000C004810000020140000204C0100208A
:10114000CDCCCCCCCCCC164000FEAF401C00002057
:10115000180000206666666666660A400000144055
:1011600020000020CDCC4C3E0D0000209A999940E3
:101170000E0000200F0000207047704770B5044635
:1011800000680168490702D54168490705D401682C
:10119000090730D5416809072DD5A16BC90604D4CC
:1011A000A16B012252021143A163C1680C250905FC
:1011B000890F00291AD1A17E002917D101680907DA
:1011C00014D581684A070121002A08DB4268AA4336
:1011D0004260A06B0A0290430843A06306E0A06B44
:1011E00020221043A063E06B0843E0632046FFF732
:1011F00039FF206805602068016809060DD5406840
:1012000000060AD5A06B012109040843A06320460B
:1012100000F0D8F821688020086020680168C906BD
:1012200013D54168C90610D5A16A1025012902D03D
:10123000C168C90707D0E16B02221143E163056071
:101240002046FFF79AFF2068056070BDF8B50026BC
:101250000446002805D0A06B25462035002802D082
:1012600007E00120F8BD0020E0632875204600F06B
:10127000ABF8A06B1022C006002870DB20688168E4
:1012800049076CD4A16B1301994302231943A1634D
:1012900081688907890F012905D10168C9070FD124
:1012A000C16809040CD4C16818239943A368194381
:1012B000C160206801696368890089081943016178
:1012C0002068C1683D4B1940C160207E617E80036B
:1012D000C9030843A17E4B031843A36A012B02D024
:1012E00001231B0300E000231843E368184323692C
:1012F000022B09D0002318432B79E57E5B001843AD
:101300000123012D02D00AE00423F4E7002927D0AD
:10131000A16B20252943A163E16B1943E163E169D6
:101320000D46FF3DC23D02D0256A2943084321688E
:10133000CD680543CD600125E16A2D07A94213D090
:10134000012911D002290FD003290DD004290BD077
:10135000052909D0062907D0072905D010E028E083
:10136000012109040843DAE721684D69ED08ED0021
:101370004D6121684D69A78D7F077F0F3D434D610A
:101380002168C9680E4D2940814207D10020E063E1
:10139000A06B80088000401CA06308E0A06B0221C5
:1013A00088431043A063E06B1843E0630126304696
:1013B000F8BDA06B1043A063F8E700001902FEFF20
:1013C000E7FF3F837047000070B586B005461421E3
:1013D0006846FEF774FF1F492868884238D11E49C5
:1013E0008A69401502438A618A69024005924A6906
:1013F000000202434A614969002601400591EF203D
:10140000009003200190092069460296C00600F072
:10141000D9FA1248124C41C4802026606060400016
:10142000A0608000E0602020666120610C48083CDC
:1014300000F088F9002801D0FFF720FD2C6300227E
:1014400011460C20656200F0EBFD0C2000F0DCFD85
:1014500006B070BD002401400010024008000240A8
:1014600058040020F7B5044600680025806840074E
:101470003DD426462036307D01280AD00127377515
:10148000607E012807D02046FFF752FC050002D0FD
:101490002EE00220FEBDA06B16490840FF2101315D
:1014A0000843A0630020E0633075216B1248886216
:1014B000216B1248C862216B1148086321681C2007
:1014C0000860206841681022114341602068C168AB
:1014D0003943C1602168206B4031029B019A00F0C2
:1014E0005BF92068816804221143816000E00225D5
:1014F0002846FEBDFEF1FFFFA10C0008270D0008E5
:101500000D0D00087047000070B54379012B13D012
:10151000012545710223037106683468074B934027
:101520009C430B6849680B43934023433360057128
:1015300000214171084670BD022070BDFE0F000001
:10154000704770B5044600680168042589040029C5
:1015500011DA416B89040ED52571216901221143ED
:1015600021615103416320680168120391430160C6
:101570002046FFF7E5FF20680168890011D5416B1F
:1015800089000ED5257121690222114321611107BD
:10159000416320680168D206914301602046FFF74D
:1015A000B1FF70BD70B5040004D02079002500287B
:1015B00002D005E0012070BD6571204600F008F8FA
:1015C00002202071256101202071002070BD0000E3
:1015D00010B586B0044614216846FEF770FE144923
:1015E0002068884221D11348C26941040A43C2617C
:1015F000C2690A400592426909130A43426140697F
:1016000008400590102000900320019000200290D7
:1016100009206946C00600F0D5F9002211461120C4
:1016200000F0FEFC112000F0EFFC06B010BD000041
:10163000007400400010024018B50468009400686F
:101640008018002904D0143000900360002018BDD9
:101650000830F9E770B54279012A12D001224271AF
:10166000022303710468266815468D402E432660C8
:101670000029016807D00C68A402240F0F2C0BD09E
:101680000DE0022070BD0B689B061B0F0F2B06D1CF
:101690004B6813434B6002E04C681C434C60027182
:1016A00000214171084670BDF0B4C16B0D6801683E
:1016B0000C680422066C1346B3402B420DD063071E
:1016C0000BD50B689B0602D40B6893430B60016C2F
:1016D0008A40C16B4A60C16A19E00227B7400246DE
:1016E0002F4001232032002F15D0A70713D50C68F7
:1016F000A40604D40C680A25AC430C605370036C38
:1017000002219940C36B596000211170816A002940
:1017100016D0F0BC08470827B7402F4210D0240746
:101720000ED50C680E25AC430C60046C1946A14024
:10173000C46B61608363537000211170016BE6E735
:10174000F0BC704770B5040021D002212046203043
:1017500005464170226811680E48A3680140606820
:1017600026691843E3683343184363691843A36940
:101770001843E3691843084310602046FFF728FB2D
:101780000021A163012068702970084670BD012006
:1017900070BD00000FC0FFFFF8B504468C46203036
:1017A00001780025012909D001260670417800271B
:1017B000012905D0077002252846F8BD0220F8BD92
:1017C00002214170A763206801684908490001604F
:1017D00061462046FFF70EFBE06A0028206801689A
:1017E00002D00E22114306E00A2211430160206854
:1017F000016804229143016020680168314301605F
:10180000DAE70000F8B50446FF200130624F4101DD
:1018100086010501202C0CD0102C15D0802C26D050
:10182000844234D101465D4800F0A6F9002826D054
:101830004AE02021384600F09FF9002803D02021FB
:10184000384600F099F9A1E01021384600F094F9EB
:10185000002806D01021384600F08EF9012802D069
:1018600094E0642000E03C2002F066F98EE08021E4
:101870004A4800F081F9002872D1802019E0FF2049
:10188000013002F047F8464802F0FEF81CE0022C56
:1018900008D08C4218D10E46404800F06DF900285F
:1018A0000BD020E002213D4800F066F900286DD100
:1018B000022002F02FF83A4866E0304602F02AF89B
:1018C000374802F0E1F80EE0B4420CD1314633481B
:1018D00000F052F9002817D1304602F01BF83148C9
:1018E00002F0D2F810E001267602B4420CD1314663
:1018F0002A4800F041F9002822D1304602F00AF8C7
:10190000284802F0C1F81BE0402C0AD00126F6035B
:10191000B44215D13146214800F02EF9002808D0F4
:101920001FE04021384600F027F900282ED1402042
:1019300027E0304601F0EEFF1A4802F0A5F810E06B
:10194000AC420ED109202946C00600F015F9002846
:101950000BD1284601F0DEFF124802F095F804E0B2
:101960000EE00125AD02AC4203D00125ED02AC42F0
:101970000CD109202946C00600F0FEF8002808D046
:1019800004E001F0C7FF074802F07EF80648446112
:10199000F8BD2846F5E700000008004800040048AC
:1019A00088130000C40900000004014010B5044978
:1019B0004A69024202D04861FFF724FF10BD0000CF
:1019C00000040140F8B5002303240125BFE02E46A2
:1019D0009E40B44632407CD00E79B607B60F012E39
:1019E00001D0022E17D186682746B6465E00B74062
:1019F00000967646BE43B646CF68009EB740764610
:101A00003743876046686746BE430F79FF06FF0F7E
:101A10009F40374347600E79F643B6070ED0C6683D
:101A20002746B4465E00B646B7406646BE43B44657
:101A30008F687646B74066463743C7600E79B6076B
:101A4000B60F022E14D1DE08B60036180096366A9C
:101A50005F07B446FE0E0F27B646B7406646BE4344
:101A6000B4460F697646B74066463743009E3762F4
:101A700006682746B4465E00B646B7406646BE4393
:101A80000F79B446BF07BF0F7646B7406646374367
:101A900007604E68B603B60F58D0304FBE692E436C
:101AA000BE61BE699F08F607F60F2D4EBF00BE1936
:101AB0000096B6680F27B4469E07360FB646B74065
:101AC0006646BE430927FF06B446B84202D1002746
:101AD00015E03BE0234FB84201D101270FE0224F30
:101AE000B84201D102270AE0204FB84201D10327B2
:101AF00005E01F4FB84201D1042700E005277646D4
:101B0000B74066463743009EB7601A4E36684F6846
:101B10009643FF0300D51643164F3E607E684F681C
:101B20009643BF0300D51643124F7E60BE684F68D0
:101B30009643FF0200D516430E4FBE60FE684F6805
:101B40009643BF0200D516430A4AD6605B1C0A685A
:101B50001646DE4000D03AE7F8BD00000010024013
:101B6000000001400004004800080048000C004844
:101B700000100048000401400069084000D0012026
:101B80007047002A01D08161704781627047000070
:101B900001488068704700003C01002070B5024693
:101BA00040325378202B1CD11378012B19D00123FC
:101BB000137024245470046825689D4325600468CC
:101BC00025681E03B5432560046825680D4325601C
:101BD00000680168194301602020507000201070D7
:101BE00070BD022070BD70B5024640325378202B84
:101BF0001BD11378012B18D00124147024235370A7
:101C000003681D68A5431D6005682B680F26360212
:101C1000B343090219432960006801682143016048
:101C2000202050700020107070BD022070BD000098
:101C300070B5040006D02546403568780026002897
:101C400002D005E0012070BD2E70204600F05AF948
:101C500024206870206801684908490001600F214C
:101C60006068090688432168086121688A68012044
:101C7000C00382438A60E1680129A16808D021225B
:101C80009202114322689160E168022902D005E0C6
:101C90000143F7E701212268C902516021684A68BF
:101CA0000F4B1A434A602168CA688243CA6061695F
:101CB00020690843A169090208432168C860216AB4
:101CC000E069084321680860206801680122114327
:101CD00001606664202068702663AE70002070BDCD
:101CE00000800002FFB5054604464035687881B0A3
:101CF000202878D12878012875D001202870FFF796
:101D000047FF0746012200901923D103204601F026
:101D1000F9F900283CD1222068701020A870002614
:101D2000666403986062049860856663618D2F48DD
:101D3000FF2903D9FF22228500903BE0618D218598
:101D400000903DE02046029901F0C8F916E001F04C
:101D500001FA00281CD12068406A616A0870606A34
:101D6000401C6062208D401E81B22185608D401E26
:101D70006085608D002801D000290CD0608D0A9903
:101D800000283A462046E2D101F024FA00281CD06F
:101D9000012005B0F0BD00970022802120460A9B5B
:101DA00001F0B0F90028F3D1608DFF2805D9FF229A
:101DB0002285009601231B06C4E7608D20850096CE
:101DC000208D0123C2B25B06BCE721682020C861D8
:101DD00021684A68064B1A404A606870AE702E70DF
:101DE0000020D6E7FFE70220D3E7000000240080B0
:101DF00000E800FEFFB5054604464035687881B02E
:101E0000202878D12878012875D001202870FFF784
:101E1000BFFE0746012200901923D103204601F09E
:101E200071F900283CD1212068701020A87000268C
:101E3000666403986062049860856663618D2F48CC
:101E4000FF2903D9FF22228500903BE0618D218587
:101E500000903DE02046029901F040F916E001F0C3
:101E6000DFF900281CD1606A216800788862606A06
:101E7000401C6062608D401E6085208D401E80B2D7
:101E80002085618D002901D000280CD0608D0A9931
:101E900000283A462046E2D101F09CF900281CD0E7
:101EA000012005B0F0BD00970022802120460A9B4A
:101EB00001F028F90028F3D1608DFF2805D9FF2211
:101EC0002285009601231B06C4E7608D20850096BD
:101ED000208D0123C2B25B06BCE721682020C861C7
:101EE00021684A68064B1A404A606870AE702E70CE
:101EF0000020D6E7FFE70220D3E7000000200080A3
:101F000000E800FE10B586B0044614216846FEF7CE
:101F1000D6F91349206888421FD1124C616901200B
:101F200080040143616161690140032005918002E1
:101F300000901220019000200290032003900120C5
:101F4000049069460848FFF73DFDE16901208005DE
:101F50000143E161E1690140059106B010BD000057
:101F60000058004000100240000400480248816808
:101F700002788918816070473C01002010B506483E
:101F80000168102211430160032000F007F800F0FF
:101F900027F8002010BD00000020024070B5044664
:101FA0000D4D7D202978C000FEF78BF901460B48C6
:101FB0000068FEF786F900F0AFFC002809D1042C78
:101FC00007D200222146401E00F02AF800206C6053
:101FD00070BD012070BD00003C01002048010020C0
:101FE00008B5084881690122114381618169114066
:101FF0000091C26901040A43C261C06908400090AF
:1020000008BD000000100240002805DBC106C90E13
:1020100001208840014908607047000000E100E0AD
:1020200010B502F0B7FD10BDF8B50F4606005FD041
:102030003D4D2868C007C00FB84209D22868400843
:102040004000384328602868C007C00FB8424FD10D
:102050003068364C81070CD5400704D560680721ED
:102060000902084360606068F0218843B168084352
:1020700060603078C0072CD07068012810D002282A
:1020800011D0032812D021688907002930DA61684D
:102090008908890001436160FFF77AFD009011E033
:1020A00021688903F1E721688901EEE7616BC903C3
:1020B000EBE7FFF76DFD0099411A1D48814201D9F8
:1020C0000320F8BD60680C210840716889008842CF
:1020D000EFD12868C007C00FB8420BD92868400864
:1020E0004000384328602868C007C00FB84201D0BC
:1020F0000120F8BD3078400706D560680721090245
:102100008843F1680843606000F018F86168094A84
:102110000906090F515CC840074908600320FFF712
:102120003DFF0020F8BD00000020024000100240EA
:1021300088130000064E00084801002030B519A39E
:102140000FCB89B06C460FC41AA30FCB0FC41D4A26
:1021500051680C200B4603401B48042B05D01B4D37
:10216000082B04D00C2B00D1284609B030BD8B02BF
:102170001B0F6C46E45CD26A04AB1207120FC90352
:102180009A5C890F022901D0032901D0002301E0C4
:10219000002328460021FDF7F3FF214602F0D4FC7E
:1021A000E3E7000002030405060708090A0B0C0D0B
:1021B0000E0F10100102030405060708090A0B0C94
:1021C0000D0E0F100010024000127A00006CDC02AD
:1021D000FEB5040070D02078F94EFA4DC00748D003
:1021E00068680007800F01281FD068680007800F0B
:1021F000022804D16868C003800F022815D06168E6
:10220000012919D001208004002901D0052917D007
:102210002968B143296029688143296060680028E2
:102220001BD0FFF7B5FC074613E02868800320D5D4
:1022300060680028CED01CE0286830432860EDE7B5
:10224000296801432960F7E7FFF7A2FCC01B642857
:1022500070D828688003F7D50BE0FFF799FC074694
:1022600004E0FFF795FCC01B6428F1D828688003C0
:10227000F7D4207880073FD568680007800F14D016
:1022800068680007800F022804D16868C003800FC7
:1022900001280AD0E068002828681ED001210843E0
:1022A0002860FFF775FC07460CE0286880070CD50E
:1022B000E068012800D108E080E1FFF769FCC01B5D
:1022C0000228C5D828688007F7D52868F8218843F0
:1022D0002169C900084328600EE0400840002860DA
:1022E000FFF756FC074604E0FFF752FCC01B02282C
:1022F000AED828688007F7D42078000723D5E06996
:102300000028686A0FD0012108436862FFF740FC8B
:10231000074604E0FFF73CFCC01B022898D8686A17
:102320008007F7D50FE0400840006862FFF730FCF7
:10233000074605E0C3E0FFF72BFCC01B022887D847
:10234000686A8007F7D4207804274007002861DAFC
:1023500000200190E869C00008D4E969B80601438B
:10236000E961E96901400120009101909648016806
:10237000C90511D40168821511430160FFF708FCFB
:10238000009005E0FFF704FC0099401A642898D8F3
:102390008D480068C005F5D5A06801280AD000283E
:1023A00001D0052811D0286A400840002862286A18
:1023B000B84302E0286A012108432862A068002887
:1023C00012D0FFF7E5FB00900AE0286A3843286244
:1023D000F0E7FFF7DDFB0099411A7C4881426ED897
:1023E000286A8007F5D50DE0FFF7D2FB009006E0E4
:1023F000FFF7CEFB0099411A744881425FD8286AE2
:102400008007F5D40198002804D0E969012000076D
:102410008143E9612078C00635D5606901280CD078
:10242000401D686B24D038436863686B40084000E7
:102430006863FFF7ADFB074622E0686B38436863CB
:10244000686B012108436863FFF7A2FB074604E0BD
:10245000FFF79EFBC01B022831D8686B8007F7D5B9
:10246000686BF8218843A169C900084368630AE0E2
:10247000B8436863F4E7FFF78BFBC01B02281ED844
:10248000686B8007F7D42078800637D56868000726
:10249000800F032814D068680007800F022804D139
:1024A0006868C003800F03280AD0206A0028686B80
:1024B00016D030436863FFF76BFB06460CE062E022
:1024C000686BC0031AD5206A012877D116E0FFF7A0
:1024D0005FFB801B022856D8686BC003F7D50DE060
:1024E000B0436863FFF754FB064604E0FFF750FB78
:1024F000801B022847D8686BC003F7D4606A0028A5
:1025000066D069680907890F022942D0012636067C
:102510000228286805D0B0432860FFF739FB04463D
:1025200033E0B0432860FFF733FB074604E0FFF7D2
:102530002FFBC01B022826D828688001F7D4E86A40
:10254000216B000900010843E862A16AE06A0843C0
:1025500069687B22D203914308436860286830434E
:102560002860FFF715FB044604E0FFF711FB001B92
:10257000022808D828688001F7D529E0FFF708FB72
:10258000001B022801D90320FEBD28688001F5D474
:102590001EE00128F8D06868E96A0322D203A36A22
:1025A00002409A420AD10907226B090F914205D1D4
:1025B0000F2189040840E16A884209D00120FEBD4C
:1025C000000001000010024000700040881300006D
:1025D0000020F4E7F8B504000CD0606A002500285C
:1025E0000AD02561656126464036A562707F0028C5
:1025F00008D00BE00120F8BD6168C81FFD38F2D09B
:10260000E561F0E73577204600F05CF8022272774A
:10261000206801684023994301600723E1681B0299
:10262000994201D9002001E0012000030F273F0259
:10263000B94202D0994200D0A562FF2361680533F8
:1026400019402127A368BF023B4019432369134067
:10265000227D1943D207D20F11430123A2695B02E5
:102660001A401143E26938231A401143226A802339
:102670001A401143A26A9B011A401143226811605B
:10268000A1690422090C1140626A10231A40114307
:10269000626B08231A4011430F23E2681B021A40A1
:1026A0001143012212031040014320684160206859
:1026B000C16952109143C1612566012070770020E5
:1026C000F8BD000010B586B0044614216846FDF739
:1026D000F6FD1149206888421BD110488269811497
:1026E0000A43826182690A400592426989010A436C
:1026F0004261406908400590382000900220002186
:102700000190032002910491039069460448FFF769
:1027100059F906B010BD0000003001400010024021
:1027200000040048FFB5044683B00120019000205A
:10273000254640350090287F0C9F1E4601280FD06B
:1027400001202877FFF724FA0290687F616801284A
:102750000DD0CA1FFD3A08D1A168002905D102E0B9
:10276000022007B0F0BD042801D00220D1E0049877
:10277000002820D0059800281DD0002E1BD0687F8F
:10278000042801D00520687700202066059921647F
:10279000EE80AE800499A163E687A687E064206599
:1027A00007210120E268090200038A422268536877
:1027B00003D9834302E00120ABE003435360206868
:1027C0000268520603D4026840231A430260E0689C
:1027D0008842606844D9002801D0012E39D1A06B0D
:1027E00021680088C860A06B801CA063E08F401E39
:1027F000E0872EE020688168890710D5E18F0029E5
:102800000DD0019901290AD1A16B0988C160A06B83
:10281000801CA063E08F401EE087002001902068AC
:102820008168C9070DD0E98800290AD0C068216CE9
:102830000880206C801C2064E888401EE88001200D
:102840000190FFF7A5F90299401AB84201D3781C0C
:102850005ED1E08F0028CDD1E8880028CAD146E0BB
:10286000002801D0012E3CD1A06B216800780873AC
:10287000A06B401CA063E08F401EE08731E0206821
:102880008168890710D5E18F00290DD001990129B0
:102890000AD1A16B09780173A06B401CA063E08F83
:1028A000401EE0870020019020688168C9070DD094
:1028B000E98800290AD0007B216C0870206C401C3C
:1028C0002064E888401EE88001200190FFF760F94D
:1028D0000299401AB84202D3781C02D018E0002FA7
:1028E00016D0E08F0028CAD1E8880028C7D1394621
:1028F0002046029A01F052FE002803D001200090E9
:10290000202020660120687700202877009828E79B
:1029100003200090F6E70000094910B5401E8842E8
:1029200001D9012010BD074C60610321081F02F08E
:1029300031F90020A06107202061002010BD0000B7
:10294000FFFFFF0000E000E070477047F0B502466F
:102950002032137F012B21D00125157702235377D5
:1029600006687468B3687027BC430F6827437760B4
:1029700000680B4CA04208D0AC07A04205D0094C1F
:10298000A04202D0084CA04204D180244968A3434D
:1029900019438160557700201077F0BD0220F0BD0B
:1029A000002C0140000400400040014070B50400CC
:1029B00005D025462035687F002802D006E001209A
:1029C00070BD00202877204600F014F802206877B8
:1029D000211D206801F02EFF01204034A071A8774E
:1029E000E87720706070A070E07020716071687787
:1029F000002070BD08B5374A01683748914205D1BB
:102A00008269C1140A438261806919E00122920738
:102A100091420DD1C16901221143C161C0691040C9
:102A20000022009011460F20FFF7FAFA0F201AE05B
:102A30002A4A914207D1C26902210A43C261C06990
:102A40000840009008BD264A91420FD1C26910216A
:102A50000A43C261C069002208400090114611205B
:102A6000FFF7DEFA1120FFF7CFFA08BD1D4A9142A9
:102A70000DD1C26920210A43C261C0690022084009
:102A8000009011461220FFF7CBFA1220EBE7164A0E
:102A900091420DD1C26989150A43C261C069002201
:102AA0000840009011461320FFF7BAFA1320DAE726
:102AB0000E4A9142D9D18269012109040A438261F7
:102AC000806900220840009011461420FFF7A8FA00
:102AD0001420C8E7002C0140001002400004004010
:102AE0000010004000140040002000400040014061
:102AF000014620314A7F012A01D00120704702227D
:102B00004A7700680B4A0121904208D08A07904218
:102B100005D0094A904202D0084A904204D1826806
:102B20005207520F062A02D002680A4302600020B0
:102B300070470000002C01400004004000400140AC
:102B4000014620314A7F012A01D00120704702222C
:102B50004A770268D36801210B43D36000680B4AAF
:102B6000904208D08A07904205D0094A904202D08C
:102B7000084A904204D182685207520F062A02D0B6
:102B800002680A430260002070470000002C0140E8
:102B900000040040004001400168CA685208520029
:102BA000CA6001680A6A084B1A4207D10A6A9B1078
:102BB0001A4203D10A68520852000A6001212030EB
:102BC000417700207047000011110000F8B505465C
:102BD00004462035287F0026012817D001202877B9
:102BE00002206877226890687727FF23B8431B028A
:102BF000984390600868502838D00EDC20284FD0C9
:102C000006DC00284CD010281ED149E00220F8BD77
:102C1000302845D0402817D13AE060282ED07028BF
:102C200019D001221203801A0FD090420CD1CB6828
:102C30004A688968206801F054FE20688168012292
:102C400092031143816000E0012601206877002093
:102C500028773046F8BDCB684A688968206801F05B
:102C600040FE2168886838438860EEE7CA68496892
:102C7000206801F045FF5021206806E0CA684968D5
:102C8000206801F04EFF6021206801F035FEDCE78E
:102C9000CA684968206801F033FF40212068F4E7E2
:102CA000226801461046F0E7704770B50446006898
:102CB00001690025C9438907002915DBC168C9439B
:102CC000890711D4E91E01610120207720688069FD
:102CD0008007204602D0FFF7E7FF04E000F0BEF8CF
:102CE000204600F049F9257720680169C943490762
:102CF00017D4C168C943490713D40421C9430161EA
:102D000002202077206880698005800F204602D04D
:102D1000FFF7CAFF04E000F0A1F8204600F02CF90C
:102D2000257720680169C943090716D4C168C943DA
:102D3000090712D40821C9430161042020772068C3
:102D4000C0698007204602D0FFF7AEFF04E000F024
:102D500085F8204600F010F9257720680169C943FD
:102D6000C90617D4C168C943C90613D41021C94381
:102D70000161082020772068C0698005800F204607
:102D800002D0FFF791FF04E000F068F8204600F061
:102D9000F3F8257720680169C943C90708D1C168DC
:102DA000C943C90704D1891E0161204600F03EF9DC
:102DB00020680169C943090609D4C168C9430906E5
:102DC00005D48021C94301612046FFF7BDFD20687D
:102DD0000169C943490609D4C168C943490605D4F4
:102DE0004021C9430161204600F021F920680169B2
:102DF000C943890609D4C168C943890605D420217D
:102E0000C94301612046FFF7A0FD70BD10B586B033
:102E1000044614216846FDF752FA0D49206888429D
:102E200013D10C48426909130A43426140690840C2
:102E3000022105900191012000210090029103914F
:102E4000049069460448FEF7BDFD06B010BD0000C1
:102E50000004004000100240000400487047F8B52C
:102E6000064604462036307F00270D4601280ED046
:102E700001203077002A0CD0042A1BD0082A2FD03A
:102E80000C2A3ED00127002030773846F8BD0220BA
:102E9000F8BD206801F038FD2068816908221143DF
:102EA00081612068826904218A4382612068816986
:102EB0002A6912E0206801F06BFD20688269012117
:102EC000C9020A438261206881690122920291430A
:102ED0008161206881692A69120211438161D2E708
:102EE000206801F095FD2068C16908221143C16185
:102EF0002068C26904218A43C2612068C1692A69C5
:102F000012E0206801F0C6FD2068C1690122D202EA
:102F10001143C1612068C269012189028A43C261EB
:102F20002068C1692A6912021143C161ABE770B51B
:102F3000040005D025462035687F002802D006E031
:102F4000012070BD00202877204600F014F80220F0
:102F50006877211D206801F06DFC01204034A071CC
:102F6000A877E87720706070A070E07020716071C1
:102F70006877002070BD70477047000030B5044688
:102F80000223203000290AD004290DD020464030E9
:102F900008290ED04278012A10D0012030BD827F4E
:102FA000012AFAD183770AE0C27F012AF5D1C377DB
:102FB00005E00278012AF0D1037000E0437001229D
:102FC000206801F081FC144A20681449904207D01F
:102FD000884205D0124B984202D0124B984204D13D
:102FE000436C0125ED032B43436420680123904289
:102FF00007D09A07904204D00B4A904201D08842F1
:1030000004D181684907490F062902D00168194394
:103010000160002030BD0000002C01400040014054
:1030200000440140004801400004004070477047E0
:10303000FEE701688A69D243920701D400228A62BE
:1030400000688169C943C90703D08169012211431E
:1030500081617047F7B5044600680F468169C9432E
:10306000C90636D44168890104D44168012292031B
:103070001143416000262546403520688069C043E1
:10308000800612D5781CF8D0FEF782FD0299401A0E
:10309000B84201D8002FF0D1616C20200143616457
:1030A0006870AE702E700120FEBD21681020C861CE
:1030B00020682027C7612046FFF7BBFF20684168D2
:1030C000054A11404160606C0421084360646F70E0
:1030D000E7E70020FEBD000000E800FEF0B506684E
:1030E000059C7568064F600D384385438805800D43
:1030F000110408431843204305437560F0BD0000E8
:10310000FF63FF03F8B51D4617460E46044609E067
:10311000681C07D0FEF73CFD0699401AA8420BD860
:10312000002D09D020688169304688430FD00020E7
:10313000B842EDD00020F8BD616C202001436164ED
:10314000403460700020A07020700120F8BD012084
:10315000EEE70000F7B50027202605460446403577
:1031600028E02046029A0199FFF774FF002801D059
:103170000120FEBD20688069C043800611D420680C
:103180008169C943490702D4218D002917D1C6613D
:10319000206841680E4A1140416067646E70AF70EC
:1031A00013E0FEF7F5FC0299411A0198814208D814
:1031B000002806D020688069C0434007D1D4002091
:1031C000FEBD606C304360646E702F70D0E700000D
:1031D00000E800FE70B516460D4604460FE0324684
:1031E00029462046FFF736FF002801D0012070BD98
:1031F000FEF7CEFC801BA84208D8002D06D0206820
:103200008069C0438006EAD4002070BD616C202034
:1032100001436164403460700020A0702070E5E7D5
:1032200070B516460D46044611E032462946204642
:10323000FFF710FF002801D0012070BD681C06D0E8
:10324000FEF7A6FC801BA84208D8002D06D02068F7
:103250008069C0438007E8D4002070BD616C2020E5
:1032600001436164403460700020A0702070E3E787
:103270003EB5002434480094019432490294016020
:103280008460012505614905C460416004214161F4
:10329000047644768476C4760902C46101620146EC
:1032A00020310D718462FDF7D1FF002801D072B684
:1032B000FEE701200003009401900724694622489C
:1032C0000294FDF739FE002801D072B6FEE7694688
:1032D0001D480095FDF730FE002801D072B6FEE7CC
:1032E0000220009069461848FDF726FE002801D00C
:1032F00072B6FEE70320009069461348FDF71CFEF6
:10330000002801D072B6FEE70520009069460E48FD
:10331000FDF712FE002801D072B6FEE706200090ED
:1033200069460948FDF708FE002801D072B6FEE79D
:10333000694605480094FDF7FFFD002801D072B6EC
:10334000FEE73EBD002401405C01002008B50848AE
:1033500041690122114341614069104000220090FF
:1033600011460920FEF75CFE0920FEF74DFE08BD60
:1033700000100240F0B587B014216846FCF79FFFAB
:1033800051484269012189050A43426142690A4064
:103390000592426949110A43426142690A40059215
:1033A000426989000A43426142690A4005924269C2
:1033B00049100A43426142690A4005924269890004
:1033C0000A43426140690022084003210590090236
:1033D0003E48FEF7D6FB8321092000220902C006E1
:1033E000FEF7CFFB002204213948FEF7CAFB00227A
:1033F00040213848FEF7C5FB1020002400900194BE
:10340000694602943148FEF7DDFA20200090112031
:1034100000040190694602942C48FEF7D3FA2E4826
:103420002126360401250090694601960295294817
:10343000FEF7C8FA4027694624480097019602958E
:10344000FEF7C0FA0320000200900294694601953D
:1034500003941E48FEF7B6FA83200002009009206C
:103460000294694601950394C006FEF7ABFA072063
:10347000800200900920694601960295C006FEF779
:10348000A1FA042000900294694601950394104823
:10349000FEF798FA029469460E4800970195039446
:1034A000FEF790FA002211460520FEF7B9FD05202F
:1034B000FEF7AAFD002211460720FEF7B1FD072006
:1034C000FEF7A2FD07B0F0BD001002400008004862
:1034D000000C00480004004882E3000010B51348C7
:1034E000114901601249416000218160016141611F
:1034F00081610122C161C2600162FEF799FB00286F
:1035000001D072B6FEE700210848FEF747FB00280D
:1035100001D072B6FEE700210448FEF764FB0028E4
:1035200001D072B6FEE710BD00580040B001002087
:10353000280C200010B511480F490160FF2105310A
:1035400041600021072212028160C26001610122F4
:103550004261520282611022C26180224162026293
:10356000816207220163C2624163FFF733F80028DA
:1035700001D072B6FEE710BD00300140FC01002012
:1035800010B586B000240094174801940294039467
:1035900004941449059401601449846041600461F5
:1035A0004461C9108461C160FFF700FA002801D0AE
:1035B00072B6FEE701200003009069460A48FFF753
:1035C00005FB002801D072B6FEE7049404A9064862
:1035D0000594FFF7BBF9002801D072B6FEE706B0EC
:1035E00010BD00000040014010040020BF5D00003D
:1035F00010B586B0002400941748019402940394F7
:103600000494144905940160144984604160046184
:10361000446163218461C160FFF7C8F9002801D0CB
:1036200072B6FEE701200003009069460A48FFF7E2
:10363000CDFA002801D072B6FEE7202004A911C1FE
:1036400005480839FFF782F9002801D072B6FEE775
:1036500006B010BD002C0140600200205F09000090
:1036600010B586B0002400940121164801940294FC
:1036700003940494890705940160134984604160B0
:10368000046112498461C160FFF790F9002801D0FC
:1036900072B6FEE701200003009069460948FFF773
:1036A00095FA002801D072B6FEE7049404A90548F3
:1036B0000594FFF74BF9002801D072B6FEE706B07B
:1036C00010BD0000A8020020BF5D00003FD10C002B
:1036D00010B58EB000240794089409940A940B94B2
:1036E0001C2168460C94FCF7EAFD20481E49016045
:1036F000EF2184604160046163218461C160FFF750
:1037000055F9002801D072B6FEE7012000030790AA
:1037100007A91648FFF75AFA002801D072B6FEE74B
:103720001248FFF704FC002801D072B6FEE70B94A4
:103730000BA90E480C94FFF709F9002801D072B6C6
:10374000FEE76020009001940294082269460494E8
:103750000648FFF784FB002801D072B6FEE7034855
:10376000FFF754FB0EB010BD00040040F002002033
:10377000FEE7704710B50648FDF782FB07220549B2
:103780000348FDF76FFE0448FFF7B2F910BD0000D3
:103790005C0100204C0100206002002010B50320D5
:1037A00000F090FE00090001602817D00C48007856
:1037B000002813D1032000F085FE0107090F6020C7
:1037C0000143032000F0ACFE06480021026851626C
:1037D0000068891E01610348FFF7B2F910BD0000BF
:1037E0000B0000203803002010B5032000F06AFE13
:1037F00000090001902817D00C480078002813D148
:10380000032000F05FFE0107090F90200143032011
:1038100000F086FE06480021026851620068891E99
:1038200001610348FFF78CF910BD00000B00002078
:103830003803002010B5032000F044FE0009000109
:10384000502811D0032000F03DFE0107090F502041
:103850000143032000F064FE0448FFF79DF903498B
:1038600001200968C043086110BD00003803002032
:1038700001490020086070473801002010B5074C4E
:103880000020206010210648FDF7E4FE00221021F0
:1038900003482368FDF7D0FE10BD0000380100206A
:1038A0009C0100200D4CFF270D4D0E4E0137207856
:1038B00000280FD000F0F9F8012239460A48FEF737
:1038C00060F9287800F074FD3078FFF7D1FF00F040
:1038D00021FDECE700F0DEF80022EEE70600002014
:1038E00007000020080000200008004810B5FFF77E
:1038F00041FF00F03BFB00F03FFEFFF7BFFF10BDB4
:103900000249034B0A781A700870704705000020BE
:1039100004000020F8B50121054689034811524FE3
:10392000012400268D4210D1FFF738FF4F4801686F
:10393000491C01603878030001F01EF903380303C5
:1039400038000020FFF7DCFF0EE085420CD1FFF7C6
:103950004BFF46480168491E01603878022828D884
:103960000120FFF7CDFF24E0402D12D0012080027E
:1039700085421ED1FFF75EFF3D480178012916D030
:1039800004703878002820D83A480078FFF7B8FF4C
:103990001BE03878030001F0EFF80303030509008A
:1039A000022001E033480078FFF7AAFFF8BD067057
:1039B000E7E70120C003854207D12F48017800299D
:1039C00001D006701DE004701BE001200003854259
:1039D00017D12A480178002908D0012908D00229E6
:1039E00008D0032908D0042909D01DE004701BE089
:1039F000022102E0032100E00421017014E00670BE
:103A000012E01F48022D09D0012149038D420BD13C
:103A1000017801290DD9491E01700AE001780829B1
:103A2000C4D2491C0170F8BD802DFCD0E81FF938C4
:103A3000F9D00120C0028542F5D112480178002951
:103A400002D0012902D002E0047000E0067039784B
:103A50000529E8D80178002903D00129E3D10670AF
:103A6000F8BD0470F8BD0000050000200000002033
:103A700009000020040000200600002007000020AC
:103A8000080000200A000020002100E0491C8142BB
:103A9000FCDB704710B5432000F014FD062803D06E
:103AA0000621432000F03CFD10BD10B5432000F07E
:103AB00009FD092803D00921432000F031FD10BD84
:103AC00010B5002805D0012802D1044800F0F4FB0D
:103AD00010BD024800F0DAFB10BD0000AA4D00083E
:103AE0007CB50A25002812D001280FD1002410A08F
:103AF0000068019068460471022301AA7F210D48E5
:103B00000095FEF777F9641C082CF0DD7CBD0024DD
:103B10002646684601960471022301AA7F210548C2
:103B20000095FEF767F9641C082CF2DD7CBD0000EF
:103B300000FF0000B001002001490968C863704718
:103B4000F002002010B5030001F016F809062E6EF1
:103B50009ACAFEFDFCFBFA00FC4800F097FBFB480C
:103B6000801C00F093FBF948001D00F08FFBF74824
:103B7000801D00F08BFBF548083000F087FBF34810
:103B80000A3000F083FBF1480C3000F07FFBEF4877
:103B90000E3000F07BFBED48103000F077FBEB4877
:103BA000123000F073FB26E0E84800F085FBE748A0
:103BB000801C00F081FBE548001D00F067FBE34836
:103BC000801D00F063FBE148083000F05FFBDF4838
:103BD0000A3000F05BFBDD480C3000F057FBDB489F
:103BE0000E3000F053FBD948103000F04FFBD7489F
:103BF000123000F061FBD548143000F047FBD34889
:103C0000163000F043FBD148183000F03FFBCF489E
:103C10001A3000F03BFBCD481C3000F037FBCB489E
:103C20001E3000F033FB48E1C84800F045FBC748B0
:103C3000801C00F041FBC548001D00F03DFBC3485F
:103C4000801D00F023FBC148083000F01FFBBF4877
:103C50000A3000F01BFBBD480C3000F017FBBB48DE
:103C60000E3000F013FBB948103000F00FFBB748DE
:103C7000123000F021FBB548143000F01DFBBEE708
:103C8000B24800F019FBB148801C00F015FBAF48AA
:103C9000001D00F011FBAD48801D00F00DFBAB488E
:103CA000083000F0F3FAA9480A3000F0EFFAA7480C
:103CB0000C3000F0EBFAA5480E3000F0E7FAA3480C
:103CC000103000F0E3FAA148123000F0F5FA9F48F6
:103CD000143000F0F1FA9D48163000F0EDFA92E74A
:103CE0009A4800F0E9FA9948801C00F0E5FA9748F4
:103CF000001D00F0E1FA9548801D00F0DDFA9348C0
:103D0000083000F0D9FA91480A3000F0BFFA8F4825
:103D10000C3000F0BBFA8D480E3000F0B7FA8B483B
:103D2000103000F0B3FA8948123000F0C5FA874825
:103D3000143000F0C1FA8548163000F0BDFA04E0F6
:103D4000BFE0BFE07AE03DE004E08048183000F0DA
:103D5000B3FA5CE77D4800F0AFFA7C48801C00F0C5
:103D6000ABFA7A48001D00F0A7FA7848801D00F0F1
:103D7000A3FA7648083000F09FFA74480A3000F041
:103D80009BFA72480C3000F081FA70480E3000F057
:103D90007DFA6E48103000F079FA6C48123000F06D
:103DA0008BFA6A48143000F087FA6848163000F041
:103DB00083FA6648183000F07FFA64481A3000F041
:103DC0007BFA28E7614800F077FA6048801C00F031
:103DD00073FA5E48001D00F06FFA5C48801D00F029
:103DE0006BFA5A48083000F067FA58480A3000F079
:103DF00063FA56480C3000F05FFA54480E3000F079
:103E000045FA5248103000F041FA5048123000F0A4
:103E100053FA4E48143000F04FFA4C48163000F078
:103E20004BFA4A48183000F047FA48481A3000F078
:103E300043FA46481C3000F03FFAF0E6434800F0F1
:103E40003BFA4248801C00F037FA4048001D00F061
:103E500033FA3E48801D00F02FFA3C48083000F04D
:103E60002BFA3A480A3000F027FA38480C3000F0B4
:103E700023FA36480E3000F01FFA3448103000F0B4
:103E800005FA3248123000F017FA3048143000F0CA
:103E900013FA2E48163000F00FFA2C48183000F0B4
:103EA0000BFA2A481A3000F007FA28481C3000F0B4
:103EB00003FA26481E3000F0FFF92448203000F0B5
:103EC000E5F910BD214800F0F7F92048801C00F00A
:103ED000F3F91E48001D00F0EFF91C48801D00F0AA
:103EE000EBF91A48083000F0E7F918480A3000F0FA
:103EF000E3F916480C3000F0DFF914480E3000F0FA
:103F0000DBF91248103000F0D7F91048123000F0F9
:103F1000D3F90E48143000F0CFF90C48163000F0F9
:103F2000CBF90A48183000F0C7F908481A3000F0F9
:103F3000C3F906481C3000F0BFF904481E3000F0F9
:103F4000BBF90248203000F0B7F910BDB44D0008AD
:103F50001CB5694608710A200090012301AA7F213F
:103F60000148FDF747FF1CBDB001002010B58C20B3
:103F7000FFF7EEFF7020FFF7EBFFC020FFF7E8FF31
:103F80000020FFF7ADFD08210748FEF7F7FF1021DD
:103F90000648FDF7F1FD0449012803D064200968B3
:103FA000C86310BD3C20FAE7F0020020000800487A
:103FB00010B5030000F0E0FD0504101828342700B8
:103FC0001F4800F079F91E48801C00F075F91C4864
:103FD000001D00F05BF912E0194800F06DF9184877
:103FE000801C00F069F906E0154800F065F91448F6
:103FF000801C00F04BF91248001D00F05DF91048DC
:10400000801D00F043F910BD0D4800F055F90C4833
:10401000801C00F03BF90A48001D00F04DF90AE051
:10402000074800F049F90648801C00F02FF90448C1
:10403000001D00F02BF90248801D00F03DF910BD75
:10404000AC4D0008F8B507460A21FCF744F90646CE
:10405000C800704C451A605D01286F487ED000F0A2
:1040600015F92D19687801286C4878D000F00EF900
:10407000A87801286A4873D000F008F9E878012888
:1040800068486ED000F002F928790128664869D0A6
:1040900000F0FCF868790128644873D000F0F6F865
:1040A000A879012862486ED000F0F0F830460A2165
:1040B000FCF711F9C800451A605D01285D487AD007
:1040C00000F0E4F82D19687801285B4878D000F0FA
:1040D000DDF8A8780128594875D000F0D7F8E878BD
:1040E0000128574872D000F0D1F8287901285548A6
:1040F00071D000F0CBF86879012853486ED000F0F9
:10410000C5F8A879012851486BD000F0BFF86421A8
:104110003846FCF7E0F80A21FCF7DDF8C800451A3C
:10412000605D01284A485FD000F0B0F82C19607833
:10413000012848485BD000F0A9F8A078012846483B
:1041400058D000F0A3F8E0780128444855D000F09A
:104150009DF820790128424852D004E014E016E08E
:1041600018E01AE01EE000F091F8607901283D485F
:1041700049D000F08BF8A07901283B4846D000F0E8
:1041800085F8F8BD11E013E000F096F869E700F05B
:1041900093F86DE700F090F870E700F08DF873E7A2
:1041A00009E00DE000F088F874E700F085F877E7A3
:1041B00000F082F87AE700F07FF883E703E005E09B
:1041C00000F07AF885E700F077F888E700F074F8F7
:1041D0008BE700E002E000F06FF88CE700F06CF88D
:1041E0008FE700F069F892E700F066F89EE700F0CC
:1041F00063F8A2E700F060F8A5E700F05DF8A8E733
:1042000000F05AF8B1E700F057F8B4E700F054F8BE
:10421000B7E70000F0000020F64D0008F84D000858
:10422000FA4D0008FC4D0008FE4D0008004E000845
:10423000024E0008E84D0008EA4D0008EC4D000869
:10424000EE4D0008F04D0008F24D0008F44D000856
:10425000DA4D0008DC4D0008DE4D0008E04D000896
:10426000E24D0008E44D0008E64D000810B50028B6
:1042700005D0012802D1044800F01EF810BD024804
:1042800000F004F810BD0000A84D00087CB50478CB
:104290004078C543204600F025F8694628400C7157
:1042A00048710A200090022301AA7F210148FDF7EE
:1042B000A1FD7CBDB00100207CB504784578204686
:1042C00000F010F8694628430C7148710A200090EC
:1042D000022301AA7F210248FDF78CFD7CBD00006E
:1042E000B00100203EB5694608710A24012301AAE5
:1042F0007F2107480094FDF77DFD012302AA7E215E
:1043000003480094FDF7EEFC6946087A3EBD0000C4
:10431000B001002010B50D480078FFF7D1FB0C4824
:104320000078FFF7A3FF0B480078FFF741FE0B482A
:104330000949006800F0DEFCFCF726FCFFF782FE6E
:1043400007480078FFF7FEFB10BD000009000020C1
:104350000A000020070000200000C8421C000020C6
:104360000800002010B5032000F0ACF80007000F93
:10437000092817D00C480078002813D1032000F03A
:10438000A1F80109090109200143032000F0C8F840
:1043900006480021026851620068891E01610348D5
:1043A000FEF7CEFB10BD00000C00002080030020B3
:1043B00010B517490300096800F0DEFB0504121769
:1043C0001C2309001348814202DCFFF7CBFF10BD1C
:1043D00011481AE000F032F810BD00F055F810BD99
:1043E0000E488142F1DD0E480FE00E488142ECDBC1
:1043F0000D4803E00D488142E7DB0D488142ECDDCA
:10440000E8E70C488142E0DB0B488142E5DBE1E76D
:104410001C000020666696409A999940B81E654037
:104420001F856B40CDCC1C4033332340713DAA3FE8
:104430003D0AB73FCDCC4C3E9A99993E10B503202A
:1044400000F040F80007000F062817D00C4800784D
:10445000002813D1032000F035F8010909010620D6
:104460000143032000F05CF8064800210268516215
:104470000068891E01610348FEF762FB10BD000061
:104480000C0000208003002010B5032000F01AF873
:104490000007000F052811D0032000F013F80109D0
:1044A000090105200143032000F03AF80448FEF713
:1044B00073FB034901200968C043086110BD000077
:1044C00080030020FEB514A10968019169460871B6
:1044D00001240925E403ED06002221462846FDF7C4
:1044E00050FBFF26F5363046FFF7CEFA0A20009043
:1044F000022302AA01A90948FEF714F93046FFF782
:10450000C3FA012221462846FDF73BFB3046FFF760
:10451000BBFA6946487AFEBD00FF0000FC0100209E
:10452000FEB5802210436A4610715171012409259D
:10453000E403ED06002221462846FDF722FBFF2674
:10454000F5363046FFF7A0FA0A200090022302AAAF
:1045500001A90848FEF7E6F83046FFF795FA012270
:1045600021462846FDF70DFB3046FFF78DFA6A46D7
:10457000507AFEBDFC01002010B501224021054803
:10458000FDF7FFFA0448FFF77FFAFC212B20FFF725
:10459000C7FF10BD00040048A0860100F8B50F4613
:1045A0000B4615460092032104460022C90200F082
:1045B0001BF82026002812D13B46002280212046ED
:1045C000009500F07DF8002809D103213B46002228
:1045D00049022046009500F007F8002803D0206E1D
:1045E000304320660320F8BDFFB585B00E46044673
:1045F000002069460E9D17460871FDF7C9FA411B58
:104600000898451AFDF7C4FA0390206823210C305E
:1046100002902A4800684843000D684346E00320A2
:104620004002864206D1002F04D1029801786846E4
:10463000017100790898401C39D0FDF7A9FA039957
:10464000401AA84205D2002D03D0009800282BD094
:104650002BE020684168E022914341606068C11FFF
:10466000FD390CD10121A068C903884202D049114B
:10467000884204D1206801684022914301600120F2
:10468000A16A4003814207D121680A6882430A6017
:1046900021680A6802430A600120403460770020E4
:1046A0002077032009B0F0BD0025401E009020684F
:1046B00080683040B842B2D10020F3E748010020C2
:1046C000FFB581B01E4604460A9DFDF761FA401B06
:1046D000351AFDF75DFA0746264800684001000DCF
:1046E000684339E0701C38D0FDF752FAC01BA8426D
:1046F00005D2002D03D0009800282BD02BE0206895
:104700004168E022914341606068C11FFD390CD1CE
:104710000121A068C903884202D04911884204D10E
:10472000206801684022914301600120A16A400392
:10473000814207D121680A6882430A6021680A68B9
:1047400002430A6001204034607700202077032074
:1047500005B0F0BD0025401E0090206881680298D9
:10476000884305D0002103988142BBD10020EFE7A8
:104770000121F8E748010020704710B5FDF7F6FB6E
:1047800010BD30B591B034216846FBF798FD002488
:1047900001200F9410940090019000040A90800072
:1047A0000E9402250B900D9409950C946846FDF724
:1047B0000FFD002801D072B6FEE707200D900F9480
:1047C00000210E9510940DA8FDF72EFC002801D0B5
:1047D00072B6FEE711B030BD7047000010B5024858
:1047E000FEF763FA10BD0000C803002010B50248B0
:1047F000FEF75BFA10BD00001004002010B502485F
:10480000FEF753FA10BD0000A802002010B50348BF
:10481000FEF74BFA0248FCF794FE10BD3803002067
:104820009C01002010B50248FEF73FFA10BD0000C1
:1048300080030020F0B502681D4B0124A4071D4D24
:10484000984203D0A04201D0A84203D17026B243BF
:104850004E683243184E194F98420DD0A0420BD0EB
:10486000A84209D0164CA04206D0B04204D0B842AB
:1048700002D0144CA04204D103242402A243CC68E9
:1048800022438024A2434C69224302608A68C262A8
:104890000A688262984206D0B04204D0B84202D080
:1048A000084A904201D10969016301214161F0BDCB
:1048B000002C014000040040004001400044014041
:1048C000002000400048014010B5CB06DB0E01215E
:1048D000046A99408C430462016A9A401143016260
:1048E00010BD30B58468FF252D021B021343AC4375
:1048F0000B432343836030BD826870239A430A438D
:1049000007210A4382607047F0B5026A52085200DC
:104910000262056A436882697024A24392080C68A7
:1049200092001443022295438A68164E2A43144D7E
:10493000A84207D0B04205D0134FB84202D0134F5F
:10494000B84206D10827BA43CF68174304229743D9
:104950003A46A84207D0B04205D00B4DA84202D03B
:104960000A4DA84206D103252D02AB434D691D43D4
:104970008B692B4343608461496841630262F0BDE7
:10498000002C01400040014000440140004801402B
:1049900070B5026A10239A430262056A426883690D
:1049A00073242402A3430C6824021C4320239D4348
:1049B0008B681B012B43124DA84208D11D46CB68C2
:1049C0008026B5431B012B434025AB4308E00D4D2A
:1049D000A84205D00C4DA84202D00C4DA84208D1E7
:1049E0000325AD02AA434D69AD0015438A699200C3
:1049F0002A434260846149688163036270BD00009C
:104A0000002C0140004001400044014000480140AA
:104A100070B5026AFF2301339A430262056A436854
:104A2000C2697024A24392080C68920014430122C8
:104A3000520295438A6812022A43124DA84208D1B5
:104A40001546CA68C614B54312022A430515AA437F
:104A500008E00D4DA84205D00C4DA84202D00C4DE7
:104A6000A84208D103252D03AB434D692D011D43F9
:104A70008B691B012B434360C4614968C1630262B7
:104A800070BD0000002C0140004001400044014086
:104A90000048014030B5026A01231B039A430262B9
:104AA000046A4268C36973252D02AB430D682D0269
:104AB0001D4301235B039C438B681B0323430C4C66
:104AC000A04208D00B4CA04205D00B4CA04202D013
:104AD0000A4CA04205D10124A403A2434C69A401BD
:104AE00022434260C56149680164036230BD000031
:104AF000002C0140004001400044014000480140BA
:104B000030B5036A046A6408640004628469F025AD
:104B1000AC43120122430A24A3430B438261036284
:104B200030BD30B5036A1024A34303628469036A6D
:104B30000F252D031203AC432243A024A3430901F4
:104B400019438261016230BDF8B5040C8BB2264670
:104B500082B25E430D0C1046370C58433604801960
:104B60000021794116466E43370C3604801979418D
:104B700026466E438919F8BD30B47446641E257804
:104B8000641CAB4200D21D46635D5B00E31830BC81
:104B9000184700008307FF22DB0E9A408907090EA1
:104BA0009940002808DB830809489B001B181868F7
:104BB00090430843186070470007000F08388308C7
:104BC00004489B001B18D86990430843D86170477C
:104BD00000E400E000ED00E01CB5FEF7B7FBFDF7D8
:104BE000CDF9FFF7CEFDFEF7C5FBFEF777FCFEF72C
:104BF0006FFDFEF73DFBFEF7A9FBFEF79BFC0024D3
:104C0000344900943248019408600846FCF7CAFC15
:104C1000002801D072B6FEE70094002269462D48B4
:104C20000194FCF771FC002801D072B6FEE7FEF794
:104C3000DFFC2A48009401942A4E84602649C6600D
:104C4000274D846122C00838FDF7B0FE002801D04E
:104C500072B6FEE70094694620480194FDF776FE9F
:104C6000002801D072B6FEE71C4800944830019439
:104C700084601D49C660846122C00838FDF796FE35
:104C8000002801D072B6FEE7144800946946483007
:104C90000194FDF75BFE002801D072B6FEE70F48D5
:104CA00012499030846022C08460114904614160DF
:104CB0000838FDF77BFE002801D072B6FEE7FEF74C
:104CC000CFFCFEF75DFCFEF711FEFEF7EBFDFEE705
:104CD000007400409C0100200010004038030020B8
:104CE000BF5D0000973A0000001400400020004023
:104CF0008713000070B5420064414B005C41120E06
:104D000039D01B0E38D0FF2A3CD0FF2B3AD04002BE
:104D10004902400A490A060045184E43000A090A9A
:104D2000D2184843ED017F3A0104731A4019190C57
:104D30004318990F04D001215B0849075B1A521CE4
:104D4000D80904D3401CF50301D19D0607D0FF2AE2
:104D500008D2D50506D0E4072043401970BD0125CF
:104D6000A843F4E7002A01DCE00770BD2402FF201D
:104D70002043C00570BD1B0EFF2A03D0FF2B01D0BE
:104D8000E00770BDFF2645003606B54206D84D0047
:104D9000B54203D8D218FF2A00D0E7E7004870BD1B
:104DA0000000C07F071004800420051004400504A3
:104DB00005010502020802100240022002800408D8
:104DC0000402040404010301030403020308038032
:104DD0000320034003100508061008080780074059
:104DE000080108040802072007080680064007019A
:104DF0000704070206200608058005400601060490
:104E0000060205200410000000000000000001025E
:104E100003040607080980807F7E7D7C7B7A797891
:104E2000777676757473727171706F6E6E6D6C6C6F
:104E30006B6A6A6968686766666564646363626111
:104E40006160605F5F5E5E5D5D5C5C5B5B5A5A5992
:104E500059585857575656555555545453535252FE
:104E60005251515050504F4F4F4E4E4D4D4D4C4C56
:104E70004C4B4B4B4A4A4A4949494848484747479F
:104E800047464646454545444444444343434342DC
:104E90004242424141410000B84E0008000000205B
:104EA0004C0100003A0C0008644F00084C0100203F
:104EB000B40900000401000841022301186507102D
:104EC00004800420051004400504050105020208C1
:104ED00002100240022002800408040204040401BB
:104EE00003010304030203080380032003400310AB
:104EF0000508061008080780074008010804080292
:104F0000072007080680064007010704070206205D
:104F10000608058005400601060406020520041067
:104F200001088916800102010112101240180820A0
:104F30000104018002020F000846100140014002F6
:104F4000803A01012908490E490349133915290BF3
:104F50004914592C692A7901593C293121820413B9
:044F6000127A0000C1
:04000005080000C12E
:00000001FF
