:020000040800F2
:10000000580B002081010008853F00084538000892
:1000100000000000000000000000000000000000E0
:10002000000000000000000000000000156A000849
:100030000000000000000000873F0008176A000869
:100040009301000893010008930100089301000840
:100050009301000871140008930100087B14000844
:10006000930100081514000893010008930100088B
:10007000E51200089301000893010008996A00083E
:1000800093010008A96A0008C16A0008796A00089B
:10009000896A000893010008930100089301000891
:1000A00093010008930100089301000893010008E0
:1000B00093010008930100089301000893010008D0
:1000C00000F002F800F030F80CA030C8083824180E
:1000D0002D18A246671EAB4654465D46AC4201D180
:1000E00000F022F87E460F3E0FCCB6460126334282
:1000F00000D0FB1AA246AB46334318477475000084
:10010000947500000023002400250026103A01D336
:1001100078C1FBD8520700D330C100D50B607047BF
:100120001FB51FBD10B510BD01F050F81146FFF707
:10013000F7FF06F00BFF01F068F803B4FFF7F2FFDA
:1001400003BC01F09DF8000070B505460C4616464C
:1001500002E00FCC0FC5103E102EFAD2082E02D3AB
:1001600003CC03C5083E042E07D301CC01C5361FBE
:1001700003E021782970641C6D1C761EF9D270BDD5
:100180000748804707480047FEE7FEE7FEE7FEE72F
:10019000FEE7FEE704480549054A064B70470000A4
:1001A000756A0008C100000858050020580B00209F
:1001B0005807002058070020FEB5054610460C469B
:1001C000184373D0AE468C460020AD1A01469C41C0
:1001D00067D36646002701243D46B61A9D4102D3E7
:1001E00013463A462124654676462F04360C3E4394
:1001F0002D0CB61A9D4104D3150C1B042B4312047D
:100200001034654676462F06360A3E432D0AB61A46
:100210009D4104D3150E1B022B4312020834654680
:1002200076462F0736093E432D09B61A9D4104D361
:10023000150F1B012B431201241D65467646AF079F
:10024000B6083E43AD08B61A9D4104D3950F9B00F6
:100250002B439200A41C65467646EF0776083E4382
:100260006D08B61A9D411AD392185B41641C16E0C2
:100270000018764665464941B71A9D4101910090A4
:1002800009D36046B11A98418E4684460098019978
:100290000025401C6941DD0752082A435B08641EA3
:1002A000E6D57246634603B0F0BDFFE70020014685
:1002B000C046C0462A462346F5E701E004C0091FB0
:1002C0000429FBD28B0701D50280801CC90700D00E
:1002D0000270704700290BD0C30702D00270401C87
:1002E000491E022904D3830702D50280801C891E7F
:1002F000E3E70022EEE70022DFE7002203098B425A
:100300002CD3030A8B4211D300239C464EE00346B4
:100310000B433CD4002243088B4231D303098B4268
:100320001CD3030A8B4201D394463FE0C3098B429E
:1003300001D3CB01C01A524183098B4201D38B01F7
:10034000C01A524143098B4201D34B01C01A52419A
:1003500003098B4201D30B01C01A5241C3088B42DF
:1003600001D3CB00C01A524183088B4201D38B00CA
:10037000C01A524143088B4201D34B00C01A52416C
:10038000411A00D201465241104670475DE0CA0F43
:1003900000D04942031000D34042534000229C4603
:1003A00003098B422DD3030A8B4212D3FC2289010D
:1003B00012BA030A8B420CD3890192118B4208D3E3
:1003C000890192118B4204D389013AD0921100E045
:1003D0008909C3098B4201D3CB01C01A5241830959
:1003E0008B4201D38B01C01A524143098B4201D386
:1003F0004B01C01A524103098B4201D30B01C01AB1
:100400005241C3088B4201D3CB00C01A524183082A
:100410008B4201D38B00C01A5241D9D243088B4280
:1004200001D34B00C01A5241411A00D20146634623
:1004300052415B10104601D34042002B00D5494287
:10044000704763465B1000D3404201B50020C046B0
:10045000C04602BD70477047704700000246C80F93
:10046000C00781434B0030B54B405B009B0D20D053
:100470001923DB06C91801231B05994220DB03243D
:10048000A40704251346AB400BD3002B04D1EB0685
:1004900013409B00E34204D4012464070023121993
:1004A0005941FF231B0599420BD2C9000143500F4C
:1004B00009E0CB0204D501430803024305D00548F7
:1004C00030BDFF21C905084330BD08460721090595
:1004D000884330BD0000C07FF0B50C46871A9C41B0
:1004E0000D46861A9D4103D2C01BA141D21963411A
:1004F0000D0D1F0DC94EEC1BAE435CD07F057F0D6B
:100500000026002F51D02D05AC46A943DD02012362
:10051000ED0A1B051D4320231B1B24D41746E7406F
:10052000381871412F46E740CC199D4028183146B4
:1005300061410C0D27D161449A4013D50023401C22
:10054000594152000ED14008400001224B00520593
:10055000D34207D305204007C14201D5B04900E08E
:10056000B0493046F0BD6B00002A00D001229A1835
:100570001F23203C1B1B01D5002302E0E540281867
:1005800071410C0DD7D0012424050919C407CD07EA
:1005900040084908E40F28436144002CD5D00024CA
:1005A000401C61419A40D0D1CDE76A05520DD9D1A6
:1005B000C90FC907D5E79C4D4E00002801D0012482
:1005C00000E0002434195F00002A01D0012600E079
:1005D0000026BE19954FAC420CD8AE420AD8B442A0
:1005E00006D001256D05EC42BCD010461946F0BD81
:1005F0009942FCD000203946F0BDF0B51FB40C463E
:100600000F46811A9F412546861A9D4106D2012533
:10061000ED076F40401ABC4152187B41210D1E0D61
:100620008D1BAC467D4D8D437ED075056D0D7CD008
:100630000D05AE46AC431B031B0B794D52429D4149
:10064000202366469B1B14D31746F7403818002614
:100650000090744160462F460741E41900989D4080
:100660002818664116D4714671189A4025D5012381
:1006700020E093182A466A415200002B00D0521CF9
:100680001E23203E9B1B002B61DD3541EE172818F1
:100690006641E8D5001876415B1C9A4000D3401CA7
:1006A0004B05F3181524E34010D3002B52D07146AC
:1006B0007118D30FC01802D3491C05B0F0BD012337
:1006C000DB079A42F9D140084000F6E701225205C3
:1006D000B21801D1002853D00123CC0ADB02994380
:1006E000891E002A08D1020C03D0020C0004103924
:1006F00002E00246002020390023550B05D11202EA
:100700000823550B01D152010D23550C01D11201C3
:100710001B1DD50C01D192009B1C150D01D152005F
:100720005B1C2025EE1A01E02CE022E00546F54096
:1007300015439840CA1AE10769181305C918002A19
:10074000BBDA032040070818C10FC9070FE0714644
:100750006118B2E7F10740080843711071444A007C
:100760000CD001235B059A42A7D2C90FC90700200C
:10077000A3E74905490D26D1002001E00028F4D166
:1007800000219AE7284D6600002801D0012100E0F1
:10079000002171185F00002A01D0012600E0002628
:1007A000BE19224FA94210D8AE420ED8B14208D08D
:1007B00001256D05E94206D01946A80241401046C0
:1007C0007BE79C4201D0214677E70020394674E759
:1007D00010B50C465C4005D50124E4076340FFF7E3
:1007E0000CFF10BDFFF778FE10BD30B40C465C4026
:1007F00004D50124E407634030BC6DE630BCFCE660
:1008000070B50124E40761400D465D4002D4FFF756
:1008100063FE70BD6340FFF7F0FE70BDFF07000090
:100820000000F0FF0000F07F0000E0FF0000F87F14
:10083000F0B5F94D0C091E092C402E402F468BB007
:10084000A7437DD0B543FCD0002E7AD0002CFCD03D
:100850000D465D40ED0F2543AC1BFF25AD0464192B
:100860000894C502440DC9022143500DDC02044323
:100870000120C00701430443D2020191200C110C56
:1008800000958C46010423468B430A916146090476
:10089000E24D8A430991010A7D444919803909785A
:1008A00005464D4301266D18F605751B6943C90CB5
:1008B000640B891C4C436418B5012C1B250C2E04B9
:1008C000B4434C434D43210C691889090591009D9F
:1008D000E90701D00121C90704912C460199670855
:1008E000CD072F434C08059DE10B4D432D0C2946A8
:1008F0006646754302950D4645432E46029D7D1B77
:10090000B44100950D465D4301942C0C2F040D4617
:100910005543AE462D0C3D43029503947546049C09
:100920002D04641B049406D2029C039D641C0026C3
:1009300075410395029401AC70CC009F7D1B01E0D2
:100940003EE162E1B44109040095079101940599E3
:10095000A4086143090C0C464443650BE7040C46AC
:1009600066467443A646640B3C4303950294744662
:10097000049DE4042C1B049406D2029C039D641C79
:10098000002675410395029401AC70CC009F7D1B3D
:10099000B44101940C465C430095650FE7000C469A
:1009A0005443A646640F3C43039502947446049D49
:1009B000E4002C1B049406D2029C039D641C0026B8
:1009C00075410395029401AC70CC009F7D1BB4412E
:1009D000AE09AF06049DC900AD092F43049DA406CE
:1009E000AD060495079D344369180791059DE10BF9
:1009F0004D432D0C29466646754302950D464543E9
:100A00002E46029D7D1BB44100950D465D43019429
:100A10002C0C2F040D465543AE462D0C3D4302953C
:100A200003947546049C2D04641B049406D2029C16
:100A3000039D641C002675410395029401AC70CCA3
:100A4000009F7D1BB44101948C050694079C890A84
:100A5000611800950791019C0599A4086143090C50
:100A60000D464543680BEF040D46644665436C0B29
:100A70003C43049FED047D1BAC4602D20025641C60
:100A80006841009E019D371B8541084658430195EA
:100A90000C46460FC5005443600F28436546E400EA
:100AA0002C1B02D20025401C6E41019D3F1AB5410E
:100AB0002846BD09800628438446A009BF064E0289
:100AC0000699A40676180743079D002068410A99F5
:100AD000079019430020099B00906046FF191343BB
:100AE0004041E20F64003A43A4460446D71A8C41C1
:100AF000A04203D90120009020463A46C70F94181F
:100B000040416246D20F2243644664000494009C34
:100B1000BE466400D71AA446044602978C41774625
:100B2000002F01D1A04204D96046401C8446029A9D
:100B30002046C40FA64694184041049A0546D20F99
:100B4000224364466400D31A8D417146002901D1C5
:100B5000A84202D928461A46641C104301220028E4
:100B600000D0164361020020079B891904465C41AE
:100B70000223002C02DB491813466441089DCE0A6B
:100B80002D145D194B056705E10A2C050D1908990F
:100B90003E43C9076940002B08D0934006D300228A
:100BA000761C5141002B01D1760876001C4A002D9D
:100BB00043DB154241D0AA433FD030460BB0F0BDD5
:100BC00006180D464D41174C7642AC411AD3951884
:100BD0001C465C41134A6D42A24113D301225205C7
:100BE0004C00D4420AD15C00D4420BD04B4002D519
:100BF00092021143E2E749004908DFE75940C90F73
:100C0000C90718E000200849D8E7054801420DD17E
:100C10000342F7D0F2E700000000FF07526D00002A
:100C20000000F07F0000E0FF0000F87F114859400D
:100C30000143C01241400020C0E70123089A9B06EF
:100C40009A4205DC032252078918C90FC907B5E784
:100C5000052252078918074A1143D2125140ADE7C5
:100C600070B515461C4602460B4628462146FFF73E
:100C7000DFFD70BDFFFFFF7F30B50346CA02400DA8
:100C80001043164D164C0A1502D02043002A06DBED
:100C9000AA1A002A12DDD040FF2A0BDC30BD520513
:100CA000520D01D140004008AA1A07D4D04040425A
:100CB000FF2A01DD002030BD0028FCDD4A00002BAA
:100CC00001D0012000E00020101801225205D0427E
:100CD000F0D8C817C043604030BD00001E040000BB
:100CE000000000801F22030C02D10F22000402D05A
:100CF000030E03D004E00020014670470002083ACA
:100D0000030F01D10001121F830F01D18000921E39
:100D1000002801DB4000521E120551184205C01286
:100D2000411810467047C10FC90700D04042012248
:100D300092071143D6E701218907D3E7F0B58B4C21
:100D40000F09254689B0BD437BD01D092646AE4319
:100D5000FAD00E465E402740F60F3E43254071D044
:100D600024012142FBD0FF24AD19A4042D1B0395BF
:100D700001252D05DB02DB0AC9022B43C90A2943E1
:100D80001E010901040F130F050121431701880BF0
:100D9000820391432D098C46A90B1E438A03954378
:100DA000B30B9A0396433F09BA0B9403A7430296E9
:100DB0002E467E430497B6464E19D7190C46019627
:100DC000544305977E43371B7646BF1B3601B64614
:100DD000BE0B361900967646BC043719009C01D329
:100DE000641C00946400002F01D001263443029E4D
:100DF000049F754366467E430496760034196E0060
:100E000034190094029C019E1C196643751BAE4662
:100E1000069465464519059C05956C4359437546EE
:100E20000891691A0191049E01465143A41B049143
:100E3000611A009C0791E10605D061090122114366
:100E400002E072E06EE06109089D00272C0A2D0681
:100E50006918049D7C412A0A2D066918019D62418A
:100E6000AC0DAD026D185441079A910D92025519BF
:100E70006141029A644658435443069B059A5A437B
:100E8000121A131B9A0E9B015B187A41010B000585
:100E9000C3185141220A200644195A419A4200D2ED
:100EA000491C01204002814203D315230226F64348
:100EB00002E014230326F6432020C51AA940174652
:100EC000AF40DA400A4320460399D840091473180A
:100ED00019055118039A3843D2075140AC4009D044
:100EE0000122944006D30022401C5141002C01D124
:100EF000400840001E4A934212D3012203989206F2
:100F0000904207DB0520400709181A480143C01228
:100F1000414004E0032040070818C10FC907002022
:100F200009B0F0BD0020F107FAE705180C464C4166
:100F300011486D42A04115D394181A465A410E48E3
:100F4000644290410ED301204A004005824209D3F9
:100F50005A00824206D35940C90F084AC9070020E7
:100F60001143DDE700200649DAE700000000FF0733
:100F7000FE070000FFFFFF7F0000E0FF0000F07FA2
:100F80000000F87F0121C9050123411842001B061A
:100F9000D3185B0E0AD0C1100722D2068918400769
:100FA0005242D14201D5520089187047090208D532
:100FB0000146002A03D0C10FC90700207047104620
:100FC0007047420202D000200249704707210905FC
:100FD0000143F4E70000F87F10B501469E240002AB
:100FE000CA15A307002A02D01843002A04DBA21A5C
:100FF000002A0CDDD04010BD1206120E01D14000B7
:101000004008A21A03D4D04040420028F3DDFF225A
:1010100048001206904201D9002010BDC817C043F5
:10102000584010BD1F22030C02D10F2200041CD017
:10103000030E01D10002083A030F01D10001121F73
:10104000830F01D18000921E002801DB4000521E58
:10105000D2055118021251181922904004D3491C8C
:10106000002801D14908490008467047C10FC90747
:1010700000D04042012292071143D3E701218907A2
:10108000D0E70000F8B5224C4E00069DA6420AD8D3
:10109000A64201D1002806D15E00A64203D8A6428E
:1010A0000AD1002A08D00D24240425422CD0294638
:1010B000002000F061F8F8BD0C461C430CD49942A6
:1010C00002D0EFF30080F8BD904202D0EFF3008031
:1010D000F8BDEFF30080F8BD09242407E5008B423A
:1010E00006D0EFF30080A043591A06D2284304E04B
:1010F000101A05D3EFF30080A04380F30088F8BDF9
:10110000EFF30080A043F1E7009500F04DF8F8BD43
:101110000000E0FF10B5FF231B0644009C421DD8D1
:101120004C009C421AD80346124A0B4307D4401A7B
:1011300002D3EFF3008010BDEFF3008010BD081A5A
:1011400006D2EFF3008001219043C907084302E073
:10115000EFF30080904380F3008810BD0D231B0443
:101160001A4204D01146002000F006F810BD00F02D
:1011700025F810BD00000090C80212D54803400FAA
:10118000002804D0C803C043012188407047EFF312
:1011900000800001000903210907084380F300884B
:1011A000704700207047000010B500200249029AE5
:1011B00000F033F810BD00000000F87F10B50248C1
:1011C00000F02BF810BD00000000C07F754600F055
:1011D00053F8AE46050069465346C008C000854630
:1011E00018B020B5FEF7D6FF60BC00274908B64608
:1011F0000026C0C5C0C5C0C5C0C5C0C5C0C5C0C526
:10120000C0C5403D49008D46704710B50446C046F4
:10121000C0462046FEF791FF10BD10B50C461107E1
:10122000090F092904D00A290AD008290CD104E0A1
:1012300011460820FFF7A0FF06E0510606D501E0A1
:10124000510601D50120C007214610BDD10607D5A2
:1012500001010909CC084907000E0006044309E012
:10126000410F20024907000A0143200E00061D22FB
:10127000D14101430846E7E700487047F8040020E1
:1012800001491820ABBEFEE726000200704770B58A
:101290008C180578401C6B075B0F01D10378401C4C
:1012A0002A1106D10278401C03E00678401C0E701B
:1012B000491C5B1EF9D12B0705D40023521E0DD407
:1012C0000B70491CFAE70378401CCB1A921C03E010
:1012D0001D780D70491C5B1C521EF9D5A142D8D354
:1012E000002070BD10B5024800F046FB10BD0000A4
:1012F000B801002010B50146406A826B50231A42A3
:101300000AD1816B01225202114381630168CA68CC
:101310001205920F05D020E0006B026B0846904743
:1013200010BD827E002A18D10A68120715D58A6876
:1013300053070122002B09DB4B680C24A3434B60AD
:10134000816B130299431143816306E0816B202373
:1013500019438163C16B1143C16300F0ABF910BD48
:1013600010B5406A816B402211438163C16B042236
:101370001143C16300F0FFFA10BD10B5406A00F0E0
:10138000F9FA10BDF8B50446002000902068816885
:101390008907890F012905D10168C90731D1C168C1
:1013A00009042ED48168184A10261140012500290D
:1013B0001AD1816829438160154814490068FEF7F5
:1013C0009CFF00E0401E00900028FBD100F0EAFFE7
:1013D000074611E000F0E6FFC01B02280CD9206888
:1013E0000068C043C00707D0A06B3043A063E06B28
:1013F0002843E0630120F8BD20680068C043C007AF
:10140000E8D10020F8BD00001700008040420F0026
:101410009401002010B5024800F054FD10BD0000FA
:10142000B404002010B50446006805494018142192
:10143000FEF763FF800020640248E06310BD0000F7
:10144000F8FFFDBF0000024030B5056C0124AC4040
:10145000C56B6C60046863604368102B036803D03D
:1014600099600068C26030BD9A600068C16030BD9C
:1014700010B5022000F0A4FE10BD10B5402000F011
:101480009FFE802000F09CFEFF20013000F098FEBF
:101490000120400200F094FE0120800200F090FE46
:1014A0000120C00200F08CFE0120000300F088FE45
:1014B0000120400300F084FE0120800300F080FE44
:1014C0000120C00300F07CFE10BD72B6FEE7F8B547
:1014D000054604462035287D0026012808D0012035
:1014E0002875206881688907890F012908D101E0E2
:1014F0000220F8BD0168C9073CD1C168090439D48C
:10150000A16BFF220132914302221143A163C16802
:101510008907890F0091C16889088900C160206826
:10152000816892071143816000F03CFF074612E09A
:1015300000F038FFC01B02280DD920688068002801
:1015400009DAA06B0221884310210843A063002020
:1015500028750120F8BD206880680028E8DB206835
:10156000C168009A1143C160A06B80088000401CD4
:10157000A06304E0A06B20210843A06301260020A3
:1015800028753046F8BD0000F8B500250446203423
:101590000095227D012A3BD00122227503689E68B6
:1015A000760776D43F4F4E68BE4254D09E6A0F787D
:1015B000BA4016439E620123C26A1B079A421FD09B
:1015C000012A1DD0022A1BD0032A19D0042A17D0C1
:1015D000052A15D0062A13D0072A11D002688B6875
:1015E00056697607760FB3420AD05369DB08DB00F1
:1015F0005361006842690B7A5B075B0F1A434261D3
:101600000868102806D0112804D0122802D045E01E
:101610000220F8BD244A9368102809D011280AD066
:1016200001200006034393600868102806D035E0C7
:101630000120C005F6E701208005F3E71C481B499F
:101640000068FEF75AFE0A21484300E0401E009061
:101650000028FBD122E0986A0E78B240904398624D
:101660000868102803D0112801D0122816D10E497D
:101670008A68102807D0112808D00120000682436C
:101680008A600BE005E00120C005F8E70120800535
:10169000F5E7816B2022114381630125002020752D
:1016A0002846F8BD011000000027014040420F000D
:1016B00094010020F0B5864D87B02C68854E641CDF
:1016C0002C6085493068884201DA401C30608348CC
:1016D000C089FFF7D3FC8249074608607F4821464E
:1016E0008388059303880493C3887E4A0393012566
:1016F000002440880290914258DD7B490598081AE1
:101700001E21FEF704FE5238FFF7B0FC774908604F
:1017100075490498081A1E21FEF7F9FDFFF703FB2F
:10172000734A744BFFF761F8FEF798FE7249052281
:10173000086072487349037809787148714B05292C
:1017400009D071498F4210DA316881420DDD6B4951
:101750001A700C7034606C498F4206DD316881422A
:1017600003DD706801285FD0756014210298FEF7D0
:10177000C4FD2D30FFF782FC644908605A49039884
:10178000081A2E21FEF7C3FD2C38FFF76FFC6049C5
:10179000604A08606049904200DA0C705F4A9042EB
:1017A00000DD0D705E480570494804604B480089B3
:1017B0000190FFF7C0FA5B4E5B4B3246FFF7BEFA73
:1017C00000225A4BFFF734F8FEF748FE5849074607
:1017D0000860424840890090FFF7ADFA3246524B0C
:1017E000FFF7ACFA0022514BFFF722F8FEF736FE66
:1017F00050490646086039488089FFF79CFA4E4AEE
:101800004E4BFFF79BFA0022484BFFF711F80022DE
:101810004B4BFFF793FAFEF721FE4A49086039481F
:101820000078042804D037E01C70346074609CE7B2
:101830002D48039A183844490A3A824201D30C7061
:1018400000E00D70029A41490A3A824201D30C70BD
:1018500000E00D7004993E4A0A39814201D31470A8
:1018600000E0157005993B4A0A39814201D3147092
:1018700000E015701C48009A2C3837491E3A824205
:1018800001D30C7000E00D700199344A1E39814279
:1018900001D3147000E01570314A32483249964243
:1018A00001DA8E4201DA057000E004702F48974299
:1018B00001DA8F4201DA057000E004702C480178EB
:1018C000002902D0047007B0F0BD0570FBE70000EE
:1018D0004400002004000020F82A000098010020A5
:1018E0005800002070170000FF0F0000400000208B
:1018F00014AE47E17A9446405000002024000020B6
:10190000102700001D00002000A03E4554000020CC
:101910004C0000209A99993F23000020000040408D
:101920003A000020CDCCCCCCCCCC164000FEAF4051
:10193000600000205C0000206666666666660A40FD
:10194000000014406400002032000020330000201A
:101950003400002035000020360000203700002031
:10196000CDCC4C3E2A0000209A9999402B000020B3
:101970002C0000207047704770B50446006801686D
:10198000490702D54168490705D40168090730D5E0
:10199000416809072DD5A16BC90604D4A16B0122AA
:1019A00052021143A163C1680C250905890F002962
:1019B0001AD1A17E002917D10168090714D58168C1
:1019C0004A070121002A08DB4268AA434260A06B53
:1019D0000A0290430843A06306E0A06B2022104354
:1019E000A063E06B0843E0632046FFF763FE2068D6
:1019F00005602068016809060DD5406800060AD513
:101A0000A06B012109040843A063204600F0D8F828
:101A100021688020086020680168C90613D54168E4
:101A2000C90610D5A16A1025012902D0C168C907CD
:101A300007D0E16B02221143E16305602046FFF706
:101A40009AFF2068056070BDF8B50026044600289E
:101A500005D0A06B25462035002802D007E00120E4
:101A6000F8BD0020E0632875204600F0ABF8A06BBD
:101A70001022C006002870DB2068816849076CD4FA
:101A8000A16B1301994302231943A163816889075C
:101A9000890F012905D10168C9070FD1C16809045F
:101AA0000CD4C16818239943A3681943C160206806
:101AB0000169636889008908194301612068C16868
:101AC0003D4B1940C160207E617E8003C9030843FD
:101AD000A17E4B031843A36A012B02D001231B03F1
:101AE00000E000231843E36818432369022B09D060
:101AF000002318432B79E57E5B0018430123012D59
:101B000002D00AE00423F4E7002927D0A16B2025A6
:101B10002943A163E16B1943E163E1690D46FF3D90
:101B2000C23D02D0256A294308432168CD68054398
:101B3000CD600125E16A2D07A94213D0012911D0FA
:101B400002290FD003290DD004290BD0052909D073
:101B5000062907D0072905D010E028E00121090453
:101B60000843DAE721684D69ED08ED004D61216811
:101B70004D69A78D7F077F0F3D434D612168C9687F
:101B80000E4D2940814207D10020E063A06B800800
:101B90008000401CA06308E0A06B02218843104332
:101BA000A063E06B1843E06301263046F8BDA06BEC
:101BB0001043A063F8E700001902FEFFE7FF3F8330
:101BC00070470000F0B587B0064614216846FEF75E
:101BD00092FB26493068884245D125498A694015DB
:101BE00002438A618A69024005924A6900020243FF
:101BF0004A614A69024005924A69800002434A618B
:101C00004969032401400591EF2000256A4631C24D
:101C100009206946C00600F0DFFA2027694615480A
:101C200000970295019400F0D7FA1348134C21C491
:101C30008020256060604000A060276180006561B1
:101C4000E0600E48083C00F08BF9002801D0FFF757
:101C50003CFC3463002211460C20666200F0EAFD71
:101C60000C2000F0DBFD07B0F0BD000000240140B7
:101C7000001002400008004808000240B4040020A0
:101C8000F7B5044600680025806840073DD4264625
:101C90002036307D01280AD001273775607E012863
:101CA00007D02046FFF76EFB050002D02EE0022091
:101CB000FEBDA06B16490840FF2101310843A06317
:101CC0000020E0633075216B12488862216B124856
:101CD000C862216B1148086321681C2008602068D5
:101CE00041681022114341602068C1683943C160D6
:101CF0002168206B4031029B019A00F05BF920685B
:101D0000816804221143816000E002252846FEBD5F
:101D1000FEF1FFFFF51200087B13000861130008B5
:101D20007047000070B54379012B13D00125457130
:101D30000223037106683468074B93409C430B6889
:101D400049680B439340234333600571002141717F
:101D5000084670BD022070BDFE0F0000704770B5D0
:101D600004460068016804258904002911DA416BE2
:101D700089040ED525712169012211432161510386
:101D80004163206801681203914301602046FFF718
:101D9000E5FF20680168890011D5416B89000ED5E7
:101DA00025712169022211432161110741632068D5
:101DB0000168D206914301602046FFF7B1FF70BD74
:101DC00070B5040004D020790025002802D005E079
:101DD000012070BD6571204600F008F802202071D6
:101DE000256101202071002070BD000010B586B073
:101DF000044614216846FEF77EFA1449206888429A
:101E000021D11348C26941040A43C261C2690A4030
:101E10000592426909130A434261406908400590EE
:101E200010200090032001900020029009206946B4
:101E3000C00600F0D1F900221146112000F0FAFC92
:101E4000112000F0EBFC06B010BD00000074004053
:101E50000010024018B5046800940068801800293A
:101E600004D0143000900360002018BD0830F9E75A
:101E700070B54279012A12D0012242710223037106
:101E80000468266815468D402E43266000290168A7
:101E900007D00C68A402240F0F2C0BD00DE00220F9
:101EA00070BD0B689B061B0F0F2B06D14B681343AD
:101EB0004B6002E04C681C434C6002710021417190
:101EC000084670BDF0B4C16B0D6801680C6804224F
:101ED000066C1346B3402B420DD063070BD50B683D
:101EE0009B0602D40B6893430B60016C8A40C16B64
:101EF0004A60C16A19E00227B74002462F40012319
:101F00002032002F15D0A70713D50C68A40604D4DF
:101F10000C680A25AC430C605370036C0221994095
:101F2000C36B596000211170816A002916D0F0BC82
:101F300008470827B7402F4210D024070ED50C6859
:101F40000E25AC430C60046C1946A140C46B616063
:101F50008363537000211170016BE6E7F0BC70479A
:101F600070B5040021D00221204620300546417082
:101F7000226811680E48A36801406068266918430A
:101F8000E3683343184363691843A3691843E3695B
:101F90001843084310602046FFF744FA0021A1636C
:101FA000012068702970084670BD012070BD0000D6
:101FB0000FC0FFFFF8B504468C462030017800259D
:101FC000012909D00126067041780027012905D092
:101FD000077002252846F8BD0220F8BD0221417095
:101FE000A7632068016849084900016061462046EE
:101FF000FFF72AFAE06A00282068016802D00E2262
:10200000114306E00A22114301602068016804229E
:10201000914301602068016831430160DAE7000004
:10202000F8B50446FF200130102C0ED04101C70145
:1020300005018600802C1CD084422AD101465B48D1
:1020400000F0A4F900281CD042E0594D1021284688
:1020500000F09CF9002806D01021284600F096F9DF
:10206000012802D09DE0642000E03C2003F028FA23
:1020700097E080214D4800F089F9002875D1802033
:102080001AE0FF20013002F0D3FE4A4803F026F99F
:102090001EE0022C09D08C421AD101214903434889
:1020A00000F074F900280BD023E002213F4800F033
:1020B0006DF9002875D1022002F0BAFE3D4862E0B9
:1020C0000120400302F0B4FE3A4803F007F910E0A3
:1020D0000120800384420CD10146344800F056F9B7
:1020E000002818D1204602F0A3FE334803F0F6F88A
:1020F00011E00120400284420DD1074601462B48E1
:1021000000F044F9002820D1384602F091FE2A4818
:1021100003F0E4F819E0402C08D0BC4215D1394650
:10212000224800F033F9002808D01FE04021204861
:1021300000F02CF9002834D1402021E0384602F08C
:1021400077FE1D4803F0CAF810E0AC420ED109201A
:102150002946C00600F01AF9002817D1284602F0D7
:1021600067FE154803F0BAF810E00EE0B4420DD156
:1021700009203146C00600F009F9002811D1304687
:1021800002F056FE0C4803F0A9F80AE00125ED0222
:10219000AC4206D109202946C00600F0F7F8002815
:1021A00002D006484461F8BD2846E9E7000400482B
:1021B00000080048B80B0000C409000000040140FA
:1021C00010B504494A69024202D04861FFF728FF6E
:1021D00010BD000000040140F8B5002303240125D0
:1021E000BFE02E469E40B44632407CD00E79B60702
:1021F000B60F012E01D0022E17D186682746B646AB
:102200005E00B74000967646BE43B646CF68009E55
:10221000B74076463743876046686746BE430F79C6
:10222000FF06FF0F9F40374347600E79F643B6071E
:102230000ED0C6682746B4465E00B646B74066462E
:10224000BE43B4468F687646B74066463743C7609C
:102250000E79B607B60F022E14D1DE08B600361876
:102260000096366A5F07B446FE0E0F27B646B740A3
:102270006646BE43B4460F697646B7406646374366
:10228000009E376206682746B4465E00B646B740F1
:102290006646BE430F79B446BF07BF0F7646B740C8
:1022A0006646374307604E68B603B60F58D0304FC6
:1022B000BE692E43BE61BE699F08F607F60F2D4E1C
:1022C000BF00BE190096B6680F27B4469E07360FAA
:1022D000B646B7406646BE430927FF06B446B84235
:1022E00002D1002715E03BE0234FB84201D101277E
:1022F0000FE0224FB84201D102270AE0204FB84236
:1023000001D1032705E01F4FB84201D1042700E0A7
:1023100005277646B74066463743009EB7601A4E9B
:1023200036684F689643FF0300D51643164F3E604C
:102330007E684F689643BF0300D51643124F7E60F8
:10234000BE684F689643FF0200D516430E4FBE602D
:10235000FE684F689643BF0200D516430A4AD6600E
:102360005B1C0A681646DE4000D03AE7F8BD000064
:10237000001002400000014000040048000800482E
:10238000000C0048001000480004014000690840AB
:1023900000D001207047002A01D08161704781621E
:1023A00070470000014880687047000088010020E5
:1023B00070B5024640325378202B1CD11378012B84
:1023C00019D00123137024245470046825689D4398
:1023D0002560046825681E03B543256004682568E8
:1023E0000D4325600068016819430160202050708A
:1023F0000020107070BD022070BD70B502464032E2
:102400005378202B1BD11378012B18D00124147082
:102410002423537003681D68A5431D6005682B685D
:102420000F263602B3430902194329600068016888
:1024300021430160202050700020107070BD0220E8
:1024400070BD000070B5040006D0254640356878A0
:102450000026002802D005E0012070BD2E70204625
:1024600000F05AF924206870206801684908490082
:1024700001600F21606809068843216808612168AE
:102480008A680120C00382438A60E1680129A1684B
:1024900008D021229202114322689160E16802294A
:1024A00002D005E00143F7E701212268C90251602B
:1024B00021684A680F4B1A434A602168CA68824300
:1024C000CA60616920690843A1690902084321685B
:1024D000C860216AE06908432168086020680168D3
:1024E0000122114301606664202068702663AE708B
:1024F000002070BD00800002FFB50546044640354F
:10250000687881B0202878D12878012875D00120FA
:102510002870FFF747FF0746012200901923D103D7
:10252000204601F0F9F900283CD1222068701020E3
:10253000A8700026666403986062049860856663EC
:10254000618D2F48FF2903D9FF22228500903BE0AF
:10255000618D218500903DE02046029901F0C8F987
:1025600016E001F001FA00281CD12068406A616A77
:102570000870606A401C6062208D401E81B2218517
:10258000608D401E6085608D002801D000290CD030
:10259000608D0A9900283A462046E2D101F024FADB
:1025A00000281CD0012005B0F0BD0097002280213A
:1025B00020460A9B01F0B0F90028F3D1608DFF2876
:1025C00005D9FF222285009601231B06C4E7608DF2
:1025D00020850096208D0123C2B25B06BCE72168EE
:1025E0002020C86121684A68064B1A404A6068701A
:1025F000AE702E700020D6E7FFE70220D3E7000080
:102600000024008000E800FEFFB505460446403582
:10261000687881B0202878D12878012875D00120E9
:102620002870FFF7BFFE0746012200901923D1034F
:10263000204601F071F900283CD12120687010205B
:10264000A8700026666403986062049860856663DB
:10265000618D2F48FF2903D9FF22228500903BE09E
:10266000618D218500903DE02046029901F040F9FE
:1026700016E001F0DFF900281CD1606A21680078BB
:102680008862606A401C6062608D401E6085208D9B
:10269000401E80B22085618D002901D000280CD019
:1026A000608D0A9900283A462046E2D101F09CF953
:1026B00000281CD0012005B0F0BD00970022802129
:1026C00020460A9B01F028F90028F3D1608DFF28ED
:1026D00005D9FF222285009601231B06C4E7608DE1
:1026E00020850096208D0123C2B25B06BCE72168DD
:1026F0002020C86121684A68064B1A404A60687009
:10270000AE702E700020D6E7FFE70220D3E700006E
:102710000020008000E800FE10B586B004461421B9
:102720006846FDF7E8FD1349206888421FD1124C26
:1027300061690120800401436161616901400320F6
:102740000591800200901220019000200290032049
:1027500003900120049069460848FFF73DFDE169B8
:10276000012080050143E161E1690140059106B066
:1027700010BD000000580040001002400004004856
:1027800002488168027889188160704788010020BA
:1027900010B506480168102211430160032000F0C3
:1027A00007F800F027F8002010BD000000200240CC
:1027B00070B504460D4D7D202978C000FDF79DFDC4
:1027C00001460B480068FDF798FD00F0AFFC0028BB
:1027D00009D1042C07D200222146401E00F02AF81D
:1027E00000206C6070BD012070BD000088010020D9
:1027F0009401002008B508488169012211438161D4
:10280000816911400091C26901040A43C261C06933
:102810000840009008BD000000100240002805DBC1
:10282000C106C90E012088400149086070470000B8
:1028300000E100E010B504F0FBFA10BDF8B50F465A
:1028400006005FD03D4D2868C007C00FB84209D2CE
:10285000286840084000384328602868C007C00F37
:10286000B8424FD13068364C81070CD5400704D5AB
:10287000606807210902084360606068F0218843AE
:10288000B168084360603078C0072CD070680128B8
:1028900010D0022811D0032812D0216889070029FE
:1028A00030DA61688908890001436160FFF77AFDC9
:1028B000009011E021688903F1E721688901EEE7C2
:1028C000616BC903EBE7FFF76DFD0099411A1D48E5
:1028D000814201D90320F8BD60680C21084071686D
:1028E00089008842EFD12868C007C00FB8420BD9D1
:1028F000286840084000384328602868C007C00F97
:10290000B84201D00120F8BD3078400706D5606894
:10291000072109028843F1680843606000F018F855
:102920006168094A0906090F515CC84007490860F7
:102930000320FFF73DFF0020F8BD0000002002400B
:102940000010024088130000DE750008940100208A
:1029500030B519A30FCB89B06C460FC41AA30FCBA7
:102960000FC41D4A51680C200B4603401B48042B22
:1029700005D01B4D082B04D00C2B00D1284609B0E4
:1029800030BD8B021B0F6C46E45CD26A04AB1207AD
:10299000120FC9039A5C890F022901D0032901D0C3
:1029A000002301E0002328460021FDF705FC214615
:1029B00004F018FAE3E7000002030405060708091B
:1029C0000A0B0C0D0E0F1010010203040506070878
:1029D000090A0B0C0D0E0F100010024000127A00B5
:1029E000006CDC02FEB5040070D02078F94EFA4D80
:1029F000C00748D068680007800F01281FD06868AA
:102A00000007800F022804D16868C003800F0228E5
:102A100015D06168012919D001208004002901D056
:102A2000052917D02968B1432960296881432960A5
:102A3000606800281BD0FFF7B5FC074613E0286844
:102A4000800320D560680028CED01CE02868304381
:102A50002860EDE7296801432960F7E7FFF7A2FC4A
:102A6000C01B642870D828688003F7D50BE0FFF7F7
:102A700099FC074604E0FFF795FCC01B6428F1D8D9
:102A800028688003F7D4207880073FD5686800075E
:102A9000800F14D068680007800F022804D168688E
:102AA000C003800F01280AD0E068002828681ED0E3
:102AB000012108432860FFF775FC07460CE02868F1
:102AC00080070CD5E068012800D108E080E1FFF71D
:102AD00069FCC01B0228C5D828688007F7D528687C
:102AE000F82188432169C900084328600EE04008A6
:102AF00040002860FFF756FC074604E0FFF752FC51
:102B0000C01B0228AED828688007F7D420780007B9
:102B100023D5E0690028686A0FD001210843686264
:102B2000FFF740FC074604E0FFF73CFCC01B02280F
:102B300098D8686A8007F7D50FE0400840006862BF
:102B4000FFF730FC074605E0C3E0FFF72BFCC01B96
:102B5000022887D8686A8007F7D4207804274007BE
:102B6000002861DA00200190E869C00008D4E96912
:102B7000B8060143E961E969014001200091019033
:102B800096480168C90511D4016882151143016096
:102B9000FFF708FC009005E0FFF704FC0099401ADD
:102BA000642898D88D480068C005F5D5A06801282C
:102BB0000AD0002801D0052811D0286A400840001A
:102BC0002862286AB84302E0286A01210843286283
:102BD000A068002812D0FFF7E5FB00900AE0286A01
:102BE00038432862F0E7FFF7DDFB0099411A7C4883
:102BF00081426ED8286A8007F5D50DE0FFF7D2FB39
:102C0000009006E0FFF7CEFB0099411A744881421C
:102C10005FD8286A8007F5D40198002804D0E969B4
:102C2000012000078143E9612078C00635D560693D
:102C300001280CD0401D686B24D038436863686B52
:102C4000400840006863FFF7ADFB074622E0686B71
:102C500038436863686B012108436863FFF7A2FB90
:102C6000074604E0FFF79EFBC01B022831D8686BC3
:102C70008007F7D5686BF8218843A169C90008432C
:102C800068630AE0B8436863F4E7FFF78BFBC01B97
:102C900002281ED8686B8007F7D42078800637D5C5
:102CA00068680007800F032814D068680007800F49
:102CB000022804D16868C003800F03280AD0206A64
:102CC0000028686B16D030436863FFF76BFB06463D
:102CD0000CE062E0686BC0031AD5206A012877D146
:102CE00016E0FFF75FFB801B022856D8686BC00315
:102CF000F7D50DE0B0436863FFF754FB064604E0E8
:102D0000FFF750FB801B022847D8686BC003F7D43D
:102D1000606A002866D069680907890F022942D0D5
:102D2000012636060228286805D0B0432860FFF740
:102D300039FB044633E0B0432860FFF733FB074616
:102D400004E0FFF72FFBC01B022826D8286880016B
:102D5000F7D4E86A216B000900010843E862A16A20
:102D6000E06A084369687B22D203914308436860A4
:102D7000286830432860FFF715FB044604E0FFF79E
:102D800011FB001B022808D828688001F7D529E02C
:102D9000FFF708FB001B022801D90320FEBD2868AD
:102DA0008001F5D41EE00128F8D06868E96A0322A2
:102DB000D203A36A02409A420AD10907226B090F83
:102DC000914205D10F2189040840E16A884209D067
:102DD0000120FEBD00000100001002400070004014
:102DE000881300000020F4E7F8B504000CD0606AF6
:102DF000002500280AD02561656126464036A56277
:102E0000707F002808D00BE00120F8BD6168C81F62
:102E1000FD38F2D0E561F0E73577204600F05CF848
:102E200002227277206801684023994301600723DA
:102E3000E1681B02994201D9002001E00120000352
:102E40000F273F02B94202D0994200D0A562FF236A
:102E50006168053319402127A368BF023B4019432D
:102E600023691340227D1943D207D20F1143012356
:102E7000A2695B021A401143E26938231A401143E8
:102E8000226A80231A401143A26A9B011A4011430F
:102E900022681160A1690422090C1140626A1023A2
:102EA0001A401143626B08231A4011430F23E26852
:102EB0001B021A40114301221203104001432068F3
:102EC00041602068C16952109143C16125660120AB
:102ED00070770020F8BD000010B586B004461421BC
:102EE0006846FDF708FA1149206888421BD110484E
:102EF000826981140A43826182690A4005924269AB
:102F000089010A43426140690840059038200090D9
:102F10000220002101900320029104910390694650
:102F20000448FFF759F906B010BD00000030014019
:102F30000010024000040048FFB5044683B00120A1
:102F400001900020254640350090287F0C9F1E46AA
:102F500001280FD001202877FFF724FA0290687F1C
:102F6000616801280DD0CA1FFD3A08D1A168002967
:102F700005D102E0022007B0F0BD042801D00220F4
:102F8000D1E00498002820D0059800281DD0002EFC
:102F90001BD0687F042801D00520687700202066B8
:102FA00005992164EE80AE800499A163E687A68727
:102FB000E064206507210120E268090200038A42DB
:102FC0002268536803D9834302E00120ABE0034346
:102FD000536020680268520603D4026840231A43F3
:102FE0000260E0688842606844D9002801D0012E60
:102FF00039D1A06B21680088C860A06B801CA063D9
:10300000E08F401EE0872EE020688168890710D598
:10301000E18F00290DD0019901290AD1A16B0988FE
:10302000C160A06B801CA063E08F401EE087002081
:10303000019020688168C9070DD0E98800290AD06D
:10304000C068216C0880206C801C2064E888401EC9
:10305000E88001200190FFF7A5F90299401AB842D3
:1030600001D3781C5ED1E08F0028CDD1E8880028FC
:10307000CAD146E0002801D0012E3CD1A06B2168C6
:1030800000780873A06B401CA063E08F401EE087AF
:1030900031E020688168890710D5E18F00290DD0C3
:1030A000019901290AD1A16B09780173A06B401C19
:1030B000A063E08F401EE0870020019020688168B7
:1030C000C9070DD0E98800290AD0007B216C08705F
:1030D000206C401C2064E888401EE880012001909C
:1030E000FFF760F90299401AB84202D3781C02D067
:1030F00018E0002F16D0E08F0028CAD1E8880028F9
:10310000C7D139462046029A03F096FB002803D027
:103110000120009020202066012068770020287779
:10312000009828E703200090F6E70000094910B551
:10313000401E884201D9012010BD074C6061032167
:10314000081F03F075FE0020A06107202061002009
:1031500010BD0000FFFFFF0000E000E07047704777
:10316000F0B502462032137F012B21D001251577BF
:103170000223537706687468B3687027BC430F68EE
:103180002743776000680B4CA04208D0AC07A042F0
:1031900005D0094CA04202D0084CA04204D18024A2
:1031A0004968A34319438160557700201077F0BD2B
:1031B0000220F0BD002C014000040040004001400E
:1031C00070B5040005D025462035687F002802D060
:1031D00006E0012070BD00202877204600F014F89A
:1031E00002206877211D206803F072FC0120403422
:1031F000A071A877E87720706070A070E0702071EF
:1032000060716877002070BD08B5374A016837489B
:10321000914205D18269C1140A438261806919E033
:103220000122920791420DD1C16901221143C1616E
:10323000C06910400022009011460F20FFF7FAFAF3
:103240000F201AE02A4A914207D1C26902210A439B
:10325000C261C0690840009008BD264A91420FD162
:10326000C26910210A43C261C0690022084000906F
:1032700011461120FFF7DEFA1120FFF7CFFA08BD43
:103280001D4A91420DD1C26920210A43C261C06921
:1032900000220840009011461220FFF7CBFA1220BE
:1032A000EBE7164A91420DD1C26989150A43C26102
:1032B000C06900220840009011461320FFF7BAFAB7
:1032C0001320DAE70E4A9142D9D18269012109041B
:1032D0000A43826180690022084000901146142050
:1032E000FFF7A8FA1420C8E7002C014000100240A4
:1032F0000004004000100040001400400020004086
:1033000000400140014620314A7F012A01D00120BE
:10331000704702224A7700680B4A0121904208D088
:103320008A07904205D0094A904202D0084A90424A
:1033300004D182685207520F062A02D002680A435B
:103340000260002070470000002C01400004004093
:1033500000400140014620314A7F012A01D001206E
:10336000704702224A770268D36801210B43D36079
:1033700000680B4A904208D08A07904205D0094A5B
:10338000904202D0084A904204D182685207520FFC
:10339000062A02D002680A4302600020704700003B
:1033A000002C014000040040004001400168CA6850
:1033B00052085200CA6001680A6A084B1A4207D1D3
:1033C0000A6A9B101A4203D10A68520852000A6026
:1033D00001212030417700207047000011110000CA
:1033E000F8B5054604462035287F0026012817D069
:1033F0000120287702206877226890687727FF23CA
:10340000B8431B02984390600868502838D00EDCFF
:1034100020284FD006DC00284CD010281ED149E0CF
:103420000220F8BD302845D0402817D13AE0602866
:103430002ED0702819D001221203801A0FD090428A
:103440000CD1CB684A688968206803F098FB206833
:103450008168012292031143816000E0012601206E
:103460006877002028773046F8BDCB684A688968BD
:10347000206803F084FB2168886838438860EEE7A1
:10348000CA684968206803F089FC5021206806E07A
:10349000CA684968206803F092FC6021206803F044
:1034A00079FBDCE7CA684968206803F077FC4021B3
:1034B0002068F4E7226801461046F0E7704770B5CF
:1034C0000446006801690025C9438907002915DB06
:1034D000C168C943890711D4E91E01610120207721
:1034E000206880698007204602D0FFF7E7FF04E0EC
:1034F00000F0BEF8204600F049F925772068016900
:10350000C943490717D4C168C943490713D40421E3
:10351000C943016102202077206880698005800FFF
:10352000204602D0FFF7CAFF04E000F0A1F82046D1
:1035300000F02CF9257720680169C943090716D4E2
:10354000C168C943090712D40821C9430161042095
:1035500020772068C0698007204602D0FFF7AEFFC1
:1035600004E000F085F8204600F010F92577206887
:103570000169C943C90617D4C168C943C90613D430
:103580001021C9430161082020772068C0698005A7
:10359000800F204602D0FFF791FF04E000F068F8AA
:1035A000204600F0F3F8257720680169C943C90770
:1035B00008D1C168C943C90704D1891E01612046E9
:1035C00000F03EF920680169C943090609D4C168C1
:1035D000C943090605D48021C94301612046FFF78C
:1035E000BDFD20680169C943490609D4C168C943C2
:1035F000490605D44021C9430161204600F021F964
:1036000020680169C943890609D4C168C94389068C
:1036100005D42021C94301612046FFF7A0FD70BDFC
:1036200010B586B0044614216846FCF764FE0D49C7
:103630002068884213D10C48426909130A43426149
:10364000406908400221059001910120002100906D
:1036500002910391049069460448FEF7BDFD06B04F
:1036600010BD0000000400400010024000040048AB
:103670007047F8B5064604462036307F00270D46D1
:1036800001280ED001203077002A0CD0042A1BD04C
:10369000082A2FD00C2A3ED0012700203077384648
:1036A000F8BD0220F8BD206803F07CFA206881692B
:1036B0000822114381612068826904218A43826162
:1036C000206881692A6912E0206803F0AFFA206857
:1036D00082690121C9020A4382612068816901224D
:1036E000920291438161206881692A691202114323
:1036F0008161D2E7206803F0D9FA2068C169082205
:103700001143C1612068C26904218A43C2612068F3
:10371000C1692A6912E0206803F00AFB2068C169C8
:103720000122D2021143C1612068C26901218902CC
:103730008A43C2612068C1692A6912021143C161CA
:10374000ABE770B5040005D025462035687F00281A
:1037500002D006E0012070BD00202877204600F04E
:1037600014F802206877211D206803F0B1F90120C8
:103770004034A071A877E87720706070A070E07086
:10378000207160716877002070BD7047704700003D
:1037900030B504460223203000290AD004290DD078
:1037A0002046403008290ED04278012A10D001204E
:1037B00030BD827F012AFAD183770AE0C27F012AD5
:1037C000F5D1C37705E00278012AF0D1037000E05B
:1037D00043700122206803F0C5F9144A2068144997
:1037E000904207D0884205D0124B984202D0124B2B
:1037F000984204D1436C0125ED032B4343642068B8
:103800000123904207D09A07904204D00B4A90427D
:1038100001D0884204D181684907490F062902D0A6
:10382000016819430160002030BD0000002C0140F8
:1038300000400140004401400048014000040040B5
:1038400070477047FEE701688A69D243920701D446
:1038500000228A6200688169C943C90703D081696F
:103860000122114381617047F7B5044600680F4695
:103870008169C943C90636D44168890104D44168C5
:1038800001229203114341600026254640352068FD
:103890008069C043800612D5781CF8D0FEF782FDFF
:1038A0000299401AB84201D8002FF0D1616C202053
:1038B000014361646870AE702E700120FEBD216806
:1038C0001020C86120682027C7612046FFF7BBFF92
:1038D00020684168054A11404160606C042108433A
:1038E00060646F70E7E70020FEBD000000E800FEA6
:1038F000F0B50668059C7568064F600D3843854332
:103900008805800D11040843184320430543756062
:10391000F0BD0000FF63FF03F8B51D4617460E46D5
:10392000044609E0681C07D0FEF73CFD0699401AE2
:10393000A8420BD8002D09D0206881693046884301
:103940000FD00020B842EDD00020F8BD616C2020DF
:1039500001436164403460700020A0702070012039
:10396000F8BD0120EEE70000F7B500272026054648
:103970000446403528E02046029A0199FFF774FF7B
:10398000002801D00120FEBD20688069C043800668
:1039900011D420688169C943490702D4218D0029C7
:1039A00017D1C661206841680E4A114041606764C2
:1039B0006E70AF7013E0FEF7F5FC0299411A0198A2
:1039C000814208D8002806D020688069C04340079B
:1039D000D1D40020FEBD606C304360646E702F70E7
:1039E000D0E7000000E800FE70B516460D4604461C
:1039F0000FE0324629462046FFF736FF002801D067
:103A0000012070BDFEF7CEFC801BA84208D8002D17
:103A100006D020688069C0438006EAD4002070BDCB
:103A2000616C202001436164403460700020A0700C
:103A30002070E5E770B516460D46044611E03246A3
:103A400029462046FFF710FF002801D0012070BD55
:103A5000681C06D0FEF7A6FC801BA84208D8002DE3
:103A600006D020688069C0438007E8D4002070BD7C
:103A7000616C202001436164403460700020A070BC
:103A80002070E3E73EB5002439480094019437499B
:103A9000029401608460012505614905C4604160AC
:103AA00004214161047644768576C4760902C461B6
:103AB0000162014620310D718462FDF7C5FF0028C7
:103AC00001D072B6FEE701200003009401900724A4
:103AD000694627480294FDF757FD002801D072B6C9
:103AE000FEE7694622480095FDF74EFD002801D00B
:103AF00072B6FEE70220009069461D48FDF744FDBE
:103B0000002801D072B6FEE70320009069461848ED
:103B1000FDF73AFD002801D072B6FEE705200090BF
:103B200069461348FDF730FD002801D072B6FEE764
:103B30000620009069460E48FDF726FD002801D0BA
:103B400072B6FEE769460A480094FDF71DFD00289D
:103B500001D072B6FEE70F20009069460448FDF7D9
:103B600013FD002801D072B6FEE73EBD00240140DF
:103B7000B801002008B5084841690122114341619C
:103B8000406910400022009011460920FEF752FEC5
:103B90000920FEF743FE08BD00100240F0B587B0D3
:103BA00014216846FCF7A7FB4C48426901218905AE
:103BB0000A43426142690A400592426949110A4337
:103BC000426142690A400592426989000A434261A2
:103BD00042690A400592426949100A4342614269BA
:103BE0000A400592426989000A4342614069002205
:103BF00008400321059009023948FEF7CCFB8321D8
:103C0000092000220902C006FEF7C5FB002204219C
:103C10003448FEF7C0FB002240213348FEF7BBFBCF
:103C20001020002400900194694602942C48FEF76D
:103C3000D3FA2E48212636040125009069460196C4
:103C400002952948FEF7C8FA40276946244800979C
:103C500001960295FEF7C0FA03200002009002943C
:103C60006946019503941E48FEF7B6FA83200002C8
:103C7000009009200294694601950394C006FEF75E
:103C8000ABFA072080020090092069460196029550
:103C9000C006FEF7A1FA042000900294694601953F
:103CA00003941048FEF798FA029469460E4800976C
:103CB00001950394FEF790FA002211460520FEF7C5
:103CC000B9FD0520FEF7AAFD002211460720FEF7E8
:103CD000B1FD0720FEF7A2FD07B0F0BD00100240C5
:103CE00000080048000C00480004004882E300007F
:103CF00010B51348114901601249416000218160EB
:103D00000161416181610122C161C2600162FEF70E
:103D100099FB002801D072B6FEE700210848FEF7A3
:103D200047FB002801D072B6FEE700210448FEF7E9
:103D300064FB002801D072B6FEE710BD00580040B9
:103D40000C020020280C200010B511480F4901601A
:103D5000FF21053141600021072212028160C2600B
:103D6000016101224261520282611022C2618022FD
:103D700041620262816207220163C2624163FFF70E
:103D800033F8002801D072B6FEE710BD00300140C4
:103D90005802002010B586B0002400941748019402
:103DA00002940394049414490594016014498460B6
:103DB000416004614461C9108461C160FFF700FA89
:103DC000002801D072B6FEE701200003009069468A
:103DD0000A48FFF705FB002801D072B6FEE70494FD
:103DE00004A906480594FFF7BBF9002801D072B674
:103DF000FEE706B010BD0000004001406C0400204A
:103E0000BF5D000010B586B00024009417480194EF
:103E10000294039404941449059401601449846045
:103E200041600461446163218461C160FFF7C8F9A6
:103E3000002801D072B6FEE7012000030090694619
:103E40000A48FFF7CDFA002801D072B6FEE720201D
:103E500004A911C105480839FFF782F9002801D0EB
:103E600072B6FEE706B010BD002C0140BC02002077
:103E70005F09000010B586B00024009401211648A7
:103E800001940294039404948907059401601349F2
:103E900084604160046112498461C160FFF790F958
:103EA000002801D072B6FEE70120000300906946A9
:103EB0000948FFF795FA002801D072B6FEE704948E
:103EC00004A905480594FFF74BF9002801D072B604
:103ED000FEE706B010BD000004030020BF5D000037
:103EE0003FD10C0010B58EB00024079408940994BB
:103EF0000A940B941C2168460C94FCF7FCF92048AA
:103F00001E490160EF218460416004616321846186
:103F1000C160FFF755F9002801D072B6FEE7012015
:103F20000003079007A91648FFF75AFA002801D0A6
:103F300072B6FEE71248FFF704FC002801D072B603
:103F4000FEE70B940BA90E480C94FFF709F9002823
:103F500001D072B6FEE7602000900194029408221E
:103F6000694604940648FFF784FB002801D072B626
:103F7000FEE70348FFF754FB0EB010BD00040040FD
:103F80004C030020FEE7704710B50648FDF79FFA86
:103F9000082205490348FDF773FE0448FFF7B2F90C
:103FA00010BD0000B801002098010020BC020020D4
:103FB000F7B5B0B03098801AFDF758F81790542232
:103FC0002C491BA8FCF7C0F82A49542254316846F2
:103FD000FCF7BAF800241499179803F055F90099E2
:103FE000179803F0D3F900D2642400256F46AE0081
:103FF000B959179803F048F907D8F1191798496883
:1040000003F0C4F901D21BA884596D1C142DEEDBFA
:1040100031993098401A032807DB81004018322874
:1040200000DD322024180A3C16E0012814DAFCF7DF
:104030007AFE02F027FF012300229B07FCF7D5FB45
:1040400000220D4BFCF77AFEFCF716FE4021C94317
:10405000884200DA08462418642C01DD642402E05A
:10406000002C00DA0024204600F0F7F8034908701D
:1040700033B0F0BDB47400080000144020000020EC
:1040800010B5032002F06CFB0009092809D00320B9
:1040900002F066FB0107090F90200143032002F0A4
:1040A0008DFB10BDF8B54C497F24474AE405474DC8
:1040B000474E484F0968030002F0ACFE150C1A2069
:1040C000252A2F34383E44494E53585D62676C723E
:1040D000787F11004148814202DAFFF7D1FFF8BD35
:1040E0003F4867E000F098F8F8BD00F0A7F8F8BD89
:1040F0003B488142F1DB9142F7DBF3E79142ECDB95
:10410000A142F2DBEEE7A142E7DDA942EDDBE9E700
:10411000A942E2DBB142E8DDE4E7B142DDDDB942CC
:10412000E3DBDFE7B942D8DB2E484AE02D48814285
:10413000D3DD012080073DE0012080078142CCDDF6
:10414000294837E028488142C7DB284832E0274821
:104150008142C2DB264834E025488142BDDD254846
:104160002FE024488142B8DD234823E022488142E1
:10417000B3DD22481EE021488142AEDB204819E031
:104180001F488142A9DB1F481BE01E488142A4DD75
:104190001D4816E01C4881429FDD8120C00509E0D2
:1041A0008120C005814298DB18480AE01748814207
:1041B00093DD1748814298DB94E7154881428CDBF8
:1041C0001448814291DD8DE7CDCC4C3F9A99993FBF
:1041D0003333B33FCDCCCC3F5C000020CDCCCC3EC4
:1041E0009A99193F6666E63FCDCC0C409A991940E2
:1041F000666626403333334000004040CDCC4C400F
:104200009A995940666666403333734066668640C5
:10421000CDCC8C403333934010B5032002F0A0FA8C
:104220000009062809D0032002F09AFA0107090FB5
:1042300060200143032002F0C1FA10BD10B5032035
:1042400002F08EFA0109052906D00107090F502056
:104250000143032002F0B2FA10BD002828D005283F
:1042600027D00A2827D00F2827D0142827D019288C
:1042700027D01E2827D0232827D0282827D02D282C
:1042800027D0322827D0372827D03C2827D04128CC
:1042900027D0462827D04B2827D0502827D055286C
:1042A00027D05A2827D05F2827D0642800D114208F
:1042B0007047012070470220704703207047042098
:1042C0007047052070470620704707207047082078
:1042D0007047092070470A2070470B2070470C2058
:1042E00070470D2070470E2070470F207047102038
:1042F000704711207047122070471320704700004C
:1043000010B509487D220168D2003239016091421E
:1043100002DB9200914200DD026000220368114638
:104320000248FDF797FD10BD00000020F8010020B5
:1043300070B501463548364D0078364C002821D0FE
:104340003548007802281DD0002851D005284FD0CC
:104350008121C905286803F045F8FCF713FE2F4AB0
:104360002F4BFCF7EBFC00222E4BFCF731FAFCF74D
:1043700075F805462068FCF779FE294602F084FFAF
:104380003BD217E0084602F06FFE28600B0002F0F7
:1043900041FD0906090C14181B1F2226080000F015
:1043A0005DF870BD2048216802E01F482168FA309E
:1043B000814218DA00F070F870BD19208001216880
:1043C000F6E71A482168F3E718482168FA30EFE762
:1043D00017482168ECE716482168FA30E8E77D20A5
:1043E00040012168E4E78142E6DDFFF789FF70BD07
:1043F00000F034F80020286070BD2068FCF736FE1D
:10440000294602F0C3FFF0D370BD00002700002052
:1044100048000020000000201D0000203D0AD7A316
:1044200070856F40003091404C0400003A07000056
:104430002E09000010B50020064C014620600648F9
:10444000FDF716FD0022114603482368FDF702FD23
:1044500010BD000000000020F801002010B50B483E
:104460000168002901DD323901600A4608498A42A3
:1044700001DD016003E0002A01DA0021F9E70022F2
:10448000036811460348FDF7E5FC10BD000000205D
:10449000B80B0000F801002010B509487D22016822
:1044A000D20014310160914202DB9200914200DDA2
:1044B00002600022036811460248FDF7CBFC10BDE4
:1044C00000000020F8010020F0B5DC4889B0076842
:1044D000DB48DE4900680290DA4800680190DA485B
:1044E00000680690212040068F4201DAD84F02E092
:1044F000874200DDD74F0299384602F073FFD64954
:10450000D64D0590884201DD41202870D449059898
:10451000884201D942202870D2480126007801281B
:1045200029D12878D04C412802D0422813D022E04B
:104530003846019902F056FF03218907884218D2B4
:10454000CA49884215DACA49884214DCFF21C905E4
:10455000C84208D30FE03846019902F043FF012119
:10456000C905884201DA267005E0012189078842E1
:1045700001DB00202070BF480078012832D1287864
:10458000BD4C412802D0422822D02BE03846019968
:1045900002F028FFB949884201D3032021E001211C
:1045A00089074318CA11934238D98122D2050223C0
:1045B000D04203D8884201DC237013E0B0490B22BB
:1045C00041185205914229D9A8498842F4DA09E0F4
:1045D0003846019902F006FF03218907884215D366
:1045E000002020700198FCF7F7FC03900298FCF77C
:1045F000F3FC04463846FCF7EFFC2146039AFFF72C
:10460000D7FCA048007801280FD00EE18121C90510
:10461000C84205D89A494942884201DC2670E1E740
:104620008121C9058842B8DADCE78A48002487423C
:1046300002D08748874202D18324E405AEE028787F
:10464000412802D042285BD0A8E08F4906988842D2
:1046500019DB3846019902F0C5FE7F21C905884261
:1046600003DA8121C905C8420AD302F003FCFCF732
:1046700089FC864A864BFCF761FB0022854B86E06D
:104680008124E4058AE08449401884498842F7D2AD
:104690003846019902F0A6FE079002F0EBFB7F215D
:1046A000C9057F4F7F4C884228DD079802F0E2FB66
:1046B000FCF768FC754A764BFCF740FB0022754B13
:1046C000FCF786F8049005910698FCF75BFC002245
:1046D0003B46FCF7ADF82246734BFCF786F80F46D5
:1046E0000446059B049A02F023FD02D22046394677
:1046F00001E00798B9E7FBF7B1FE4EE06B4C4DE0E7
:104700005E490598884211D8534988420EDA3846E6
:10471000019902F067FE02F0ADFBFCF733FC5B4A47
:104720005B4BFCF70BFB0022614B30E0614940180A
:104730006149884204D83846019902F053FE94E753
:104740005E49059840185E4988420ED8384601995E
:1047500002F048FE02F08EFBFCF714FC4B4A4C4B77
:10476000FCF7ECFA0022574B11E0574905988842B4
:1047700010D93846019902F035FE02F07BFBFCF7B8
:1047800001FC424A424BFCF7D9FA0022324BFCF7BB
:104790001FF8B0E7A868FCF769FC04462046FCF760
:1047A0001BFCA860494D21462868009002F01AFEC3
:1047B0003C4F7F21C9057F42884205DD0098FCF708
:1047C000E1FB3A46424B08E03F210906884209DDF9
:1047D0000098FCF7D7FB2D4A2D4BFCF706F8FBF7AA
:1047E0003DFE286028682146044602F0FBFD812139
:1047F000C905C84205D92046FCF7C4FB3A46344BEC
:104800000AE0BF210906884201D8286809E020464D
:10481000FCF7B8FB1D4A1E4BFBF7DAFFFBF71EFE49
:10482000286002F051FC2B4908702B4800780128C1
:1048300001D12A48067009B0F0BD00003C000020FC
:104840004000002050000020540000200000604183
:104850000000C6C20000C642000020400C0000203C
:10486000000020C0250000201E0000200000C841DC
:104870000000A041260000201F0000200000A0C072
:104880000000C0BF27000020000082429A99999939
:104890009999D93F00001840FFFFF3BDFFFF750055
:1048A00000000E4033333333333315400000A04053
:1048B00000001440FFFF3F3FFFFF5F00FFFFCF3EC0
:1048C000FFFF6F0000001C400000A8C1480000204E
:1048D000CCCCEC3F2100002028000020220000204A
:1048E0001CB56D4D6D4E6E4F6E4C2078012809D170
:1048F000FDF758FD6C490968401A6C49884201D996
:10490000002020706A4C207805282FD1002000F06C
:1049100091FD002000F0D4FD0020FFF709FD28786C
:1049200000F044FD002204216248FDF734FDFF2120
:10493000092000220131C006FDF72DFD01210022D2
:1049400049025D48FDF727FDFF21002201315A4849
:10495000FDF721FD0121092000224902C006FDF7D3
:104960001AFD00F097FC307801F044FE2078002812
:1049700021D1002204214F48FDF70DFDFF21092020
:1049800000220131C006FDF706FD01210022490287
:104990004948FDF700FD00F07DFC01F029F90020F9
:1049A000FFF7C6FC287800F001FD307801F022FE08
:1049B0003878FFF777FB207801281BD13F48416802
:1049C000142905DBFFF780FD3C490020486002E028
:1049D0003A48491C41603878FFF764FB287800F0BA
:1049E000E5FC307801F006FE35480078FFF7A0FCC2
:1049F00001F068FD207803281AD1304840681E284D
:104A000004DBFFF761FD00202C4901E02B49401C2D
:104A100048603878FFF746FB287800F0C7FC30780C
:104A200001F0E8FD26480078FFF782FC01F04AFD1E
:104A30002078022820D13878FFF734FB287800F05E
:104A4000B5FC307801F0D6FD1D480078FFF770FC0A
:104A50001C480068FCF7C0FA01901B480068FCF78E
:104A6000BBFA009019480068FCF7B6FA019A009961
:104A7000FFF79EFA01F026FD2078042800D033E7E6
:104A800000F038FF3878FFF70DFB287800F08EFC37
:104A9000307801F0AFFD27E71E0000201F00002046
:104AA00020000020240000206C00002040D10C00D9
:104AB0001D000020000C0048000800480C000020E9
:104AC0002100002050000020400000203C00002079
:104AD00010B5134C05202070FFF756FA01F01CF8B2
:104AE00001F098FEFFF7A6FC012109208902C0060B
:104AF000FDF74CFC002811D1012189030948FDF77D
:104B000045FC00280AD104202070012000F092FC0E
:104B1000054800F0E3FB002000F08CFC10BD000015
:104B20001D0000200004004880969800FEB59848BB
:104B30009B4A076897480168974800680090974823
:104B4000056821204006974201DA964F02E087422D
:104B500000DD954F384602F045FCFF217F24C90552
:104B6000E405C842914E0190009938460AD202F0FD
:104B700039FC8121C905C84202D28D49884205DB32
:104B8000002004E002F02EFCA042F9DA012030708F
:104B900088480078012876D183480026874202D0D1
:104BA0008048874202D18326F605A3E08248007838
:104BB000412802D0422850D09CE080488126F6054A
:104BC000854213DB3846009902F00CFCA04202DA61
:104BD0003146C84240D302F04DF9FCF7D3F9784A88
:104BE000784BFCF7ABF80022774B7EE077487849AA
:104BF000281888427ED23846009902F0F3FB0090D4
:104C000002F038F9734FA04225DD009802F032F926
:104C1000FCF7B8F96A4A6B4BFCF790F800226A4B34
:104C2000FBF7D6FD064628460191FCF7ABF90022BA
:104C30003B46FBF7FDFD684A684BFBF7D6FD0F4688
:104C400005463246019B02F073FA02D228463946E5
:104C50004DE00098BFE7624E4CE062490198624D1A
:104C6000884211D8A8420FDA3846009902F0BAFB00
:104C700002F000F9FCF786F9514A524BFCF75EF856
:104C800000225A4B31E081E05649C9434018584947
:104C9000884204D83846009902F0A4FB9BE7554AA5
:104CA0000198801888420ED83846009902F09AFB85
:104CB00002F0E0F8FCF766F9414A424BFCF73EF897
:104CC00000224D4B11E04D490198884212D93846D7
:104CD000009902F087FB02F0CDF8FCF753F9384A4F
:104CE000384BFCF72BF800222B46FBF771FDFBF746
:104CF000B5FB06463046FCF76FF92F49404D8860FA
:104D000028683146009002F06DFB334F7F42A0428D
:104D100005DD0098FCF736F93A463A4B08E03F21AA
:104D20000906884209DD0098FCF72CF9244A254B36
:104D3000FBF75BFDFBF792FB2860286831460446D1
:104D400002F050FB8121C905C84205D92046FCF775
:104D500019F93A462B4B0AE0BF210906884201D8CF
:104D6000286809E02046FCF70DF9154A154BFBF7BA
:104D70002FFDFBF773FB286002F0A6F922490870AB
:104D800022480078012801D121490870FEBD0000A9
:104D90003C00002040000020500000205400002073
:104DA000000060410000C6C20000C6421E00002094
:104DB0000000B441270000200C00002000008242C7
:104DC0009A9999999999D93F00001840FFFFF3BD2E
:104DD000FFFF750000000E4033333333333315408B
:104DE0000000A0400000A0C00000204000001440CF
:104DF000FFFF7F00FFFFDF3E00001C400000A0C15E
:104E000048000020CCCCEC3F2100002028000020EE
:104E100022000020044A1178002903D0052901D07E
:104E2000024B1970107070471D0000201C000020FC
:104E3000F8B504460122FA4892030426F74B5111B3
:104E400000780025012794420CD1042823D005289E
:104E500006D0002802D00020FFF7DCFFF1480570E3
:104E6000F148ADE18C4216D1F04903280F70F049AA
:104E70000F70F0490F70EC491F700F7058D8012067
:104E8000FFF7C8FFEC48C068002851D1FFF74EFE7D
:104E9000E948C7604CE0E949402C0A780ED001216E
:104EA00089028C4244D1E0491D700F70E44903002F
:104EB000097801F0AFFF04262B39397CDA49082440
:104EC0000F70030001F0A6FF04030F090F0E01F09D
:104ED0002FFCD349022008700AE01046FFF79AFF22
:104EE00001F04AFBF8BD01F023FC0220FFF792FF1E
:104EF000D3480770D3480470D3480570D348067070
:104F0000F8BD1046FFF786FFCD480BE0CC480129DD
:104F100004D007700320FFF77DFF48E00570F9E734
:104F2000057044E0077042E0C5480129FAD1F7E76F
:104F30000120C00384423AD1BC480570BA480770CA
:104F4000B7480078030001F065FF0511061111163E
:104F5000A9000770A2E0BC480178002904D00570C0
:104F60000320FFF757FF99E00770F9E7B64801788B
:104F70000029EED019E0B648007800280CD0B548DA
:104F800001780029E5D0012908D0022908D0032999
:104F900009D0042909D081E0AF48F1E7022100E0FF
:104FA000032101707AE0067078E0057076E0012058
:104FB0000003844272D19E4A9B481570077098483E
:104FC0000078030001F026FF04031D3651E19F48DD
:104FD0000178002908D0012908D0022908D0032926
:104FE00009D0042909D009E0077007E0022100E098
:104FF0000321017002E0067000E005701570894819
:1050000040E092480178002908D0012908D00229FF
:1050100008D0032909D0042909D009E0077007E066
:10502000022100E00321017002E0067000E005703B
:10503000157016E085480178002908D0012908D0AC
:10504000022908D0032909D0042909D009E00770F2
:1050500007E0022100E00321017002E0067000E099
:1050600005700320FFF7D6FE8FE07848017800290D
:1050700008D0012908D0022908D0032909D0042921
:105080000AD082E0077080E0022100E00321017075
:105090007BE0067079E001E0057076E0022C0ED02E
:1050A00001204003844270D15F4807705C4800785B
:1050B000030001F0AFFE053C434D545D74005A48B7
:1050C000077057480078030001F0A4FE05050C1690
:1050D0001E25040014E75B48077058480078FFF766
:1050E00099FEF8BD57490878082801D2401C08707D
:1050F0000320FFF78FFE05E052490878082801D207
:10510000401C08704B485BE04E4801780829F9D2F2
:10511000491C0170F6E74E480178002903D005705C
:1051200000F032F9F8BD077000F0DEF8F8BD454830
:10513000077042480078FFF76DFE30E04148017883
:10514000012901D9491E01700320FFF763FE0CE01D
:105150003C490878012808D9401E087005E0394804
:105160000178012901D9491E01703248057016E005
:1051700037480178002903D0057000F005F90EE0EA
:10518000077000F0B1F80AE0FFE73F217F2209062F
:10519000D205324E802C21D0E01FF93812D00120E8
:1051A000C0028442C2D120482D4C07701C480178AF
:1051B0002C480329BAD80178002966D00129B5D135
:1051C0000570F8BD1648284C0078284D284F03007C
:1051D00001F020FE040356565603F2E71048254C12
:1051E0000078254D254F030001F014FE04030B0B3E
:1051F0000B03E6E702F002F80AE0B842E1DA1146F2
:10520000F8E730680319AB42F7D2F3E702F0EAF8A7
:105210003060F8BDB842FCDD1146F7E728000020F9
:105220001D0000202D0000202E0000202500002061
:1052300026000020270000200C0000201C00002079
:1052400022000020210000201E0000201F0000205E
:105250002F00002031000020300000203C00002002
:105260006C00002024000020FFFF57BEFFFF270036
:1052700000005841FFFF5FBEFFFF2F000000024209
:1052800030680319AB42C5D8C0E70770FDF78AF84C
:105290002060F8BD10B5432001F062FACF21014033
:1052A000432001F08BFA10BD10B50A4800780128A0
:1052B0000CD109480078002808D0432001F050FAAA
:1052C00020210143432001F079FA10BDFFF7E2FFEE
:1052D00010BD0000230000201D000020002100E080
:1052E000491C8142FCDB7047F8B521480078012851
:1052F0003AD14120C00000F025FE1E4C00250120BF
:10530000FEF7D0FE042001F075F96D1CA542F6DB16
:10531000194F3868FBF760FE009018480068FBF7EB
:105320005BFE064600251320FEF7BCFE002001F0C0
:1053300061F96D1CA542F6DB3868FBF74DFE0446AB
:105340000E480068FBF748FE014600980022241A28
:105350000B480123012C01DD027000E00370891B62
:105360000848012901DD0270F8BD0370F8BD000096
:105370002F000020102700005C00002060000020AB
:105380003800002039000020704710B5432001F09C
:10539000E7F90107090F092906D0010909010920C8
:1053A0000143432001F00AFA10BD000070B5FF244C
:1053B0000134084D002809D0012806D100F00CF86E
:1053C000012221462846FCF7E6FF70BDFFF7DDFF0E
:1053D0000022F6E70008004810B5432001F0C0F9AC
:1053E0000107090F062906D001090901062001431A
:1053F000432001F0E3F910BD70B5FF240925013405
:10540000ED0600280CD0012809D1FFF74DFF084810
:1054100000F0F0FE012221462846FCF7BCFF70BDDB
:10542000034800F0D1FEFFF735FF0022F3E700004C
:10543000627500087CB50A25002812D001280FD11A
:10544000002410A00068019068460471022301AA9C
:105450007F210D480095FDF7D7F8641C082CF0DD7E
:105460007CBD00242646684601960471022301AAE9
:105470007F2105480095FDF7C7F8641C082CF2DD74
:105480007CBD000000FF00000C02002010B50948A0
:10549000094C00780128094807D000F095FE002249
:1054A00004212046FCF777FF10BD00F0A3FE012287
:1054B000F6E700001D000020000C00485C750008A5
:1054C00001490968C86370474C03002010B5030008
:1054D00001F0A0FC09062E6E9ACAFEFDFCFBFA0044
:1054E000FC4800F071FEFB48801C00F06DFEF9489E
:1054F000001D00F069FEF748801D00F065FEF548CC
:10550000083000F061FEF3480A3000F05DFEF1481B
:105510000C3000F059FEEF480E3000F055FEED481B
:10552000103000F051FEEB48123000F04DFE26E046
:10553000E84800F05FFEE748801C00F05BFEE548AD
:10554000001D00F041FEE348801D00F03DFEE148F3
:10555000083000F039FEDF480A3000F035FEDD4843
:105560000C3000F031FEDB480E3000F02DFED94843
:10557000103000F029FED748123000F03BFED5482D
:10558000143000F021FED348163000F01DFED14843
:10559000183000F019FECF481A3000F015FECD4843
:1055A0001C3000F011FECB481E3000F00DFE48E12B
:1055B000C84800F01FFEC748801C00F01BFEC5480D
:1055C000001D00F017FEC348801D00F0FDFDC1481E
:1055D000083000F0F9FDBF480A3000F0F5FDBD4885
:1055E0000C3000F0F1FDBB480E3000F0EDFDB94885
:1055F000103000F0E9FDB748123000F0FBFDB5486F
:10560000143000F0F7FDBEE7B24800F0F3FDB148FA
:10561000801C00F0EFFDAF48001D00F0EBFDAD4831
:10562000801D00F0E7FDAB48083000F0CDFDA94833
:105630000A3000F0C9FDA7480C3000F0C5FDA548B0
:105640000E3000F0C1FDA348103000F0BDFDA148B0
:10565000123000F0CFFD9F48143000F0CBFD9D4884
:10566000163000F0C7FD92E79A4800F0C3FD994854
:10567000801C00F0BFFD9748001D00F0BBFD954861
:10568000801D00F0B7FD9348083000F0B3FD91484D
:105690000A3000F099FD8F480C3000F095FD8D48E0
:1056A0000E3000F091FD8B48103000F08DFD8948E0
:1056B000123000F09FFD8748143000F09BFD8548B4
:1056C000163000F097FD04E0BFE0BFE07AE03DE077
:1056D00004E08048183000F08DFD5CE77D4800F064
:1056E00089FD7C48801C00F085FD7A48001D00F093
:1056F00081FD7848801D00F07DFD7648083000F07F
:1057000079FD74480A3000F075FD72480C3000F0E5
:105710005BFD70480E3000F057FD6E48103000F011
:1057200053FD6C48123000F065FD6A48143000F0FB
:1057300061FD6848163000F05DFD6648183000F0E5
:1057400059FD64481A3000F055FD28E7614800F023
:1057500051FD6048801C00F04DFD5E48001D00F0CA
:1057600049FD5C48801D00F045FD5A48083000F0B6
:1057700041FD58480A3000F03DFD56480C3000F01D
:1057800039FD54480E3000F01FFD5248103000F033
:105790001BFD5048123000F02DFD4E48143000F033
:1057A00029FD4C48163000F025FD4A48183000F01D
:1057B00021FD48481A3000F01DFD46481C3000F01D
:1057C00019FDF0E6434800F015FD4248801C00F04A
:1057D00011FD4048001D00F00DFD3E48801D00F009
:1057E00009FD3C48083000F005FD3A480A3000F059
:1057F00001FD38480C3000F0FDFC36480E3000F05A
:10580000F9FC3448103000F0DFFC3248123000F070
:10581000F1FC3048143000F0EDFC2E48163000F05A
:10582000E9FC2C48183000F0E5FC2A481A3000F05A
:10583000E1FC28481C3000F0DDFC26481E3000F05A
:10584000D9FC2448203000F0BFFC10BD214800F0F6
:10585000D1FC2048801C00F0CDFC1E48001D00F04B
:10586000C9FC1C48801D00F0C5FC1A48083000F037
:10587000C1FC18480A3000F0BDFC16480C3000F09E
:10588000B9FC14480E3000F0B5FC1248103000F09E
:10589000B1FC1048123000F0ADFC0E48143000F09E
:1058A000A9FC0C48163000F0A5FC0A48183000F09E
:1058B000A1FC08481A3000F09DFC06481C3000F09E
:1058C00099FC04481E3000F095FC0248203000F09E
:1058D00091FC10BD6C7500081CB5694608710A2062
:1058E0000090012301AA7F210148FCF78DFE1CBD19
:1058F0000C020020F8B510217848FCF747FD7849E4
:10590000012808D064200968C863764E764C307848
:10591000002802D06BE03C20F5E7744D2878002881
:1059200003D1FF20FF3000F00DFB2878012810D1B3
:105930006F48704F007801280FD00020FFF77AFDE4
:105940002068FFF7CBFC384600F0FCFA2068FFF730
:10595000C5FC2878022804D015E0384600F0F2FA99
:10596000F7E76548012700787F0201280FD0002063
:10597000FFF760FD2068FFF7B1FC384600F0E2FA5F
:105980002068FFF7ABFC2878032804D015E03846E0
:1059900000F0D8FAF7E75948564F0078BF1C0128A5
:1059A0000FD00020FFF746FD2068FFF797FC384630
:1059B00000F0C8FA2068FFF791FC2878042804D08A
:1059C00015E0384600F0BEFAF7E74D48494D00783B
:1059D000ED1C012813D00020FFF72CFD2068FFF7F5
:1059E0007DFC284600F0AEFA2068FFF777FC30789F
:1059F00001286AD1434D2878002804D007E02846C2
:105A000000F0A0FAF3E74120C00000F09BFA2878EC
:105A1000012811D13C48374E00780A3601280FD0B2
:105A20000020FFF707FD2068FFF758FC304600F024
:105A300089FA2068FFF752FC2878022804D015E084
:105A4000304600F07FFAF7E730482A4E00780B36F0
:105A500001280FD00020FFF7EDFC2068FFF73EFC87
:105A6000304600F06FFA2068FFF738FC28780328EA
:105A700004D015E0304600F065FAF7E724481D4EE3
:105A800000780C36012821D00020FFF7D3FC2068D5
:105A9000FFF724FC304600F055FA2068FFF71EFCA3
:105AA0002878042811D11B4883250078AD000128EF
:105AB00010D00020FFF7BEFC2068FFF70FFC28463F
:105AC00000F040FA2068FFF709FCF8BD304600F00E
:105AD00039FAE5E7284600F035FAF8BD0008004835
